{
  "contractName": "UserContract",
  "abi": [
    {
      "anonymous": false,
      "inputs": [
        {
          "indexed": false,
          "internalType": "uint256",
          "name": "id",
          "type": "uint256"
        },
        {
          "indexed": false,
          "internalType": "string",
          "name": "walletAddress",
          "type": "string"
        },
        {
          "indexed": false,
          "internalType": "string",
          "name": "displayName",
          "type": "string"
        },
        {
          "indexed": false,
          "internalType": "string",
          "name": "email",
          "type": "string"
        },
        {
          "indexed": false,
          "internalType": "string",
          "name": "role",
          "type": "string"
        },
        {
          "indexed": false,
          "internalType": "string",
          "name": "createdAt",
          "type": "string"
        }
      ],
      "name": "UserCreated",
      "type": "event"
    },
    {
      "inputs": [],
      "name": "name",
      "outputs": [
        {
          "internalType": "string",
          "name": "",
          "type": "string"
        }
      ],
      "stateMutability": "view",
      "type": "function",
      "constant": true
    },
    {
      "inputs": [],
      "name": "userCount",
      "outputs": [
        {
          "internalType": "uint256",
          "name": "",
          "type": "uint256"
        }
      ],
      "stateMutability": "view",
      "type": "function",
      "constant": true
    },
    {
      "inputs": [
        {
          "internalType": "uint256",
          "name": "",
          "type": "uint256"
        }
      ],
      "name": "users",
      "outputs": [
        {
          "internalType": "uint256",
          "name": "id",
          "type": "uint256"
        },
        {
          "internalType": "string",
          "name": "walletAddress",
          "type": "string"
        },
        {
          "internalType": "string",
          "name": "displayName",
          "type": "string"
        },
        {
          "internalType": "string",
          "name": "email",
          "type": "string"
        },
        {
          "internalType": "string",
          "name": "role",
          "type": "string"
        },
        {
          "internalType": "string",
          "name": "createdAt",
          "type": "string"
        }
      ],
      "stateMutability": "view",
      "type": "function",
      "constant": true
    },
    {
      "inputs": [
        {
          "internalType": "string",
          "name": "_walletAddress",
          "type": "string"
        },
        {
          "internalType": "string",
          "name": "_displayName",
          "type": "string"
        },
        {
          "internalType": "string",
          "name": "_email",
          "type": "string"
        },
        {
          "internalType": "string",
          "name": "_role",
          "type": "string"
        },
        {
          "internalType": "string",
          "name": "_createdAt",
          "type": "string"
        }
      ],
      "name": "createUser",
      "outputs": [],
      "stateMutability": "nonpayable",
      "type": "function"
    }
  ],
  "bytecode": "0x60806040526040518060400160405280600481526020017f55736572000000000000000000000000000000000000000000000000000000008152506000908051906020019061004f929190610067565b50600060015534801561006157600080fd5b50610112565b828054600181600116156101000203166002900490600052602060002090601f01602090048101928261009d57600085556100e4565b82601f106100b657805160ff19168380011785556100e4565b828001600101855582156100e4579182015b828111156100e35782518255916020019190600101906100c8565b5b5090506100f191906100f5565b5090565b5b8082111561010e5760008160009055506001016100f6565b5090565b610a66806101216000396000f3fe608060405234801561001057600080fd5b506004361061004c5760003560e01c806306fdde031461005157806307973ccf1461006f578063365b98b21461008d57806365c06f70146100c2575b600080fd5b6100596100de565b604051610066919061087c565b60405180910390f35b61007761017c565b604051610084919061089e565b60405180910390f35b6100a760048036038101906100a2919061080b565b610182565b6040516100b9969594939291906108b9565b60405180910390f35b6100dc60048036038101906100d7919061071c565b6104b6565b005b60008054600181600116156101000203166002900480601f0160208091040260200160405190810160405280929190818152602001828054600181600116156101000203166002900480156101745780601f1061014957610100808354040283529160200191610174565b820191906000526020600020905b81548152906001019060200180831161015757829003601f168201915b505050505081565b60015481565b6002602052806000526040600020600091509050806000015490806001018054600181600116156101000203166002900480601f0160208091040260200160405190810160405280929190818152602001828054600181600116156101000203166002900480156102345780601f1061020957610100808354040283529160200191610234565b820191906000526020600020905b81548152906001019060200180831161021757829003601f168201915b505050505090806002018054600181600116156101000203166002900480601f0160208091040260200160405190810160405280929190818152602001828054600181600116156101000203166002900480156102d25780601f106102a7576101008083540402835291602001916102d2565b820191906000526020600020905b8154815290600101906020018083116102b557829003601f168201915b505050505090806003018054600181600116156101000203166002900480601f0160208091040260200160405190810160405280929190818152602001828054600181600116156101000203166002900480156103705780601f1061034557610100808354040283529160200191610370565b820191906000526020600020905b81548152906001019060200180831161035357829003601f168201915b505050505090806004018054600181600116156101000203166002900480601f01602080910402602001604051908101604052809291908181526020018280546001816001161561010002031660029004801561040e5780601f106103e35761010080835404028352916020019161040e565b820191906000526020600020905b8154815290600101906020018083116103f157829003601f168201915b505050505090806005018054600181600116156101000203166002900480601f0160208091040260200160405190810160405280929190818152602001828054600181600116156101000203166002900480156104ac5780601f10610481576101008083540402835291602001916104ac565b820191906000526020600020905b81548152906001019060200180831161048f57829003601f168201915b5050505050905086565b6001600081548092919060010191905055506040518060c001604052806001548152602001868152602001858152602001848152602001838152602001828152506002600060015481526020019081526020016000206000820151816000015560208201518160010190805190602001906105329291906105f4565b50604082015181600201908051906020019061054f9291906105f4565b50606082015181600301908051906020019061056c9291906105f4565b5060808201518160040190805190602001906105899291906105f4565b5060a08201518160050190805190602001906105a69291906105f4565b509050507fde8ec760d6549bc2dd603d82a32f841e3d45ed8bdf2ea1aedaabfdf7bc3fc89660015486868686866040516105e5969594939291906108b9565b60405180910390a15050505050565b828054600181600116156101000203166002900490600052602060002090601f01602090048101928261062a5760008555610671565b82601f1061064357805160ff1916838001178555610671565b82800160010185558215610671579182015b82811115610670578251825591602001919060010190610655565b5b50905061067e9190610682565b5090565b5b8082111561069b576000816000905550600101610683565b5090565b60006106b26106ad8461096e565b61093d565b9050828152602081018484840111156106ca57600080fd5b6106d58482856109c4565b509392505050565b600082601f8301126106ee57600080fd5b81356106fe84826020860161069f565b91505092915050565b60008135905061071681610a19565b92915050565b600080600080600060a0868803121561073457600080fd5b600086013567ffffffffffffffff81111561074e57600080fd5b61075a888289016106dd565b955050602086013567ffffffffffffffff81111561077757600080fd5b610783888289016106dd565b945050604086013567ffffffffffffffff8111156107a057600080fd5b6107ac888289016106dd565b935050606086013567ffffffffffffffff8111156107c957600080fd5b6107d5888289016106dd565b925050608086013567ffffffffffffffff8111156107f257600080fd5b6107fe888289016106dd565b9150509295509295909350565b60006020828403121561081d57600080fd5b600061082b84828501610707565b91505092915050565b600061083f8261099e565b61084981856109a9565b93506108598185602086016109d3565b61086281610a08565b840191505092915050565b610876816109ba565b82525050565b600060208201905081810360008301526108968184610834565b905092915050565b60006020820190506108b3600083018461086d565b92915050565b600060c0820190506108ce600083018961086d565b81810360208301526108e08188610834565b905081810360408301526108f48187610834565b905081810360608301526109088186610834565b9050818103608083015261091c8185610834565b905081810360a08301526109308184610834565b9050979650505050505050565b6000604051905081810181811067ffffffffffffffff8211171561096457610963610a06565b5b8060405250919050565b600067ffffffffffffffff82111561098957610988610a06565b5b601f19601f8301169050602081019050919050565b600081519050919050565b600082825260208201905092915050565b6000819050919050565b82818337600083830152505050565b60005b838110156109f15780820151818401526020810190506109d6565b83811115610a00576000848401525b50505050565bfe5b6000601f19601f8301169050919050565b610a22816109ba565b8114610a2d57600080fd5b5056fea264697066735822122027327c014cc05499478505c905a3d6ab577ab98baf0dfd83519f1e7f7951183264736f6c63430007060033",
  "immutableReferences": {},
  "source": "// SPDX-License-Identifier: UNLICENSED\r\npragma solidity >=0.4.22 <0.9.0;\r\npragma abicoder v2;\r\n\r\ncontract UserContract {\r\n  string public name = 'User';\r\n  uint256 public userCount = 0;\r\n\r\n  mapping(uint256 => User) public users;\r\n\r\n  struct User {\r\n    uint256 id;\r\n    string walletAddress;\r\n    string displayName;\r\n    string email;\r\n    string role;\r\n    string createdAt;\r\n  }\r\n\r\n  event UserCreated(\r\n    uint256 id,\r\n    string walletAddress,\r\n    string displayName,\r\n    string email,\r\n    string role,\r\n    string createdAt\r\n  );\r\n\r\n  function createUser(\r\n    string memory _walletAddress,\r\n    string memory _displayName,\r\n    string memory _email,\r\n    string memory _role,\r\n    string memory _createdAt\r\n  ) public {\r\n    userCount++;\r\n\r\n    users[userCount] = User(\r\n      userCount,\r\n      _walletAddress,\r\n      _displayName,\r\n      _email,\r\n      _role,\r\n      _createdAt\r\n    );\r\n\r\n    emit UserCreated(userCount, _walletAddress, _displayName, _email, _role, _createdAt);\r\n  }\r\n}\r\n",
  "sourcePath": "C:\\Users\\chama\\Documents\\FYP\\vimbal\\contracts\\UserContract.sol",
  "compiler": {
    "name": "solc",
    "version": "0.7.6+commit.7338295f.Emscripten.clang"
  },
  "schemaVersion": "3.4.9",
  "updatedAt": "2022-08-23T09:56:15.461Z",
  "networkType": "ethereum",
  "devdoc": {
    "kind": "dev",
    "methods": {},
    "version": 1
  },
  "userdoc": {
    "kind": "user",
    "methods": {},
    "version": 1
  }
}