{
  "contractName": "UserContract",
  "abi": [
    {
      "inputs": [],
      "name": "name",
      "outputs": [
        {
          "internalType": "string",
          "name": "",
          "type": "string"
        }
      ],
      "stateMutability": "view",
      "type": "function",
      "constant": true
    },
    {
      "inputs": [],
      "name": "userCount",
      "outputs": [
        {
          "internalType": "uint256",
          "name": "",
          "type": "uint256"
        }
      ],
      "stateMutability": "view",
      "type": "function",
      "constant": true
    },
    {
      "inputs": [
        {
          "internalType": "address",
          "name": "",
          "type": "address"
        },
        {
          "internalType": "uint256",
          "name": "",
          "type": "uint256"
        }
      ],
      "name": "users",
      "outputs": [
        {
          "internalType": "uint256",
          "name": "id",
          "type": "uint256"
        }
      ],
      "stateMutability": "view",
      "type": "function",
      "constant": true
    }
  ],
  "bytecode": "0x60806040526040518060400160405280600481526020017f55736572000000000000000000000000000000000000000000000000000000008152506000908051906020019061004f929190610067565b50600060015534801561006157600080fd5b50610112565b828054600181600116156101000203166002900490600052602060002090601f01602090048101928261009d57600085556100e4565b82601f106100b657805160ff19168380011785556100e4565b828001600101855582156100e4579182015b828111156100e35782518255916020019190600101906100c8565b5b5090506100f191906100f5565b5090565b5b8082111561010e5760008160009055506001016100f6565b5090565b61036c806101216000396000f3fe608060405234801561001057600080fd5b50600436106100415760003560e01c806306fdde031461004657806307973ccf1461006457806354a02f9e14610082575b600080fd5b61004e6100b2565b60405161005b919061022f565b60405180910390f35b61006c610150565b6040516100799190610251565b60405180910390f35b61009c600480360381019061009791906101ab565b610156565b6040516100a99190610251565b60405180910390f35b60008054600181600116156101000203166002900480601f0160208091040260200160405190810160405280929190818152602001828054600181600116156101000203166002900480156101485780601f1061011d57610100808354040283529160200191610148565b820191906000526020600020905b81548152906001019060200180831161012b57829003601f168201915b505050505081565b60015481565b6002602052816000526040600020602052806000526040600020600091509150508060000154905081565b60008135905061019081610308565b92915050565b6000813590506101a58161031f565b92915050565b600080604083850312156101be57600080fd5b60006101cc85828601610181565b92505060206101dd85828601610196565b9150509250929050565b60006101f28261026c565b6101fc8185610277565b935061020c8185602086016102c4565b610215816102f7565b840191505092915050565b610229816102ba565b82525050565b6000602082019050818103600083015261024981846101e7565b905092915050565b60006020820190506102666000830184610220565b92915050565b600081519050919050565b600082825260208201905092915050565b60006102938261029a565b9050919050565b600073ffffffffffffffffffffffffffffffffffffffff82169050919050565b6000819050919050565b60005b838110156102e25780820151818401526020810190506102c7565b838111156102f1576000848401525b50505050565b6000601f19601f8301169050919050565b61031181610288565b811461031c57600080fd5b50565b610328816102ba565b811461033357600080fd5b5056fea26469706673582212203c07ce76c125403584623a37627d0fc75e32f9e5d35931e7bb4d77344e60036164736f6c63430007060033",
  "immutableReferences": {},
  "source": "// SPDX-License-Identifier: UNLICENSED\r\npragma solidity >=0.4.22 <0.9.0;\r\npragma abicoder v2;\r\n\r\ncontract UserContract {\r\n  string public name = 'User';\r\n  uint256 public userCount = 0;\r\n\r\n  mapping(address => mapping(uint256 => User)) public users;\r\n\r\n  struct User {\r\n    uint256 id;\r\n  }\r\n}\r\n",
  "sourcePath": "C:\\Users\\chama\\Documents\\FYP\\vimbal\\contracts\\UserContract.sol",
  "compiler": {
    "name": "solc",
    "version": "0.7.6+commit.7338295f.Emscripten.clang"
  },
  "schemaVersion": "3.4.9",
  "updatedAt": "2022-08-22T07:53:06.407Z",
  "networkType": "ethereum",
  "devdoc": {
    "kind": "dev",
    "methods": {},
    "version": 1
  },
  "userdoc": {
    "kind": "user",
    "methods": {},
    "version": 1
  }
}