{
  "contractName": "FileContract",
  "abi": [
    {
      "anonymous": false,
      "inputs": [
        {
          "indexed": false,
          "internalType": "uint256",
          "name": "id",
          "type": "uint256"
        },
        {
          "indexed": false,
          "internalType": "string",
          "name": "hash",
          "type": "string"
        },
        {
          "indexed": false,
          "internalType": "string",
          "name": "fileName",
          "type": "string"
        },
        {
          "indexed": false,
          "internalType": "string",
          "name": "title",
          "type": "string"
        },
        {
          "indexed": false,
          "internalType": "string",
          "name": "authors",
          "type": "string"
        },
        {
          "indexed": false,
          "internalType": "string",
          "name": "keywords",
          "type": "string"
        },
        {
          "indexed": false,
          "internalType": "string",
          "name": "description",
          "type": "string"
        },
        {
          "indexed": false,
          "internalType": "uint256",
          "name": "tipAmount",
          "type": "uint256"
        },
        {
          "indexed": false,
          "internalType": "string",
          "name": "createdAt",
          "type": "string"
        },
        {
          "indexed": false,
          "internalType": "address payable",
          "name": "owner",
          "type": "address"
        },
        {
          "indexed": false,
          "internalType": "bool",
          "name": "isPublic",
          "type": "bool"
        }
      ],
      "name": "FileCreated",
      "type": "event"
    },
    {
      "anonymous": false,
      "inputs": [
        {
          "indexed": false,
          "internalType": "uint256",
          "name": "id",
          "type": "uint256"
        },
        {
          "indexed": false,
          "internalType": "string",
          "name": "hash",
          "type": "string"
        },
        {
          "indexed": false,
          "internalType": "string",
          "name": "fileName",
          "type": "string"
        },
        {
          "indexed": false,
          "internalType": "string",
          "name": "title",
          "type": "string"
        },
        {
          "indexed": false,
          "internalType": "string",
          "name": "authors",
          "type": "string"
        },
        {
          "indexed": false,
          "internalType": "string",
          "name": "keywords",
          "type": "string"
        },
        {
          "indexed": false,
          "internalType": "string",
          "name": "description",
          "type": "string"
        },
        {
          "indexed": false,
          "internalType": "uint256",
          "name": "tipAmount",
          "type": "uint256"
        },
        {
          "indexed": false,
          "internalType": "string",
          "name": "createdAt",
          "type": "string"
        },
        {
          "indexed": false,
          "internalType": "address payable",
          "name": "owner",
          "type": "address"
        },
        {
          "indexed": false,
          "internalType": "bool",
          "name": "isPublic",
          "type": "bool"
        }
      ],
      "name": "FileTipped",
      "type": "event"
    },
    {
      "inputs": [],
      "name": "fileCount",
      "outputs": [
        {
          "internalType": "uint256",
          "name": "",
          "type": "uint256"
        }
      ],
      "stateMutability": "view",
      "type": "function",
      "constant": true
    },
    {
      "inputs": [
        {
          "internalType": "uint256",
          "name": "",
          "type": "uint256"
        }
      ],
      "name": "files",
      "outputs": [
        {
          "internalType": "uint256",
          "name": "id",
          "type": "uint256"
        },
        {
          "internalType": "string",
          "name": "hash",
          "type": "string"
        },
        {
          "internalType": "string",
          "name": "fileName",
          "type": "string"
        },
        {
          "internalType": "string",
          "name": "title",
          "type": "string"
        },
        {
          "internalType": "string",
          "name": "authors",
          "type": "string"
        },
        {
          "internalType": "string",
          "name": "keywords",
          "type": "string"
        },
        {
          "internalType": "string",
          "name": "description",
          "type": "string"
        },
        {
          "internalType": "uint256",
          "name": "tipAmount",
          "type": "uint256"
        },
        {
          "internalType": "string",
          "name": "createdAt",
          "type": "string"
        },
        {
          "internalType": "address payable",
          "name": "owner",
          "type": "address"
        },
        {
          "internalType": "bool",
          "name": "isPublic",
          "type": "bool"
        }
      ],
      "stateMutability": "view",
      "type": "function",
      "constant": true
    },
    {
      "inputs": [
        {
          "internalType": "string",
          "name": "",
          "type": "string"
        }
      ],
      "name": "filesByHash",
      "outputs": [
        {
          "internalType": "uint256",
          "name": "id",
          "type": "uint256"
        },
        {
          "internalType": "string",
          "name": "hash",
          "type": "string"
        },
        {
          "internalType": "string",
          "name": "fileName",
          "type": "string"
        },
        {
          "internalType": "string",
          "name": "title",
          "type": "string"
        },
        {
          "internalType": "string",
          "name": "authors",
          "type": "string"
        },
        {
          "internalType": "string",
          "name": "keywords",
          "type": "string"
        },
        {
          "internalType": "string",
          "name": "description",
          "type": "string"
        },
        {
          "internalType": "uint256",
          "name": "tipAmount",
          "type": "uint256"
        },
        {
          "internalType": "string",
          "name": "createdAt",
          "type": "string"
        },
        {
          "internalType": "address payable",
          "name": "owner",
          "type": "address"
        },
        {
          "internalType": "bool",
          "name": "isPublic",
          "type": "bool"
        }
      ],
      "stateMutability": "view",
      "type": "function",
      "constant": true
    },
    {
      "inputs": [
        {
          "internalType": "address",
          "name": "",
          "type": "address"
        },
        {
          "internalType": "uint256",
          "name": "",
          "type": "uint256"
        }
      ],
      "name": "filesByOwner",
      "outputs": [
        {
          "internalType": "uint256",
          "name": "id",
          "type": "uint256"
        },
        {
          "internalType": "string",
          "name": "hash",
          "type": "string"
        },
        {
          "internalType": "string",
          "name": "fileName",
          "type": "string"
        },
        {
          "internalType": "string",
          "name": "title",
          "type": "string"
        },
        {
          "internalType": "string",
          "name": "authors",
          "type": "string"
        },
        {
          "internalType": "string",
          "name": "keywords",
          "type": "string"
        },
        {
          "internalType": "string",
          "name": "description",
          "type": "string"
        },
        {
          "internalType": "uint256",
          "name": "tipAmount",
          "type": "uint256"
        },
        {
          "internalType": "string",
          "name": "createdAt",
          "type": "string"
        },
        {
          "internalType": "address payable",
          "name": "owner",
          "type": "address"
        },
        {
          "internalType": "bool",
          "name": "isPublic",
          "type": "bool"
        }
      ],
      "stateMutability": "view",
      "type": "function",
      "constant": true
    },
    {
      "inputs": [],
      "name": "name",
      "outputs": [
        {
          "internalType": "string",
          "name": "",
          "type": "string"
        }
      ],
      "stateMutability": "view",
      "type": "function",
      "constant": true
    },
    {
      "inputs": [
        {
          "internalType": "string",
          "name": "_fileHash",
          "type": "string"
        },
        {
          "internalType": "string",
          "name": "_fileName",
          "type": "string"
        },
        {
          "internalType": "string",
          "name": "_title",
          "type": "string"
        },
        {
          "internalType": "string",
          "name": "_authors",
          "type": "string"
        },
        {
          "internalType": "string",
          "name": "_keywords",
          "type": "string"
        },
        {
          "internalType": "string",
          "name": "_description",
          "type": "string"
        },
        {
          "internalType": "string",
          "name": "_createdAt",
          "type": "string"
        },
        {
          "internalType": "bool",
          "name": "_isPublic",
          "type": "bool"
        }
      ],
      "name": "uploadFile",
      "outputs": [],
      "stateMutability": "nonpayable",
      "type": "function"
    },
    {
      "inputs": [
        {
          "internalType": "uint256",
          "name": "_id",
          "type": "uint256"
        }
      ],
      "name": "tipFileOwner",
      "outputs": [],
      "stateMutability": "payable",
      "type": "function",
      "payable": true
    },
    {
      "inputs": [
        {
          "internalType": "string",
          "name": "fileHash",
          "type": "string"
        }
      ],
      "name": "isFileOwned",
      "outputs": [
        {
          "internalType": "bool",
          "name": "",
          "type": "bool"
        }
      ],
      "stateMutability": "view",
      "type": "function",
      "constant": true
    }
  ],
  "bytecode": "0x60806040526040518060400160405280600c81526020017f46696c65436f6e7472616374000000000000000000000000000000000000000081525060009080519060200190620000519291906200006b565b5060006001553480156200006457600080fd5b5062000121565b828054600181600116156101000203166002900490600052602060002090601f016020900481019282620000a35760008555620000ef565b82601f10620000be57805160ff1916838001178555620000ef565b82800160010185558215620000ef579182015b82811115620000ee578251825591602001919060010190620000d1565b5b509050620000fe919062000102565b5090565b5b808211156200011d57600081600090555060010162000103565b5090565b612c0f80620001316000396000f3fe60806040526004361061007b5760003560e01c80635e5aae5d1161004e5780635e5aae5d14610139578063b854449314610162578063f4c714b4146101a9578063fd60c0fe146101f05761007b565b80630160baf71461008057806306fdde03146100c7578063182cb8b2146100f2578063439535191461010e575b600080fd5b34801561008c57600080fd5b506100a760048036038101906100a291906125ba565b61022d565b6040516100be9b9a9998979695949392919061296f565b60405180910390f35b3480156100d357600080fd5b506100dc6106f2565b6040516100e99190612856565b60405180910390f35b61010c60048036038101906101079190612755565b610790565b005b34801561011a57600080fd5b50610123611321565b6040516101309190612878565b60405180910390f35b34801561014557600080fd5b50610160600480360381019061015b91906125fb565b611327565b005b34801561016e57600080fd5b506101896004803603810190610184919061257e565b6119dd565b6040516101a09b9a9998979695949392919061296f565b60405180910390f35b3480156101b557600080fd5b506101d060048036038101906101cb9190612755565b611e99565b6040516101e79b9a9998979695949392919061296f565b60405180910390f35b3480156101fc57600080fd5b50610217600480360381019061021291906125ba565b612348565b604051610224919061283b565b60405180910390f35b600381805160208101820180518482526020830160208501208183528095505050505050600091509050806000015490806001018054600181600116156101000203166002900480601f0160208091040260200160405190810160405280929190818152602001828054600181600116156101000203166002900480156102f55780601f106102ca576101008083540402835291602001916102f5565b820191906000526020600020905b8154815290600101906020018083116102d857829003601f168201915b505050505090806002018054600181600116156101000203166002900480601f0160208091040260200160405190810160405280929190818152602001828054600181600116156101000203166002900480156103935780601f1061036857610100808354040283529160200191610393565b820191906000526020600020905b81548152906001019060200180831161037657829003601f168201915b505050505090806003018054600181600116156101000203166002900480601f0160208091040260200160405190810160405280929190818152602001828054600181600116156101000203166002900480156104315780601f1061040657610100808354040283529160200191610431565b820191906000526020600020905b81548152906001019060200180831161041457829003601f168201915b505050505090806004018054600181600116156101000203166002900480601f0160208091040260200160405190810160405280929190818152602001828054600181600116156101000203166002900480156104cf5780601f106104a4576101008083540402835291602001916104cf565b820191906000526020600020905b8154815290600101906020018083116104b257829003601f168201915b505050505090806005018054600181600116156101000203166002900480601f01602080910402602001604051908101604052809291908181526020018280546001816001161561010002031660029004801561056d5780601f106105425761010080835404028352916020019161056d565b820191906000526020600020905b81548152906001019060200180831161055057829003601f168201915b505050505090806006018054600181600116156101000203166002900480601f01602080910402602001604051908101604052809291908181526020018280546001816001161561010002031660029004801561060b5780601f106105e05761010080835404028352916020019161060b565b820191906000526020600020905b8154815290600101906020018083116105ee57829003601f168201915b505050505090806007015490806008018054600181600116156101000203166002900480601f0160208091040260200160405190810160405280929190818152602001828054600181600116156101000203166002900480156106af5780601f10610684576101008083540402835291602001916106af565b820191906000526020600020905b81548152906001019060200180831161069257829003601f168201915b5050505050908060090160009054906101000a900473ffffffffffffffffffffffffffffffffffffffff16908060090160149054906101000a900460ff1690508b565b60008054600181600116156101000203166002900480601f0160208091040260200160405190810160405280929190818152602001828054600181600116156101000203166002900480156107885780601f1061075d57610100808354040283529160200191610788565b820191906000526020600020905b81548152906001019060200180831161076b57829003601f168201915b505050505081565b6000811180156107a257506001548111155b6107ab57600080fd5b6000600260008381526020019081526020016000206040518061016001604052908160008201548152602001600182018054600181600116156101000203166002900480601f01602080910402602001604051908101604052809291908181526020018280546001816001161561010002031660029004801561086f5780601f106108445761010080835404028352916020019161086f565b820191906000526020600020905b81548152906001019060200180831161085257829003601f168201915b50505050508152602001600282018054600181600116156101000203166002900480601f0160208091040260200160405190810160405280929190818152602001828054600181600116156101000203166002900480156109115780601f106108e657610100808354040283529160200191610911565b820191906000526020600020905b8154815290600101906020018083116108f457829003601f168201915b50505050508152602001600382018054600181600116156101000203166002900480601f0160208091040260200160405190810160405280929190818152602001828054600181600116156101000203166002900480156109b35780601f10610988576101008083540402835291602001916109b3565b820191906000526020600020905b81548152906001019060200180831161099657829003601f168201915b50505050508152602001600482018054600181600116156101000203166002900480601f016020809104026020016040519081016040528092919081815260200182805460018160011615610100020316600290048015610a555780601f10610a2a57610100808354040283529160200191610a55565b820191906000526020600020905b815481529060010190602001808311610a3857829003601f168201915b50505050508152602001600582018054600181600116156101000203166002900480601f016020809104026020016040519081016040528092919081815260200182805460018160011615610100020316600290048015610af75780601f10610acc57610100808354040283529160200191610af7565b820191906000526020600020905b815481529060010190602001808311610ada57829003601f168201915b50505050508152602001600682018054600181600116156101000203166002900480601f016020809104026020016040519081016040528092919081815260200182805460018160011615610100020316600290048015610b995780601f10610b6e57610100808354040283529160200191610b99565b820191906000526020600020905b815481529060010190602001808311610b7c57829003601f168201915b5050505050815260200160078201548152602001600882018054600181600116156101000203166002900480601f016020809104026020016040519081016040528092919081815260200182805460018160011615610100020316600290048015610c455780601f10610c1a57610100808354040283529160200191610c45565b820191906000526020600020905b815481529060010190602001808311610c2857829003601f168201915b505050505081526020016009820160009054906101000a900473ffffffffffffffffffffffffffffffffffffffff1673ffffffffffffffffffffffffffffffffffffffff1673ffffffffffffffffffffffffffffffffffffffff1681526020016009820160149054906101000a900460ff1615151515815250509050600081610120015190508073ffffffffffffffffffffffffffffffffffffffff166108fc349081150290604051600060405180830381858888f19350505050158015610d11573d6000803e3d6000fd5b50348260e00151018260e00181815250508160026000858152602001908152602001600020600082015181600001556020820151816001019080519060200190610d5c929190612397565b506040820151816002019080519060200190610d79929190612397565b506060820151816003019080519060200190610d96929190612397565b506080820151816004019080519060200190610db3929190612397565b5060a0820151816005019080519060200190610dd0929190612397565b5060c0820151816006019080519060200190610ded929190612397565b5060e08201518160070155610100820151816008019080519060200190610e15929190612397565b506101208201518160090160006101000a81548173ffffffffffffffffffffffffffffffffffffffff021916908373ffffffffffffffffffffffffffffffffffffffff1602179055506101408201518160090160146101000a81548160ff02191690831515021790555090505060026000600154815260200190815260200160002060038360200151604051610eab9190612824565b90815260200160405180910390206000820154816000015560018201816001019080546001816001161561010002031660029004610eea929190612425565b5060028201816002019080546001816001161561010002031660029004610f12929190612425565b5060038201816003019080546001816001161561010002031660029004610f3a929190612425565b5060048201816004019080546001816001161561010002031660029004610f62929190612425565b5060058201816005019080546001816001161561010002031660029004610f8a929190612425565b5060068201816006019080546001816001161561010002031660029004610fb2929190612425565b506007820154816007015560088201816008019080546001816001161561010002031660029004610fe4929190612425565b506009820160009054906101000a900473ffffffffffffffffffffffffffffffffffffffff168160090160006101000a81548173ffffffffffffffffffffffffffffffffffffffff021916908373ffffffffffffffffffffffffffffffffffffffff1602179055506009820160149054906101000a900460ff168160090160146101000a81548160ff021916908315150217905550905050600260006001548152602001908152602001600020600460003373ffffffffffffffffffffffffffffffffffffffff1673ffffffffffffffffffffffffffffffffffffffff168152602001908152602001600020600060015481526020019081526020016000206000820154816000015560018201816001019080546001816001161561010002031660029004611114929190612425565b506002820181600201908054600181600116156101000203166002900461113c929190612425565b5060038201816003019080546001816001161561010002031660029004611164929190612425565b506004820181600401908054600181600116156101000203166002900461118c929190612425565b50600582018160050190805460018160011615610100020316600290046111b4929190612425565b50600682018160060190805460018160011615610100020316600290046111dc929190612425565b50600782015481600701556008820181600801908054600181600116156101000203166002900461120e929190612425565b506009820160009054906101000a900473ffffffffffffffffffffffffffffffffffffffff168160090160006101000a81548173ffffffffffffffffffffffffffffffffffffffff021916908373ffffffffffffffffffffffffffffffffffffffff1602179055506009820160149054906101000a900460ff168160090160146101000a81548160ff0219169083151502179055509050507f94f6c42799afc50a4c5ca93482c0ed1efcbe45a0acc3c773a8f4044f423e8cb48383602001518460400151856060015186608001518760a001518860c001518960e001518a61010001518b61012001518c61014001516040516113149b9a9998979695949392919061296f565b60405180910390a1505050565b60015481565b600088511161133557600080fd5b600086511161134357600080fd5b600085511161135157600080fd5b600073ffffffffffffffffffffffffffffffffffffffff163373ffffffffffffffffffffffffffffffffffffffff16141561138b57600080fd5b6001600081548092919060010191905055506040518061016001604052806001548152602001898152602001888152602001878152602001868152602001858152602001848152602001600081526020018381526020013373ffffffffffffffffffffffffffffffffffffffff16815260200182151581525060026000600154815260200190815260200160002060008201518160000155602082015181600101908051906020019061143f929190612397565b50604082015181600201908051906020019061145c929190612397565b506060820151816003019080519060200190611479929190612397565b506080820151816004019080519060200190611496929190612397565b5060a08201518160050190805190602001906114b3929190612397565b5060c08201518160060190805190602001906114d0929190612397565b5060e082015181600701556101008201518160080190805190602001906114f8929190612397565b506101208201518160090160006101000a81548173ffffffffffffffffffffffffffffffffffffffff021916908373ffffffffffffffffffffffffffffffffffffffff1602179055506101408201518160090160146101000a81548160ff02191690831515021790555090505060026000600154815260200190815260200160002060038960405161158a9190612824565b908152602001604051809103902060008201548160000155600182018160010190805460018160011615610100020316600290046115c9929190612425565b50600282018160020190805460018160011615610100020316600290046115f1929190612425565b5060038201816003019080546001816001161561010002031660029004611619929190612425565b5060048201816004019080546001816001161561010002031660029004611641929190612425565b5060058201816005019080546001816001161561010002031660029004611669929190612425565b5060068201816006019080546001816001161561010002031660029004611691929190612425565b5060078201548160070155600882018160080190805460018160011615610100020316600290046116c3929190612425565b506009820160009054906101000a900473ffffffffffffffffffffffffffffffffffffffff168160090160006101000a81548173ffffffffffffffffffffffffffffffffffffffff021916908373ffffffffffffffffffffffffffffffffffffffff1602179055506009820160149054906101000a900460ff168160090160146101000a81548160ff021916908315150217905550905050600260006001548152602001908152602001600020600460003373ffffffffffffffffffffffffffffffffffffffff1673ffffffffffffffffffffffffffffffffffffffff1681526020019081526020016000206000600154815260200190815260200160002060008201548160000155600182018160010190805460018160011615610100020316600290046117f3929190612425565b506002820181600201908054600181600116156101000203166002900461181b929190612425565b5060038201816003019080546001816001161561010002031660029004611843929190612425565b506004820181600401908054600181600116156101000203166002900461186b929190612425565b5060058201816005019080546001816001161561010002031660029004611893929190612425565b50600682018160060190805460018160011615610100020316600290046118bb929190612425565b5060078201548160070155600882018160080190805460018160011615610100020316600290046118ed929190612425565b506009820160009054906101000a900473ffffffffffffffffffffffffffffffffffffffff168160090160006101000a81548173ffffffffffffffffffffffffffffffffffffffff021916908373ffffffffffffffffffffffffffffffffffffffff1602179055506009820160149054906101000a900460ff168160090160146101000a81548160ff0219169083151502179055509050507f21e1c6c58df2da9235287eaade71694f0dd1a786e2589151965bcc002e33d9a860015489898989898960008a338b6040516119cb9b9a99989796959493929190612893565b60405180910390a15050505050505050565b600460205281600052604060002060205280600052604060002060009150915050806000015490806001018054600181600116156101000203166002900480601f016020809104026020016040519081016040528092919081815260200182805460018160011615610100020316600290048015611a9c5780601f10611a7157610100808354040283529160200191611a9c565b820191906000526020600020905b815481529060010190602001808311611a7f57829003601f168201915b505050505090806002018054600181600116156101000203166002900480601f016020809104026020016040519081016040528092919081815260200182805460018160011615610100020316600290048015611b3a5780601f10611b0f57610100808354040283529160200191611b3a565b820191906000526020600020905b815481529060010190602001808311611b1d57829003601f168201915b505050505090806003018054600181600116156101000203166002900480601f016020809104026020016040519081016040528092919081815260200182805460018160011615610100020316600290048015611bd85780601f10611bad57610100808354040283529160200191611bd8565b820191906000526020600020905b815481529060010190602001808311611bbb57829003601f168201915b505050505090806004018054600181600116156101000203166002900480601f016020809104026020016040519081016040528092919081815260200182805460018160011615610100020316600290048015611c765780601f10611c4b57610100808354040283529160200191611c76565b820191906000526020600020905b815481529060010190602001808311611c5957829003601f168201915b505050505090806005018054600181600116156101000203166002900480601f016020809104026020016040519081016040528092919081815260200182805460018160011615610100020316600290048015611d145780601f10611ce957610100808354040283529160200191611d14565b820191906000526020600020905b815481529060010190602001808311611cf757829003601f168201915b505050505090806006018054600181600116156101000203166002900480601f016020809104026020016040519081016040528092919081815260200182805460018160011615610100020316600290048015611db25780601f10611d8757610100808354040283529160200191611db2565b820191906000526020600020905b815481529060010190602001808311611d9557829003601f168201915b505050505090806007015490806008018054600181600116156101000203166002900480601f016020809104026020016040519081016040528092919081815260200182805460018160011615610100020316600290048015611e565780601f10611e2b57610100808354040283529160200191611e56565b820191906000526020600020905b815481529060010190602001808311611e3957829003601f168201915b5050505050908060090160009054906101000a900473ffffffffffffffffffffffffffffffffffffffff16908060090160149054906101000a900460ff1690508b565b6002602052806000526040600020600091509050806000015490806001018054600181600116156101000203166002900480601f016020809104026020016040519081016040528092919081815260200182805460018160011615610100020316600290048015611f4b5780601f10611f2057610100808354040283529160200191611f4b565b820191906000526020600020905b815481529060010190602001808311611f2e57829003601f168201915b505050505090806002018054600181600116156101000203166002900480601f016020809104026020016040519081016040528092919081815260200182805460018160011615610100020316600290048015611fe95780601f10611fbe57610100808354040283529160200191611fe9565b820191906000526020600020905b815481529060010190602001808311611fcc57829003601f168201915b505050505090806003018054600181600116156101000203166002900480601f0160208091040260200160405190810160405280929190818152602001828054600181600116156101000203166002900480156120875780601f1061205c57610100808354040283529160200191612087565b820191906000526020600020905b81548152906001019060200180831161206a57829003601f168201915b505050505090806004018054600181600116156101000203166002900480601f0160208091040260200160405190810160405280929190818152602001828054600181600116156101000203166002900480156121255780601f106120fa57610100808354040283529160200191612125565b820191906000526020600020905b81548152906001019060200180831161210857829003601f168201915b505050505090806005018054600181600116156101000203166002900480601f0160208091040260200160405190810160405280929190818152602001828054600181600116156101000203166002900480156121c35780601f10612198576101008083540402835291602001916121c3565b820191906000526020600020905b8154815290600101906020018083116121a657829003601f168201915b505050505090806006018054600181600116156101000203166002900480601f0160208091040260200160405190810160405280929190818152602001828054600181600116156101000203166002900480156122615780601f1061223657610100808354040283529160200191612261565b820191906000526020600020905b81548152906001019060200180831161224457829003601f168201915b505050505090806007015490806008018054600181600116156101000203166002900480601f0160208091040260200160405190810160405280929190818152602001828054600181600116156101000203166002900480156123055780601f106122da57610100808354040283529160200191612305565b820191906000526020600020905b8154815290600101906020018083116122e857829003601f168201915b5050505050908060090160009054906101000a900473ffffffffffffffffffffffffffffffffffffffff16908060090160149054906101000a900460ff1690508b565b600080600154118015612390575060006003836040516123689190612824565b9081526020016040518091039020600101805460018160011615610100020316600290049050115b9050919050565b828054600181600116156101000203166002900490600052602060002090601f0160209004810192826123cd5760008555612414565b82601f106123e657805160ff1916838001178555612414565b82800160010185558215612414579182015b828111156124135782518255916020019190600101906123f8565b5b50905061242191906124ba565b5090565b828054600181600116156101000203166002900490600052602060002090601f01602090048101928261245b57600085556124a9565b82601f1061246c57805485556124a9565b828001600101855582156124a957600052602060002091601f016020900482015b828111156124a857825482559160010191906001019061248d565b5b5090506124b691906124ba565b5090565b5b808211156124d35760008160009055506001016124bb565b5090565b60006124ea6124e584612a7c565b612a4b565b90508281526020810184848401111561250257600080fd5b61250d848285612b3f565b509392505050565b60008135905061252481612b94565b92915050565b60008135905061253981612bab565b92915050565b600082601f83011261255057600080fd5b81356125608482602086016124d7565b91505092915050565b60008135905061257881612bc2565b92915050565b6000806040838503121561259157600080fd5b600061259f85828601612515565b92505060206125b085828601612569565b9150509250929050565b6000602082840312156125cc57600080fd5b600082013567ffffffffffffffff8111156125e657600080fd5b6125f28482850161253f565b91505092915050565b600080600080600080600080610100898b03121561261857600080fd5b600089013567ffffffffffffffff81111561263257600080fd5b61263e8b828c0161253f565b985050602089013567ffffffffffffffff81111561265b57600080fd5b6126678b828c0161253f565b975050604089013567ffffffffffffffff81111561268457600080fd5b6126908b828c0161253f565b965050606089013567ffffffffffffffff8111156126ad57600080fd5b6126b98b828c0161253f565b955050608089013567ffffffffffffffff8111156126d657600080fd5b6126e28b828c0161253f565b94505060a089013567ffffffffffffffff8111156126ff57600080fd5b61270b8b828c0161253f565b93505060c089013567ffffffffffffffff81111561272857600080fd5b6127348b828c0161253f565b92505060e06127458b828c0161252a565b9150509295985092959890939650565b60006020828403121561276757600080fd5b600061277584828501612569565b91505092915050565b61278781612ae5565b82525050565b61279681612af7565b82525050565b6127a581612b2d565b82525050565b60006127b682612aac565b6127c08185612ab7565b93506127d0818560208601612b4e565b6127d981612b83565b840191505092915050565b60006127ef82612aac565b6127f98185612ac8565b9350612809818560208601612b4e565b80840191505092915050565b61281e81612b23565b82525050565b600061283082846127e4565b915081905092915050565b6000602082019050612850600083018461278d565b92915050565b6000602082019050818103600083015261287081846127ab565b905092915050565b600060208201905061288d6000830184612815565b92915050565b6000610160820190506128a9600083018e612815565b81810360208301526128bb818d6127ab565b905081810360408301526128cf818c6127ab565b905081810360608301526128e3818b6127ab565b905081810360808301526128f7818a6127ab565b905081810360a083015261290b81896127ab565b905081810360c083015261291f81886127ab565b905061292e60e083018761279c565b81810361010083015261294181866127ab565b905061295161012083018561277e565b61295f61014083018461278d565b9c9b505050505050505050505050565b600061016082019050612985600083018e612815565b8181036020830152612997818d6127ab565b905081810360408301526129ab818c6127ab565b905081810360608301526129bf818b6127ab565b905081810360808301526129d3818a6127ab565b905081810360a08301526129e781896127ab565b905081810360c08301526129fb81886127ab565b9050612a0a60e0830187612815565b818103610100830152612a1d81866127ab565b9050612a2d61012083018561277e565b612a3b61014083018461278d565b9c9b505050505050505050505050565b6000604051905081810181811067ffffffffffffffff82111715612a7257612a71612b81565b5b8060405250919050565b600067ffffffffffffffff821115612a9757612a96612b81565b5b601f19601f8301169050602081019050919050565b600081519050919050565b600082825260208201905092915050565b600081905092915050565b6000612ade82612b03565b9050919050565b6000612af082612b03565b9050919050565b60008115159050919050565b600073ffffffffffffffffffffffffffffffffffffffff82169050919050565b6000819050919050565b6000612b3882612b23565b9050919050565b82818337600083830152505050565b60005b83811015612b6c578082015181840152602081019050612b51565b83811115612b7b576000848401525b50505050565bfe5b6000601f19601f8301169050919050565b612b9d81612ad3565b8114612ba857600080fd5b50565b612bb481612af7565b8114612bbf57600080fd5b50565b612bcb81612b23565b8114612bd657600080fd5b5056fea26469706673582212205bc9b7c0c782cc02b730bc844aee6820b07fb8e922f3bb2ba542ea882e539a2764736f6c63430007060033",
  "immutableReferences": {},
  "source": "// SPDX-License-Identifier: UNLICENSED\r\npragma solidity >=0.4.22 <0.9.0;\r\npragma abicoder v2;\r\n\r\ncontract FileContract {\r\n  string public name = 'FileContract';\r\n\r\n  uint256 public fileCount = 0;\r\n\r\n  mapping(uint256 => File) public files;\r\n  mapping(string => File) public filesByHash;\r\n  mapping(address => mapping(uint256 => File)) public filesByOwner;\r\n\r\n  struct File {\r\n    uint256 id;\r\n    string hash;\r\n    string fileName;\r\n    string title;\r\n    string authors;\r\n    string keywords;\r\n    string description;\r\n    uint256 tipAmount;\r\n    string createdAt;\r\n    address payable owner;\r\n    bool isPublic;\r\n  }\r\n\r\n  event FileCreated(\r\n    uint256 id,\r\n    string hash,\r\n    string fileName,\r\n    string title,\r\n    string authors,\r\n    string keywords,\r\n    string description,\r\n    uint256 tipAmount,\r\n    string createdAt,\r\n    address payable owner,\r\n    bool isPublic\r\n  );\r\n\r\n  event FileTipped(\r\n    uint256 id,\r\n    string hash,\r\n    string fileName,\r\n    string title,\r\n    string authors,\r\n    string keywords,\r\n    string description,\r\n    uint256 tipAmount,\r\n    string createdAt,\r\n    address payable owner,\r\n    bool isPublic\r\n  );\r\n\r\n  function uploadFile(\r\n    string memory _fileHash,\r\n    string memory _fileName,\r\n    string memory _title,\r\n    string memory _authors,\r\n    string memory _keywords,\r\n    string memory _description,\r\n    string memory _createdAt,\r\n    bool _isPublic\r\n  ) public {\r\n    require(bytes(_fileHash).length > 0);\r\n    require(bytes(_title).length > 0);\r\n    require(bytes(_authors).length > 0);\r\n    require(msg.sender != address(0x0));\r\n    fileCount++;\r\n\r\n    files[fileCount] = File(\r\n      fileCount,\r\n      _fileHash,\r\n      _fileName,\r\n      _title,\r\n      _authors,\r\n      _keywords,\r\n      _description,\r\n      0,\r\n      _createdAt,\r\n      payable(address(msg.sender)),\r\n      _isPublic\r\n    );\r\n\r\n    filesByHash[_fileHash] = files[fileCount];\r\n    filesByOwner[msg.sender][fileCount] = files[fileCount];\r\n\r\n    emit FileCreated(\r\n      fileCount,\r\n      _fileHash,\r\n      _fileName,\r\n      _title,\r\n      _authors,\r\n      _keywords,\r\n      _description,\r\n      0,\r\n      _createdAt,\r\n      payable(address(msg.sender)),\r\n      _isPublic\r\n    );\r\n  }\r\n\r\n  function tipFileOwner(uint256 _id) public payable {\r\n    require(_id > 0 && _id <= fileCount);\r\n\r\n    File memory _file = files[_id];\r\n    address payable _owner = _file.owner;\r\n    _owner.transfer(msg.value);\r\n\r\n    _file.tipAmount = _file.tipAmount + msg.value;\r\n    files[_id] = _file;\r\n\r\n    filesByHash[_file.hash] = files[fileCount];\r\n    filesByOwner[msg.sender][fileCount] = files[fileCount];\r\n\r\n    emit FileTipped(\r\n      _id,\r\n      _file.hash,\r\n      _file.fileName,\r\n      _file.title,\r\n      _file.authors,\r\n      _file.keywords,\r\n      _file.description,\r\n      _file.tipAmount,\r\n      _file.createdAt,\r\n      _file.owner,\r\n      _file.isPublic\r\n    );\r\n  }\r\n\r\n  function isFileOwned(string memory fileHash) public view returns (bool) {\r\n    return fileCount > 0 && bytes(filesByHash[fileHash].hash).length > 0;\r\n  }\r\n}\r\n",
  "sourcePath": "C:\\Users\\chama\\Documents\\FYP\\vimbal\\contracts\\FileContract.sol",
  "compiler": {
    "name": "solc",
    "version": "0.7.6+commit.7338295f.Emscripten.clang"
  },
  "schemaVersion": "3.4.9",
  "updatedAt": "2022-12-05T19:30:39.726Z",
  "networkType": "ethereum",
  "devdoc": {
    "kind": "dev",
    "methods": {},
    "version": 1
  },
  "userdoc": {
    "kind": "user",
    "methods": {},
    "version": 1
  }
}