{
  "contractName": "FileContract",
  "abi": [
    {
      "anonymous": false,
      "inputs": [
        {
          "indexed": false,
          "internalType": "uint256",
          "name": "id",
          "type": "uint256"
        },
        {
          "indexed": false,
          "internalType": "string",
          "name": "hash",
          "type": "string"
        },
        {
          "indexed": false,
          "internalType": "string",
          "name": "fileName",
          "type": "string"
        },
        {
          "indexed": false,
          "internalType": "string",
          "name": "title",
          "type": "string"
        },
        {
          "indexed": false,
          "internalType": "string",
          "name": "authors",
          "type": "string"
        },
        {
          "indexed": false,
          "internalType": "string",
          "name": "keywords",
          "type": "string"
        },
        {
          "indexed": false,
          "internalType": "string",
          "name": "description",
          "type": "string"
        },
        {
          "indexed": false,
          "internalType": "uint256",
          "name": "tipAmount",
          "type": "uint256"
        },
        {
          "indexed": false,
          "internalType": "string",
          "name": "createdAt",
          "type": "string"
        },
        {
          "indexed": false,
          "internalType": "address payable",
          "name": "owner",
          "type": "address"
        }
      ],
      "name": "FileCreated",
      "type": "event"
    },
    {
      "anonymous": false,
      "inputs": [
        {
          "indexed": false,
          "internalType": "uint256",
          "name": "id",
          "type": "uint256"
        },
        {
          "indexed": false,
          "internalType": "string",
          "name": "hash",
          "type": "string"
        },
        {
          "indexed": false,
          "internalType": "string",
          "name": "fileName",
          "type": "string"
        },
        {
          "indexed": false,
          "internalType": "string",
          "name": "title",
          "type": "string"
        },
        {
          "indexed": false,
          "internalType": "string",
          "name": "authors",
          "type": "string"
        },
        {
          "indexed": false,
          "internalType": "string",
          "name": "keywords",
          "type": "string"
        },
        {
          "indexed": false,
          "internalType": "string",
          "name": "description",
          "type": "string"
        },
        {
          "indexed": false,
          "internalType": "uint256",
          "name": "tipAmount",
          "type": "uint256"
        },
        {
          "indexed": false,
          "internalType": "string",
          "name": "createdAt",
          "type": "string"
        },
        {
          "indexed": false,
          "internalType": "address payable",
          "name": "owner",
          "type": "address"
        }
      ],
      "name": "FileTipped",
      "type": "event"
    },
    {
      "inputs": [],
      "name": "fileCount",
      "outputs": [
        {
          "internalType": "uint256",
          "name": "",
          "type": "uint256"
        }
      ],
      "stateMutability": "view",
      "type": "function",
      "constant": true
    },
    {
      "inputs": [
        {
          "internalType": "uint256",
          "name": "",
          "type": "uint256"
        }
      ],
      "name": "files",
      "outputs": [
        {
          "internalType": "uint256",
          "name": "id",
          "type": "uint256"
        },
        {
          "internalType": "string",
          "name": "hash",
          "type": "string"
        },
        {
          "internalType": "string",
          "name": "fileName",
          "type": "string"
        },
        {
          "internalType": "string",
          "name": "title",
          "type": "string"
        },
        {
          "internalType": "string",
          "name": "authors",
          "type": "string"
        },
        {
          "internalType": "string",
          "name": "keywords",
          "type": "string"
        },
        {
          "internalType": "string",
          "name": "description",
          "type": "string"
        },
        {
          "internalType": "uint256",
          "name": "tipAmount",
          "type": "uint256"
        },
        {
          "internalType": "string",
          "name": "createdAt",
          "type": "string"
        },
        {
          "internalType": "address payable",
          "name": "owner",
          "type": "address"
        }
      ],
      "stateMutability": "view",
      "type": "function",
      "constant": true
    },
    {
      "inputs": [
        {
          "internalType": "string",
          "name": "",
          "type": "string"
        }
      ],
      "name": "filesByHash",
      "outputs": [
        {
          "internalType": "uint256",
          "name": "id",
          "type": "uint256"
        },
        {
          "internalType": "string",
          "name": "hash",
          "type": "string"
        },
        {
          "internalType": "string",
          "name": "fileName",
          "type": "string"
        },
        {
          "internalType": "string",
          "name": "title",
          "type": "string"
        },
        {
          "internalType": "string",
          "name": "authors",
          "type": "string"
        },
        {
          "internalType": "string",
          "name": "keywords",
          "type": "string"
        },
        {
          "internalType": "string",
          "name": "description",
          "type": "string"
        },
        {
          "internalType": "uint256",
          "name": "tipAmount",
          "type": "uint256"
        },
        {
          "internalType": "string",
          "name": "createdAt",
          "type": "string"
        },
        {
          "internalType": "address payable",
          "name": "owner",
          "type": "address"
        }
      ],
      "stateMutability": "view",
      "type": "function",
      "constant": true
    },
    {
      "inputs": [
        {
          "internalType": "address",
          "name": "",
          "type": "address"
        },
        {
          "internalType": "uint256",
          "name": "",
          "type": "uint256"
        }
      ],
      "name": "filesByOwner",
      "outputs": [
        {
          "internalType": "uint256",
          "name": "id",
          "type": "uint256"
        },
        {
          "internalType": "string",
          "name": "hash",
          "type": "string"
        },
        {
          "internalType": "string",
          "name": "fileName",
          "type": "string"
        },
        {
          "internalType": "string",
          "name": "title",
          "type": "string"
        },
        {
          "internalType": "string",
          "name": "authors",
          "type": "string"
        },
        {
          "internalType": "string",
          "name": "keywords",
          "type": "string"
        },
        {
          "internalType": "string",
          "name": "description",
          "type": "string"
        },
        {
          "internalType": "uint256",
          "name": "tipAmount",
          "type": "uint256"
        },
        {
          "internalType": "string",
          "name": "createdAt",
          "type": "string"
        },
        {
          "internalType": "address payable",
          "name": "owner",
          "type": "address"
        }
      ],
      "stateMutability": "view",
      "type": "function",
      "constant": true
    },
    {
      "inputs": [],
      "name": "name",
      "outputs": [
        {
          "internalType": "string",
          "name": "",
          "type": "string"
        }
      ],
      "stateMutability": "view",
      "type": "function",
      "constant": true
    },
    {
      "inputs": [
        {
          "internalType": "string",
          "name": "_fileHash",
          "type": "string"
        },
        {
          "internalType": "string",
          "name": "_fileName",
          "type": "string"
        },
        {
          "internalType": "string",
          "name": "_title",
          "type": "string"
        },
        {
          "internalType": "string",
          "name": "_authors",
          "type": "string"
        },
        {
          "internalType": "string",
          "name": "_keywords",
          "type": "string"
        },
        {
          "internalType": "string",
          "name": "_description",
          "type": "string"
        },
        {
          "internalType": "string",
          "name": "_createdAt",
          "type": "string"
        }
      ],
      "name": "uploadFile",
      "outputs": [],
      "stateMutability": "nonpayable",
      "type": "function"
    },
    {
      "inputs": [
        {
          "internalType": "uint256",
          "name": "_id",
          "type": "uint256"
        }
      ],
      "name": "tipFileOwner",
      "outputs": [],
      "stateMutability": "payable",
      "type": "function",
      "payable": true
    },
    {
      "inputs": [
        {
          "internalType": "string",
          "name": "fileHash",
          "type": "string"
        }
      ],
      "name": "isFileOwned",
      "outputs": [
        {
          "internalType": "bool",
          "name": "",
          "type": "bool"
        }
      ],
      "stateMutability": "view",
      "type": "function",
      "constant": true
    }
  ],
  "bytecode": "0x60806040526040518060400160405280600c81526020017f46696c65436f6e7472616374000000000000000000000000000000000000000081525060009080519060200190620000519291906200006b565b5060006001553480156200006457600080fd5b5062000121565b828054600181600116156101000203166002900490600052602060002090601f016020900481019282620000a35760008555620000ef565b82601f10620000be57805160ff1916838001178555620000ef565b82800160010185558215620000ef579182015b82811115620000ee578251825591602001919060010190620000d1565b5b509050620000fe919062000102565b5090565b5b808211156200011d57600081600090555060010162000103565b5090565b612a5280620001316000396000f3fe60806040526004361061007b5760003560e01c8063545539c21161004e578063545539c214610138578063b854449314610161578063f4c714b4146101a7578063fd60c0fe146101ed5761007b565b80630160baf71461008057806306fdde03146100c6578063182cb8b2146100f1578063439535191461010d575b600080fd5b34801561008c57600080fd5b506100a760048036038101906100a29190612446565b61022a565b6040516100bd9a999897969594939291906127d8565b60405180910390f35b3480156100d257600080fd5b506100db6106dc565b6040516100e891906126ce565b60405180910390f35b61010b600480360381019061010691906125cd565b61077a565b005b34801561011957600080fd5b5061012261126e565b60405161012f91906126f0565b60405180910390f35b34801561014457600080fd5b5061015f600480360381019061015a9190612487565b611274565b005b34801561016d57600080fd5b506101886004803603810190610183919061240a565b6118a4565b60405161019e9a999897969594939291906127d8565b60405180910390f35b3480156101b357600080fd5b506101ce60048036038101906101c991906125cd565b611d4d565b6040516101e49a999897969594939291906127d8565b60405180910390f35b3480156101f957600080fd5b50610214600480360381019061020f9190612446565b6121e9565b60405161022191906126b3565b60405180910390f35b600381805160208101820180518482526020830160208501208183528095505050505050600091509050806000015490806001018054600181600116156101000203166002900480601f0160208091040260200160405190810160405280929190818152602001828054600181600116156101000203166002900480156102f25780601f106102c7576101008083540402835291602001916102f2565b820191906000526020600020905b8154815290600101906020018083116102d557829003601f168201915b505050505090806002018054600181600116156101000203166002900480601f0160208091040260200160405190810160405280929190818152602001828054600181600116156101000203166002900480156103905780601f1061036557610100808354040283529160200191610390565b820191906000526020600020905b81548152906001019060200180831161037357829003601f168201915b505050505090806003018054600181600116156101000203166002900480601f01602080910402602001604051908101604052809291908181526020018280546001816001161561010002031660029004801561042e5780601f106104035761010080835404028352916020019161042e565b820191906000526020600020905b81548152906001019060200180831161041157829003601f168201915b505050505090806004018054600181600116156101000203166002900480601f0160208091040260200160405190810160405280929190818152602001828054600181600116156101000203166002900480156104cc5780601f106104a1576101008083540402835291602001916104cc565b820191906000526020600020905b8154815290600101906020018083116104af57829003601f168201915b505050505090806005018054600181600116156101000203166002900480601f01602080910402602001604051908101604052809291908181526020018280546001816001161561010002031660029004801561056a5780601f1061053f5761010080835404028352916020019161056a565b820191906000526020600020905b81548152906001019060200180831161054d57829003601f168201915b505050505090806006018054600181600116156101000203166002900480601f0160208091040260200160405190810160405280929190818152602001828054600181600116156101000203166002900480156106085780601f106105dd57610100808354040283529160200191610608565b820191906000526020600020905b8154815290600101906020018083116105eb57829003601f168201915b505050505090806007015490806008018054600181600116156101000203166002900480601f0160208091040260200160405190810160405280929190818152602001828054600181600116156101000203166002900480156106ac5780601f10610681576101008083540402835291602001916106ac565b820191906000526020600020905b81548152906001019060200180831161068f57829003601f168201915b5050505050908060090160009054906101000a900473ffffffffffffffffffffffffffffffffffffffff1690508a565b60008054600181600116156101000203166002900480601f0160208091040260200160405190810160405280929190818152602001828054600181600116156101000203166002900480156107725780601f1061074757610100808354040283529160200191610772565b820191906000526020600020905b81548152906001019060200180831161075557829003601f168201915b505050505081565b60008111801561078c57506001548111155b61079557600080fd5b6000600260008381526020019081526020016000206040518061014001604052908160008201548152602001600182018054600181600116156101000203166002900480601f0160208091040260200160405190810160405280929190818152602001828054600181600116156101000203166002900480156108595780601f1061082e57610100808354040283529160200191610859565b820191906000526020600020905b81548152906001019060200180831161083c57829003601f168201915b50505050508152602001600282018054600181600116156101000203166002900480601f0160208091040260200160405190810160405280929190818152602001828054600181600116156101000203166002900480156108fb5780601f106108d0576101008083540402835291602001916108fb565b820191906000526020600020905b8154815290600101906020018083116108de57829003601f168201915b50505050508152602001600382018054600181600116156101000203166002900480601f01602080910402602001604051908101604052809291908181526020018280546001816001161561010002031660029004801561099d5780601f106109725761010080835404028352916020019161099d565b820191906000526020600020905b81548152906001019060200180831161098057829003601f168201915b50505050508152602001600482018054600181600116156101000203166002900480601f016020809104026020016040519081016040528092919081815260200182805460018160011615610100020316600290048015610a3f5780601f10610a1457610100808354040283529160200191610a3f565b820191906000526020600020905b815481529060010190602001808311610a2257829003601f168201915b50505050508152602001600582018054600181600116156101000203166002900480601f016020809104026020016040519081016040528092919081815260200182805460018160011615610100020316600290048015610ae15780601f10610ab657610100808354040283529160200191610ae1565b820191906000526020600020905b815481529060010190602001808311610ac457829003601f168201915b50505050508152602001600682018054600181600116156101000203166002900480601f016020809104026020016040519081016040528092919081815260200182805460018160011615610100020316600290048015610b835780601f10610b5857610100808354040283529160200191610b83565b820191906000526020600020905b815481529060010190602001808311610b6657829003601f168201915b5050505050815260200160078201548152602001600882018054600181600116156101000203166002900480601f016020809104026020016040519081016040528092919081815260200182805460018160011615610100020316600290048015610c2f5780601f10610c0457610100808354040283529160200191610c2f565b820191906000526020600020905b815481529060010190602001808311610c1257829003601f168201915b505050505081526020016009820160009054906101000a900473ffffffffffffffffffffffffffffffffffffffff1673ffffffffffffffffffffffffffffffffffffffff1673ffffffffffffffffffffffffffffffffffffffff16815250509050600081610120015190508073ffffffffffffffffffffffffffffffffffffffff166108fc349081150290604051600060405180830381858888f19350505050158015610ce0573d6000803e3d6000fd5b50348260e00151018260e00181815250508160026000858152602001908152602001600020600082015181600001556020820151816001019080519060200190610d2b929190612238565b506040820151816002019080519060200190610d48929190612238565b506060820151816003019080519060200190610d65929190612238565b506080820151816004019080519060200190610d82929190612238565b5060a0820151816005019080519060200190610d9f929190612238565b5060c0820151816006019080519060200190610dbc929190612238565b5060e08201518160070155610100820151816008019080519060200190610de4929190612238565b506101208201518160090160006101000a81548173ffffffffffffffffffffffffffffffffffffffff021916908373ffffffffffffffffffffffffffffffffffffffff16021790555090505060026000600154815260200190815260200160002060038360200151604051610e59919061269c565b90815260200160405180910390206000820154816000015560018201816001019080546001816001161561010002031660029004610e989291906122c6565b5060028201816002019080546001816001161561010002031660029004610ec09291906122c6565b5060038201816003019080546001816001161561010002031660029004610ee89291906122c6565b5060048201816004019080546001816001161561010002031660029004610f109291906122c6565b5060058201816005019080546001816001161561010002031660029004610f389291906122c6565b5060068201816006019080546001816001161561010002031660029004610f609291906122c6565b506007820154816007015560088201816008019080546001816001161561010002031660029004610f929291906122c6565b506009820160009054906101000a900473ffffffffffffffffffffffffffffffffffffffff168160090160006101000a81548173ffffffffffffffffffffffffffffffffffffffff021916908373ffffffffffffffffffffffffffffffffffffffff160217905550905050600260006001548152602001908152602001600020600460003373ffffffffffffffffffffffffffffffffffffffff1673ffffffffffffffffffffffffffffffffffffffff1681526020019081526020016000206000600154815260200190815260200160002060008201548160000155600182018160010190805460018160011615610100020316600290046110959291906122c6565b50600282018160020190805460018160011615610100020316600290046110bd9291906122c6565b50600382018160030190805460018160011615610100020316600290046110e59291906122c6565b506004820181600401908054600181600116156101000203166002900461110d9291906122c6565b50600582018160050190805460018160011615610100020316600290046111359291906122c6565b506006820181600601908054600181600116156101000203166002900461115d9291906122c6565b50600782015481600701556008820181600801908054600181600116156101000203166002900461118f9291906122c6565b506009820160009054906101000a900473ffffffffffffffffffffffffffffffffffffffff168160090160006101000a81548173ffffffffffffffffffffffffffffffffffffffff021916908373ffffffffffffffffffffffffffffffffffffffff1602179055509050507f674207ae38de31eb91b9b1131543174cada38041f2cb0b71fb9cf5b9cd4e7d1b8383602001518460400151856060015186608001518760a001518860c001518960e001518a61010001518b61012001516040516112619a999897969594939291906127d8565b60405180910390a1505050565b60015481565b600087511161128257600080fd5b600085511161129057600080fd5b600084511161129e57600080fd5b600073ffffffffffffffffffffffffffffffffffffffff163373ffffffffffffffffffffffffffffffffffffffff1614156112d857600080fd5b6001600081548092919060010191905055506040518061014001604052806001548152602001888152602001878152602001868152602001858152602001848152602001838152602001600081526020018281526020013373ffffffffffffffffffffffffffffffffffffffff16815250600260006001548152602001908152602001600020600082015181600001556020820151816001019080519060200190611384929190612238565b5060408201518160020190805190602001906113a1929190612238565b5060608201518160030190805190602001906113be929190612238565b5060808201518160040190805190602001906113db929190612238565b5060a08201518160050190805190602001906113f8929190612238565b5060c0820151816006019080519060200190611415929190612238565b5060e0820151816007015561010082015181600801908051906020019061143d929190612238565b506101208201518160090160006101000a81548173ffffffffffffffffffffffffffffffffffffffff021916908373ffffffffffffffffffffffffffffffffffffffff1602179055509050506002600060015481526020019081526020016000206003886040516114ae919061269c565b908152602001604051809103902060008201548160000155600182018160010190805460018160011615610100020316600290046114ed9291906122c6565b50600282018160020190805460018160011615610100020316600290046115159291906122c6565b506003820181600301908054600181600116156101000203166002900461153d9291906122c6565b50600482018160040190805460018160011615610100020316600290046115659291906122c6565b506005820181600501908054600181600116156101000203166002900461158d9291906122c6565b50600682018160060190805460018160011615610100020316600290046115b59291906122c6565b5060078201548160070155600882018160080190805460018160011615610100020316600290046115e79291906122c6565b506009820160009054906101000a900473ffffffffffffffffffffffffffffffffffffffff168160090160006101000a81548173ffffffffffffffffffffffffffffffffffffffff021916908373ffffffffffffffffffffffffffffffffffffffff160217905550905050600260006001548152602001908152602001600020600460003373ffffffffffffffffffffffffffffffffffffffff1673ffffffffffffffffffffffffffffffffffffffff1681526020019081526020016000206000600154815260200190815260200160002060008201548160000155600182018160010190805460018160011615610100020316600290046116ea9291906122c6565b50600282018160020190805460018160011615610100020316600290046117129291906122c6565b506003820181600301908054600181600116156101000203166002900461173a9291906122c6565b50600482018160040190805460018160011615610100020316600290046117629291906122c6565b506005820181600501908054600181600116156101000203166002900461178a9291906122c6565b50600682018160060190805460018160011615610100020316600290046117b29291906122c6565b5060078201548160070155600882018160080190805460018160011615610100020316600290046117e49291906122c6565b506009820160009054906101000a900473ffffffffffffffffffffffffffffffffffffffff168160090160006101000a81548173ffffffffffffffffffffffffffffffffffffffff021916908373ffffffffffffffffffffffffffffffffffffffff1602179055509050507f848588215d8d40ff7130cc886948c19a8c3cf8376da81735b45215442ef21e8c600154888888888888600089336040516118939a9998979695949392919061270b565b60405180910390a150505050505050565b600460205281600052604060002060205280600052604060002060009150915050806000015490806001018054600181600116156101000203166002900480601f0160208091040260200160405190810160405280929190818152602001828054600181600116156101000203166002900480156119635780601f1061193857610100808354040283529160200191611963565b820191906000526020600020905b81548152906001019060200180831161194657829003601f168201915b505050505090806002018054600181600116156101000203166002900480601f016020809104026020016040519081016040528092919081815260200182805460018160011615610100020316600290048015611a015780601f106119d657610100808354040283529160200191611a01565b820191906000526020600020905b8154815290600101906020018083116119e457829003601f168201915b505050505090806003018054600181600116156101000203166002900480601f016020809104026020016040519081016040528092919081815260200182805460018160011615610100020316600290048015611a9f5780601f10611a7457610100808354040283529160200191611a9f565b820191906000526020600020905b815481529060010190602001808311611a8257829003601f168201915b505050505090806004018054600181600116156101000203166002900480601f016020809104026020016040519081016040528092919081815260200182805460018160011615610100020316600290048015611b3d5780601f10611b1257610100808354040283529160200191611b3d565b820191906000526020600020905b815481529060010190602001808311611b2057829003601f168201915b505050505090806005018054600181600116156101000203166002900480601f016020809104026020016040519081016040528092919081815260200182805460018160011615610100020316600290048015611bdb5780601f10611bb057610100808354040283529160200191611bdb565b820191906000526020600020905b815481529060010190602001808311611bbe57829003601f168201915b505050505090806006018054600181600116156101000203166002900480601f016020809104026020016040519081016040528092919081815260200182805460018160011615610100020316600290048015611c795780601f10611c4e57610100808354040283529160200191611c79565b820191906000526020600020905b815481529060010190602001808311611c5c57829003601f168201915b505050505090806007015490806008018054600181600116156101000203166002900480601f016020809104026020016040519081016040528092919081815260200182805460018160011615610100020316600290048015611d1d5780601f10611cf257610100808354040283529160200191611d1d565b820191906000526020600020905b815481529060010190602001808311611d0057829003601f168201915b5050505050908060090160009054906101000a900473ffffffffffffffffffffffffffffffffffffffff1690508a565b6002602052806000526040600020600091509050806000015490806001018054600181600116156101000203166002900480601f016020809104026020016040519081016040528092919081815260200182805460018160011615610100020316600290048015611dff5780601f10611dd457610100808354040283529160200191611dff565b820191906000526020600020905b815481529060010190602001808311611de257829003601f168201915b505050505090806002018054600181600116156101000203166002900480601f016020809104026020016040519081016040528092919081815260200182805460018160011615610100020316600290048015611e9d5780601f10611e7257610100808354040283529160200191611e9d565b820191906000526020600020905b815481529060010190602001808311611e8057829003601f168201915b505050505090806003018054600181600116156101000203166002900480601f016020809104026020016040519081016040528092919081815260200182805460018160011615610100020316600290048015611f3b5780601f10611f1057610100808354040283529160200191611f3b565b820191906000526020600020905b815481529060010190602001808311611f1e57829003601f168201915b505050505090806004018054600181600116156101000203166002900480601f016020809104026020016040519081016040528092919081815260200182805460018160011615610100020316600290048015611fd95780601f10611fae57610100808354040283529160200191611fd9565b820191906000526020600020905b815481529060010190602001808311611fbc57829003601f168201915b505050505090806005018054600181600116156101000203166002900480601f0160208091040260200160405190810160405280929190818152602001828054600181600116156101000203166002900480156120775780601f1061204c57610100808354040283529160200191612077565b820191906000526020600020905b81548152906001019060200180831161205a57829003601f168201915b505050505090806006018054600181600116156101000203166002900480601f0160208091040260200160405190810160405280929190818152602001828054600181600116156101000203166002900480156121155780601f106120ea57610100808354040283529160200191612115565b820191906000526020600020905b8154815290600101906020018083116120f857829003601f168201915b505050505090806007015490806008018054600181600116156101000203166002900480601f0160208091040260200160405190810160405280929190818152602001828054600181600116156101000203166002900480156121b95780601f1061218e576101008083540402835291602001916121b9565b820191906000526020600020905b81548152906001019060200180831161219c57829003601f168201915b5050505050908060090160009054906101000a900473ffffffffffffffffffffffffffffffffffffffff1690508a565b60008060015411801561223157506000600383604051612209919061269c565b9081526020016040518091039020600101805460018160011615610100020316600290049050115b9050919050565b828054600181600116156101000203166002900490600052602060002090601f01602090048101928261226e57600085556122b5565b82601f1061228757805160ff19168380011785556122b5565b828001600101855582156122b5579182015b828111156122b4578251825591602001919060010190612299565b5b5090506122c2919061235b565b5090565b828054600181600116156101000203166002900490600052602060002090601f0160209004810192826122fc576000855561234a565b82601f1061230d578054855561234a565b8280016001018555821561234a57600052602060002091601f016020900482015b8281111561234957825482559160010191906001019061232e565b5b509050612357919061235b565b5090565b5b8082111561237457600081600090555060010161235c565b5090565b600061238b612386846128d6565b6128a5565b9050828152602081018484840111156123a357600080fd5b6123ae848285612999565b509392505050565b6000813590506123c5816129ee565b92915050565b600082601f8301126123dc57600080fd5b81356123ec848260208601612378565b91505092915050565b60008135905061240481612a05565b92915050565b6000806040838503121561241d57600080fd5b600061242b858286016123b6565b925050602061243c858286016123f5565b9150509250929050565b60006020828403121561245857600080fd5b600082013567ffffffffffffffff81111561247257600080fd5b61247e848285016123cb565b91505092915050565b600080600080600080600060e0888a0312156124a257600080fd5b600088013567ffffffffffffffff8111156124bc57600080fd5b6124c88a828b016123cb565b975050602088013567ffffffffffffffff8111156124e557600080fd5b6124f18a828b016123cb565b965050604088013567ffffffffffffffff81111561250e57600080fd5b61251a8a828b016123cb565b955050606088013567ffffffffffffffff81111561253757600080fd5b6125438a828b016123cb565b945050608088013567ffffffffffffffff81111561256057600080fd5b61256c8a828b016123cb565b93505060a088013567ffffffffffffffff81111561258957600080fd5b6125958a828b016123cb565b92505060c088013567ffffffffffffffff8111156125b257600080fd5b6125be8a828b016123cb565b91505092959891949750929550565b6000602082840312156125df57600080fd5b60006125ed848285016123f5565b91505092915050565b6125ff8161293f565b82525050565b61260e81612951565b82525050565b61261d81612987565b82525050565b600061262e82612906565b6126388185612911565b93506126488185602086016129a8565b612651816129dd565b840191505092915050565b600061266782612906565b6126718185612922565b93506126818185602086016129a8565b80840191505092915050565b6126968161297d565b82525050565b60006126a8828461265c565b915081905092915050565b60006020820190506126c86000830184612605565b92915050565b600060208201905081810360008301526126e88184612623565b905092915050565b6000602082019050612705600083018461268d565b92915050565b600061014082019050612721600083018d61268d565b8181036020830152612733818c612623565b90508181036040830152612747818b612623565b9050818103606083015261275b818a612623565b9050818103608083015261276f8189612623565b905081810360a08301526127838188612623565b905081810360c08301526127978187612623565b90506127a660e0830186612614565b8181036101008301526127b98185612623565b90506127c96101208301846125f6565b9b9a5050505050505050505050565b6000610140820190506127ee600083018d61268d565b8181036020830152612800818c612623565b90508181036040830152612814818b612623565b90508181036060830152612828818a612623565b9050818103608083015261283c8189612623565b905081810360a08301526128508188612623565b905081810360c08301526128648187612623565b905061287360e083018661268d565b8181036101008301526128868185612623565b90506128966101208301846125f6565b9b9a5050505050505050505050565b6000604051905081810181811067ffffffffffffffff821117156128cc576128cb6129db565b5b8060405250919050565b600067ffffffffffffffff8211156128f1576128f06129db565b5b601f19601f8301169050602081019050919050565b600081519050919050565b600082825260208201905092915050565b600081905092915050565b60006129388261295d565b9050919050565b600061294a8261295d565b9050919050565b60008115159050919050565b600073ffffffffffffffffffffffffffffffffffffffff82169050919050565b6000819050919050565b60006129928261297d565b9050919050565b82818337600083830152505050565b60005b838110156129c65780820151818401526020810190506129ab565b838111156129d5576000848401525b50505050565bfe5b6000601f19601f8301169050919050565b6129f78161292d565b8114612a0257600080fd5b50565b612a0e8161297d565b8114612a1957600080fd5b5056fea264697066735822122041997664bbc20b588f5339a417f6979b49d0c41bf9b528b220bcf7f60e50fa3464736f6c63430007060033",
  "immutableReferences": {},
  "source": "// SPDX-License-Identifier: UNLICENSED\r\npragma solidity >=0.4.22 <0.9.0;\r\npragma abicoder v2;\r\n\r\ncontract FileContract {\r\n  string public name = 'FileContract';\r\n\r\n  uint256 public fileCount = 0;\r\n\r\n  mapping(uint256 => File) public files;\r\n  mapping(string => File) public filesByHash;\r\n  mapping(address => mapping(uint256 => File)) public filesByOwner;\r\n\r\n  struct File {\r\n    uint256 id;\r\n    string hash;\r\n    string fileName;\r\n    string title;\r\n    string authors;\r\n    string keywords;\r\n    string description;\r\n    uint256 tipAmount;\r\n    string createdAt;\r\n    address payable owner;\r\n  }\r\n\r\n  event FileCreated(\r\n    uint256 id,\r\n    string hash,\r\n    string fileName,\r\n    string title,\r\n    string authors,\r\n    string keywords,\r\n    string description,\r\n    uint256 tipAmount,\r\n    string createdAt,\r\n    address payable owner\r\n  );\r\n\r\n  event FileTipped(\r\n    uint256 id,\r\n    string hash,\r\n    string fileName,\r\n    string title,\r\n    string authors,\r\n    string keywords,\r\n    string description,\r\n    uint256 tipAmount,\r\n    string createdAt,\r\n    address payable owner\r\n  );\r\n\r\n  function uploadFile(\r\n    string memory _fileHash,\r\n    string memory _fileName,\r\n    string memory _title,\r\n    string memory _authors,\r\n    string memory _keywords,\r\n    string memory _description,\r\n    string memory _createdAt\r\n  ) public {\r\n    require(bytes(_fileHash).length > 0);\r\n    require(bytes(_title).length > 0);\r\n    require(bytes(_authors).length > 0);\r\n    require(msg.sender != address(0x0));\r\n    fileCount++;\r\n\r\n    files[fileCount] = File(\r\n      fileCount,\r\n      _fileHash,\r\n      _fileName,\r\n      _title,\r\n      _authors,\r\n      _keywords,\r\n      _description,\r\n      0,\r\n      _createdAt,\r\n      payable(address(msg.sender))\r\n    );\r\n\r\n    filesByHash[_fileHash] = files[fileCount];\r\n    filesByOwner[msg.sender][fileCount] = files[fileCount];\r\n\r\n    emit FileCreated(\r\n      fileCount,\r\n      _fileHash,\r\n      _fileName,\r\n      _title,\r\n      _authors,\r\n      _keywords,\r\n      _description,\r\n      0,\r\n      _createdAt,\r\n      payable(address(msg.sender))\r\n    );\r\n  }\r\n\r\n  function tipFileOwner(uint256 _id) public payable {\r\n    require(_id > 0 && _id <= fileCount);\r\n\r\n    File memory _file = files[_id];\r\n    address payable _owner = _file.owner;\r\n    _owner.transfer(msg.value);\r\n\r\n    _file.tipAmount = _file.tipAmount + msg.value;\r\n    files[_id] = _file;\r\n\r\n    filesByHash[_file.hash] = files[fileCount];\r\n    filesByOwner[msg.sender][fileCount] = files[fileCount];\r\n\r\n    emit FileTipped(\r\n      _id,\r\n      _file.hash,\r\n      _file.fileName,\r\n      _file.title,\r\n      _file.authors,\r\n      _file.keywords,\r\n      _file.description,\r\n      _file.tipAmount,\r\n      _file.createdAt,\r\n      _file.owner\r\n    );\r\n  }\r\n\r\n  function isFileOwned(string memory fileHash) public view returns (bool) {\r\n    return fileCount > 0 && bytes(filesByHash[fileHash].hash).length > 0;\r\n  }\r\n}\r\n",
  "sourcePath": "C:\\Users\\chama\\Documents\\FYP\\vimbal\\contracts\\FileContract.sol",
  "compiler": {
    "name": "solc",
    "version": "0.7.6+commit.7338295f.Emscripten.clang"
  },
  "schemaVersion": "3.4.9",
  "updatedAt": "2022-11-12T07:53:21.390Z",
  "networkType": "ethereum",
  "devdoc": {
    "kind": "dev",
    "methods": {},
    "version": 1
  },
  "userdoc": {
    "kind": "user",
    "methods": {},
    "version": 1
  }
}