{
  "contractName": "ReviewContract",
  "abi": [
    {
      "anonymous": false,
      "inputs": [
        {
          "indexed": false,
          "internalType": "uint256",
          "name": "id",
          "type": "uint256"
        },
        {
          "indexed": false,
          "internalType": "string",
          "name": "review",
          "type": "string"
        },
        {
          "indexed": false,
          "internalType": "string",
          "name": "rating",
          "type": "string"
        },
        {
          "indexed": false,
          "internalType": "string",
          "name": "createdAt",
          "type": "string"
        },
        {
          "indexed": false,
          "internalType": "address payable",
          "name": "owner",
          "type": "address"
        }
      ],
      "name": "ReviewCreated",
      "type": "event"
    },
    {
      "inputs": [],
      "name": "name",
      "outputs": [
        {
          "internalType": "string",
          "name": "",
          "type": "string"
        }
      ],
      "stateMutability": "view",
      "type": "function",
      "constant": true
    },
    {
      "inputs": [],
      "name": "reviewCount",
      "outputs": [
        {
          "internalType": "uint256",
          "name": "",
          "type": "uint256"
        }
      ],
      "stateMutability": "view",
      "type": "function",
      "constant": true
    },
    {
      "inputs": [
        {
          "internalType": "uint256",
          "name": "",
          "type": "uint256"
        },
        {
          "internalType": "uint256",
          "name": "",
          "type": "uint256"
        }
      ],
      "name": "reviews",
      "outputs": [
        {
          "internalType": "uint256",
          "name": "id",
          "type": "uint256"
        },
        {
          "internalType": "string",
          "name": "review",
          "type": "string"
        },
        {
          "internalType": "string",
          "name": "rating",
          "type": "string"
        },
        {
          "internalType": "string",
          "name": "createdAt",
          "type": "string"
        },
        {
          "internalType": "address payable",
          "name": "owner",
          "type": "address"
        }
      ],
      "stateMutability": "view",
      "type": "function",
      "constant": true
    },
    {
      "inputs": [
        {
          "internalType": "address",
          "name": "",
          "type": "address"
        },
        {
          "internalType": "uint256",
          "name": "",
          "type": "uint256"
        }
      ],
      "name": "reviewsByOwner",
      "outputs": [
        {
          "internalType": "uint256",
          "name": "id",
          "type": "uint256"
        },
        {
          "internalType": "string",
          "name": "review",
          "type": "string"
        },
        {
          "internalType": "string",
          "name": "rating",
          "type": "string"
        },
        {
          "internalType": "string",
          "name": "createdAt",
          "type": "string"
        },
        {
          "internalType": "address payable",
          "name": "owner",
          "type": "address"
        }
      ],
      "stateMutability": "view",
      "type": "function",
      "constant": true
    },
    {
      "inputs": [
        {
          "internalType": "uint256",
          "name": "fileId",
          "type": "uint256"
        },
        {
          "internalType": "string",
          "name": "review",
          "type": "string"
        },
        {
          "internalType": "string",
          "name": "rating",
          "type": "string"
        },
        {
          "internalType": "string",
          "name": "createdAt",
          "type": "string"
        }
      ],
      "name": "createReview",
      "outputs": [],
      "stateMutability": "nonpayable",
      "type": "function"
    },
    {
      "inputs": [
        {
          "internalType": "uint256",
          "name": "fileId",
          "type": "uint256"
        },
        {
          "internalType": "uint256",
          "name": "reviewId",
          "type": "uint256"
        }
      ],
      "name": "deleteReview",
      "outputs": [
        {
          "internalType": "bool",
          "name": "",
          "type": "bool"
        }
      ],
      "stateMutability": "nonpayable",
      "type": "function"
    }
  ],
  "bytecode": "0x60806040526040518060400160405280600681526020017f52657669657700000000000000000000000000000000000000000000000000008152506000908051906020019061004f929190610067565b50600060015534801561006157600080fd5b50610112565b828054600181600116156101000203166002900490600052602060002090601f01602090048101928261009d57600085556100e4565b82601f106100b657805160ff19168380011785556100e4565b828001600101855582156100e4579182015b828111156100e35782518255916020019190600101906100c8565b5b5090506100f191906100f5565b5090565b5b8082111561010e5760008160009055506001016100f6565b5090565b610f9880620001226000396000f3fe608060405234801561001057600080fd5b50600436106100625760003560e01c806306fdde031461006757806324d41a03146100855780636195a3a3146100b5578063a7264f88146100d1578063ad3f2f2714610105578063eff5924f14610139575b600080fd5b61006f610157565b60405161007c9190610d63565b60405180910390f35b61009f600480360381019061009a9190610ca6565b6101f5565b6040516100ac9190610d48565b60405180910390f35b6100cf60048036038101906100ca9190610bfb565b610339565b005b6100eb60048036038101906100e69190610ca6565b6105de565b6040516100fc959493929190610da0565b60405180910390f35b61011f600480360381019061011a9190610bbf565b610809565b604051610130959493929190610da0565b60405180910390f35b610141610a34565b60405161014e9190610d85565b60405180910390f35b60008054600181600116156101000203166002900480601f0160208091040260200160405190810160405280929190818152602001828054600181600116156101000203166002900480156101ed5780601f106101c2576101008083540402835291602001916101ed565b820191906000526020600020905b8154815290600101906020018083116101d057829003601f168201915b505050505081565b60006002600084815260200190815260200160002060008381526020019081526020016000206000808201600090556001820160006102349190610a3a565b6002820160006102449190610a3a565b6003820160006102549190610a3a565b6004820160006101000a81549073ffffffffffffffffffffffffffffffffffffffff02191690555050600360003373ffffffffffffffffffffffffffffffffffffffff1673ffffffffffffffffffffffffffffffffffffffff16815260200190815260200160002060008381526020019081526020016000206000808201600090556001820160006102e69190610a3a565b6002820160006102f69190610a3a565b6003820160006103069190610a3a565b6004820160006101000a81549073ffffffffffffffffffffffffffffffffffffffff021916905550506001905092915050565b6001600081548092919060010191905055506040518060a0016040528060015481526020018481526020018381526020018281526020013373ffffffffffffffffffffffffffffffffffffffff1681525060026000868152602001908152602001600020600060015481526020019081526020016000206000820151816000015560208201518160010190805190602001906103d6929190610a82565b5060408201518160020190805190602001906103f3929190610a82565b506060820151816003019080519060200190610410929190610a82565b5060808201518160040160006101000a81548173ffffffffffffffffffffffffffffffffffffffff021916908373ffffffffffffffffffffffffffffffffffffffff1602179055509050506040518060a0016040528060015481526020018481526020018381526020018281526020013373ffffffffffffffffffffffffffffffffffffffff16815250600360003373ffffffffffffffffffffffffffffffffffffffff1673ffffffffffffffffffffffffffffffffffffffff16815260200190815260200160002060006001548152602001908152602001600020600082015181600001556020820151816001019080519060200190610512929190610a82565b50604082015181600201908051906020019061052f929190610a82565b50606082015181600301908051906020019061054c929190610a82565b5060808201518160040160006101000a81548173ffffffffffffffffffffffffffffffffffffffff021916908373ffffffffffffffffffffffffffffffffffffffff1602179055509050507f566786a2e92c310dc0ef0b85fc6b5cfb21f6d640b178b96f32a89aacb8d8d2b5600154848484336040516105d0959493929190610da0565b60405180910390a150505050565b600260205281600052604060002060205280600052604060002060009150915050806000015490806001018054600181600116156101000203166002900480601f01602080910402602001604051908101604052809291908181526020018280546001816001161561010002031660029004801561069d5780601f106106725761010080835404028352916020019161069d565b820191906000526020600020905b81548152906001019060200180831161068057829003601f168201915b505050505090806002018054600181600116156101000203166002900480601f01602080910402602001604051908101604052809291908181526020018280546001816001161561010002031660029004801561073b5780601f106107105761010080835404028352916020019161073b565b820191906000526020600020905b81548152906001019060200180831161071e57829003601f168201915b505050505090806003018054600181600116156101000203166002900480601f0160208091040260200160405190810160405280929190818152602001828054600181600116156101000203166002900480156107d95780601f106107ae576101008083540402835291602001916107d9565b820191906000526020600020905b8154815290600101906020018083116107bc57829003601f168201915b5050505050908060040160009054906101000a900473ffffffffffffffffffffffffffffffffffffffff16905085565b600360205281600052604060002060205280600052604060002060009150915050806000015490806001018054600181600116156101000203166002900480601f0160208091040260200160405190810160405280929190818152602001828054600181600116156101000203166002900480156108c85780601f1061089d576101008083540402835291602001916108c8565b820191906000526020600020905b8154815290600101906020018083116108ab57829003601f168201915b505050505090806002018054600181600116156101000203166002900480601f0160208091040260200160405190810160405280929190818152602001828054600181600116156101000203166002900480156109665780601f1061093b57610100808354040283529160200191610966565b820191906000526020600020905b81548152906001019060200180831161094957829003601f168201915b505050505090806003018054600181600116156101000203166002900480601f016020809104026020016040519081016040528092919081815260200182805460018160011615610100020316600290048015610a045780601f106109d957610100808354040283529160200191610a04565b820191906000526020600020905b8154815290600101906020018083116109e757829003601f168201915b5050505050908060040160009054906101000a900473ffffffffffffffffffffffffffffffffffffffff16905085565b60015481565b50805460018160011615610100020316600290046000825580601f10610a605750610a7f565b601f016020900490600052602060002090810190610a7e9190610b10565b5b50565b828054600181600116156101000203166002900490600052602060002090601f016020900481019282610ab85760008555610aff565b82601f10610ad157805160ff1916838001178555610aff565b82800160010185558215610aff579182015b82811115610afe578251825591602001919060010190610ae3565b5b509050610b0c9190610b10565b5090565b5b80821115610b29576000816000905550600101610b11565b5090565b6000610b40610b3b84610e39565b610e08565b905082815260208101848484011115610b5857600080fd5b610b63848285610edf565b509392505050565b600081359050610b7a81610f34565b92915050565b600082601f830112610b9157600080fd5b8135610ba1848260208601610b2d565b91505092915050565b600081359050610bb981610f4b565b92915050565b60008060408385031215610bd257600080fd5b6000610be085828601610b6b565b9250506020610bf185828601610baa565b9150509250929050565b60008060008060808587031215610c1157600080fd5b6000610c1f87828801610baa565b945050602085013567ffffffffffffffff811115610c3c57600080fd5b610c4887828801610b80565b935050604085013567ffffffffffffffff811115610c6557600080fd5b610c7187828801610b80565b925050606085013567ffffffffffffffff811115610c8e57600080fd5b610c9a87828801610b80565b91505092959194509250565b60008060408385031215610cb957600080fd5b6000610cc785828601610baa565b9250506020610cd885828601610baa565b9150509250929050565b610ceb81610e97565b82525050565b610cfa81610ea9565b82525050565b6000610d0b82610e69565b610d158185610e74565b9350610d25818560208601610eee565b610d2e81610f23565b840191505092915050565b610d4281610ed5565b82525050565b6000602082019050610d5d6000830184610cf1565b92915050565b60006020820190508181036000830152610d7d8184610d00565b905092915050565b6000602082019050610d9a6000830184610d39565b92915050565b600060a082019050610db56000830188610d39565b8181036020830152610dc78187610d00565b90508181036040830152610ddb8186610d00565b90508181036060830152610def8185610d00565b9050610dfe6080830184610ce2565b9695505050505050565b6000604051905081810181811067ffffffffffffffff82111715610e2f57610e2e610f21565b5b8060405250919050565b600067ffffffffffffffff821115610e5457610e53610f21565b5b601f19601f8301169050602081019050919050565b600081519050919050565b600082825260208201905092915050565b6000610e9082610eb5565b9050919050565b6000610ea282610eb5565b9050919050565b60008115159050919050565b600073ffffffffffffffffffffffffffffffffffffffff82169050919050565b6000819050919050565b82818337600083830152505050565b60005b83811015610f0c578082015181840152602081019050610ef1565b83811115610f1b576000848401525b50505050565bfe5b6000601f19601f8301169050919050565b610f3d81610e85565b8114610f4857600080fd5b50565b610f5481610ed5565b8114610f5f57600080fd5b5056fea2646970667358221220fc3ab8ad3a79651273595fbda66b57063b4830207de402fdd9a09a5facad14aa64736f6c63430007060033",
  "immutableReferences": {},
  "source": "// SPDX-License-Identifier: UNLICENSED\r\npragma solidity >=0.4.22 <0.9.0;\r\npragma abicoder v2;\r\n\r\ncontract ReviewContract {\r\n  string public name = 'Review';\r\n  uint256 public reviewCount = 0;\r\n\r\n  mapping(uint256 => mapping(uint256 => FileReview)) public reviews;\r\n  mapping(address => mapping(uint256 => FileReview)) public reviewsByOwner;\r\n\r\n  struct FileReview {\r\n    uint256 id;\r\n    string review;\r\n    string rating;\r\n    string createdAt;\r\n    address payable owner;\r\n  }\r\n\r\n  event ReviewCreated(\r\n    uint256 id,\r\n    string review,\r\n    string rating,\r\n    string createdAt,\r\n    address payable owner\r\n  );\r\n\r\n  function createReview(\r\n    uint256 fileId,\r\n    string memory review,\r\n    string memory rating,\r\n    string memory createdAt\r\n  ) public {\r\n    reviewCount++;\r\n\r\n    reviews[fileId][reviewCount] = FileReview(\r\n      reviewCount,\r\n      review,\r\n      rating,\r\n      createdAt,\r\n      payable(address(msg.sender))\r\n    );\r\n\r\n    reviewsByOwner[msg.sender][reviewCount] = FileReview(\r\n      reviewCount,\r\n      review,\r\n      rating,\r\n      createdAt,\r\n      payable(address(msg.sender))\r\n    );\r\n\r\n    emit ReviewCreated(\r\n      reviewCount,\r\n      review,\r\n      rating,\r\n      createdAt,\r\n      payable(address(msg.sender))\r\n    );\r\n  }\r\n\r\n  function deleteReview(uint256 fileId, uint256 reviewId) public returns (bool) {\r\n    delete reviews[fileId][reviewId];\r\n    delete reviewsByOwner[msg.sender][reviewId];\r\n\r\n    return true;\r\n  }\r\n}\r\n",
  "sourcePath": "C:\\Users\\chama\\Documents\\FYP\\vimbal\\contracts\\ReviewContract.sol",
  "compiler": {
    "name": "solc",
    "version": "0.7.6+commit.7338295f.Emscripten.clang"
  },
  "schemaVersion": "3.4.9",
  "updatedAt": "2022-11-11T12:03:15.319Z",
  "networkType": "ethereum",
  "devdoc": {
    "kind": "dev",
    "methods": {},
    "version": 1
  },
  "userdoc": {
    "kind": "user",
    "methods": {},
    "version": 1
  }
}