{
  "contractName": "UserContract",
  "abi": [
    {
      "anonymous": false,
      "inputs": [
        {
          "indexed": false,
          "internalType": "uint256",
          "name": "id",
          "type": "uint256"
        },
        {
          "indexed": false,
          "internalType": "address payable",
          "name": "walletAddress",
          "type": "address"
        },
        {
          "indexed": false,
          "internalType": "string",
          "name": "displayName",
          "type": "string"
        },
        {
          "indexed": false,
          "internalType": "string",
          "name": "email",
          "type": "string"
        },
        {
          "indexed": false,
          "internalType": "string",
          "name": "role",
          "type": "string"
        },
        {
          "indexed": false,
          "internalType": "string",
          "name": "createdAt",
          "type": "string"
        }
      ],
      "name": "UserCreated",
      "type": "event"
    },
    {
      "inputs": [],
      "name": "name",
      "outputs": [
        {
          "internalType": "string",
          "name": "",
          "type": "string"
        }
      ],
      "stateMutability": "view",
      "type": "function",
      "constant": true
    },
    {
      "inputs": [],
      "name": "userCount",
      "outputs": [
        {
          "internalType": "uint256",
          "name": "",
          "type": "uint256"
        }
      ],
      "stateMutability": "view",
      "type": "function",
      "constant": true
    },
    {
      "inputs": [
        {
          "internalType": "uint256",
          "name": "",
          "type": "uint256"
        }
      ],
      "name": "users",
      "outputs": [
        {
          "internalType": "uint256",
          "name": "id",
          "type": "uint256"
        },
        {
          "internalType": "address payable",
          "name": "walletAddress",
          "type": "address"
        },
        {
          "internalType": "string",
          "name": "displayName",
          "type": "string"
        },
        {
          "internalType": "string",
          "name": "email",
          "type": "string"
        },
        {
          "internalType": "string",
          "name": "role",
          "type": "string"
        },
        {
          "internalType": "string",
          "name": "createdAt",
          "type": "string"
        }
      ],
      "stateMutability": "view",
      "type": "function",
      "constant": true
    },
    {
      "inputs": [
        {
          "internalType": "string",
          "name": "_displayName",
          "type": "string"
        },
        {
          "internalType": "string",
          "name": "_email",
          "type": "string"
        },
        {
          "internalType": "string",
          "name": "_role",
          "type": "string"
        },
        {
          "internalType": "string",
          "name": "_createdAt",
          "type": "string"
        }
      ],
      "name": "createUser",
      "outputs": [],
      "stateMutability": "nonpayable",
      "type": "function"
    },
    {
      "inputs": [
        {
          "internalType": "uint256",
          "name": "_id",
          "type": "uint256"
        }
      ],
      "name": "tipUser",
      "outputs": [],
      "stateMutability": "payable",
      "type": "function",
      "payable": true
    }
  ],
  "bytecode": "0x60806040526040518060400160405280600481526020017f55736572000000000000000000000000000000000000000000000000000000008152506000908051906020019061004f929190610067565b50600060015534801561006157600080fd5b50610112565b828054600181600116156101000203166002900490600052602060002090601f01602090048101928261009d57600085556100e4565b82601f106100b657805160ff19168380011785556100e4565b828001600101855582156100e4579182015b828111156100e35782518255916020019190600101906100c8565b5b5090506100f191906100f5565b5090565b5b8082111561010e5760008160009055506001016100f6565b5090565b610fca80620001226000396000f3fe60806040526004361061004a5760003560e01c806306fdde031461004f57806307973ccf1461007a578063365b98b2146100a55780636f7fcddb146100e7578063d1d8a06814610110575b600080fd5b34801561005b57600080fd5b5061006461012c565b6040516100719190610d95565b60405180910390f35b34801561008657600080fd5b5061008f6101ca565b60405161009c9190610dd7565b60405180910390f35b3480156100b157600080fd5b506100cc60048036038101906100c79190610cd5565b6101d0565b6040516100de96959493929190610df2565b60405180910390f35b3480156100f357600080fd5b5061010e60048036038101906101099190610c12565b61048c565b005b61012a60048036038101906101259190610cd5565b610609565b005b60008054600181600116156101000203166002900480601f0160208091040260200160405190810160405280929190818152602001828054600181600116156101000203166002900480156101c25780601f10610197576101008083540402835291602001916101c2565b820191906000526020600020905b8154815290600101906020018083116101a557829003601f168201915b505050505081565b60015481565b60026020528060005260406000206000915090508060000154908060010160009054906101000a900473ffffffffffffffffffffffffffffffffffffffff1690806002018054600181600116156101000203166002900480601f0160208091040260200160405190810160405280929190818152602001828054600181600116156101000203166002900480156102a85780601f1061027d576101008083540402835291602001916102a8565b820191906000526020600020905b81548152906001019060200180831161028b57829003601f168201915b505050505090806003018054600181600116156101000203166002900480601f0160208091040260200160405190810160405280929190818152602001828054600181600116156101000203166002900480156103465780601f1061031b57610100808354040283529160200191610346565b820191906000526020600020905b81548152906001019060200180831161032957829003601f168201915b505050505090806004018054600181600116156101000203166002900480601f0160208091040260200160405190810160405280929190818152602001828054600181600116156101000203166002900480156103e45780601f106103b9576101008083540402835291602001916103e4565b820191906000526020600020905b8154815290600101906020018083116103c757829003601f168201915b505050505090806005018054600181600116156101000203166002900480601f0160208091040260200160405190810160405280929190818152602001828054600181600116156101000203166002900480156104825780601f1061045757610100808354040283529160200191610482565b820191906000526020600020905b81548152906001019060200180831161046557829003601f168201915b5050505050905086565b6001600081548092919060010191905055506040518060c0016040528060015481526020013373ffffffffffffffffffffffffffffffffffffffff168152602001858152602001848152602001838152602001828152506002600060015481526020019081526020016000206000820151816000015560208201518160010160006101000a81548173ffffffffffffffffffffffffffffffffffffffff021916908373ffffffffffffffffffffffffffffffffffffffff1602179055506040820151816002019080519060200190610565929190610aea565b506060820151816003019080519060200190610582929190610aea565b50608082015181600401908051906020019061059f929190610aea565b5060a08201518160050190805190602001906105bc929190610aea565b509050507f78fb51d1a05e56a02822c2d6039d58e0eab30e361f87124168366f538be2517460015433868686866040516105fb96959493929190610df2565b60405180910390a150505050565b60006001541161064e576040517f08c379a000000000000000000000000000000000000000000000000000000000815260040161064590610db7565b60405180910390fd5b6000600260008381526020019081526020016000206040518060c0016040529081600082015481526020016001820160009054906101000a900473ffffffffffffffffffffffffffffffffffffffff1673ffffffffffffffffffffffffffffffffffffffff1673ffffffffffffffffffffffffffffffffffffffff168152602001600282018054600181600116156101000203166002900480601f0160208091040260200160405190810160405280929190818152602001828054600181600116156101000203166002900480156107675780601f1061073c57610100808354040283529160200191610767565b820191906000526020600020905b81548152906001019060200180831161074a57829003601f168201915b50505050508152602001600382018054600181600116156101000203166002900480601f0160208091040260200160405190810160405280929190818152602001828054600181600116156101000203166002900480156108095780601f106107de57610100808354040283529160200191610809565b820191906000526020600020905b8154815290600101906020018083116107ec57829003601f168201915b50505050508152602001600482018054600181600116156101000203166002900480601f0160208091040260200160405190810160405280929190818152602001828054600181600116156101000203166002900480156108ab5780601f10610880576101008083540402835291602001916108ab565b820191906000526020600020905b81548152906001019060200180831161088e57829003601f168201915b50505050508152602001600582018054600181600116156101000203166002900480601f01602080910402602001604051908101604052809291908181526020018280546001816001161561010002031660029004801561094d5780601f106109225761010080835404028352916020019161094d565b820191906000526020600020905b81548152906001019060200180831161093057829003601f168201915b50505050508152505090506000816020015190508073ffffffffffffffffffffffffffffffffffffffff166108fc349081150290604051600060405180830381858888f193505050501580156109a7573d6000803e3d6000fd5b50600154826000018181525050816002600060015481526020019081526020016000206000820151816000015560208201518160010160006101000a81548173ffffffffffffffffffffffffffffffffffffffff021916908373ffffffffffffffffffffffffffffffffffffffff1602179055506040820151816002019080519060200190610a37929190610aea565b506060820151816003019080519060200190610a54929190610aea565b506080820151816004019080519060200190610a71929190610aea565b5060a0820151816005019080519060200190610a8e929190610aea565b509050507f78fb51d1a05e56a02822c2d6039d58e0eab30e361f87124168366f538be25174600154338460400151856060015186608001518760a00151604051610add96959493929190610df2565b60405180910390a1505050565b828054600181600116156101000203166002900490600052602060002090601f016020900481019282610b205760008555610b67565b82601f10610b3957805160ff1916838001178555610b67565b82800160010185558215610b67579182015b82811115610b66578251825591602001919060010190610b4b565b5b509050610b749190610b78565b5090565b5b80821115610b91576000816000905550600101610b79565b5090565b6000610ba8610ba384610ea0565b610e6f565b905082815260208101848484011115610bc057600080fd5b610bcb848285610f28565b509392505050565b600082601f830112610be457600080fd5b8135610bf4848260208601610b95565b91505092915050565b600081359050610c0c81610f7d565b92915050565b60008060008060808587031215610c2857600080fd5b600085013567ffffffffffffffff811115610c4257600080fd5b610c4e87828801610bd3565b945050602085013567ffffffffffffffff811115610c6b57600080fd5b610c7787828801610bd3565b935050604085013567ffffffffffffffff811115610c9457600080fd5b610ca087828801610bd3565b925050606085013567ffffffffffffffff811115610cbd57600080fd5b610cc987828801610bd3565b91505092959194509250565b600060208284031215610ce757600080fd5b6000610cf584828501610bfd565b91505092915050565b610d0781610eec565b82525050565b6000610d1882610ed0565b610d228185610edb565b9350610d32818560208601610f37565b610d3b81610f6c565b840191505092915050565b6000610d53600883610edb565b91507f4e6f2075736572730000000000000000000000000000000000000000000000006000830152602082019050919050565b610d8f81610f1e565b82525050565b60006020820190508181036000830152610daf8184610d0d565b905092915050565b60006020820190508181036000830152610dd081610d46565b9050919050565b6000602082019050610dec6000830184610d86565b92915050565b600060c082019050610e076000830189610d86565b610e146020830188610cfe565b8181036040830152610e268187610d0d565b90508181036060830152610e3a8186610d0d565b90508181036080830152610e4e8185610d0d565b905081810360a0830152610e628184610d0d565b9050979650505050505050565b6000604051905081810181811067ffffffffffffffff82111715610e9657610e95610f6a565b5b8060405250919050565b600067ffffffffffffffff821115610ebb57610eba610f6a565b5b601f19601f8301169050602081019050919050565b600081519050919050565b600082825260208201905092915050565b6000610ef782610efe565b9050919050565b600073ffffffffffffffffffffffffffffffffffffffff82169050919050565b6000819050919050565b82818337600083830152505050565b60005b83811015610f55578082015181840152602081019050610f3a565b83811115610f64576000848401525b50505050565bfe5b6000601f19601f8301169050919050565b610f8681610f1e565b8114610f9157600080fd5b5056fea2646970667358221220dac76018d13400d781102c01487abd8952adbe147c491c0b10ed18d26638af1464736f6c63430007060033",
  "immutableReferences": {},
  "source": "// SPDX-License-Identifier: UNLICENSED\r\npragma solidity >=0.4.22 <0.9.0;\r\npragma abicoder v2;\r\n\r\ncontract UserContract {\r\n  string public name = 'User';\r\n  uint256 public userCount = 0;\r\n\r\n  mapping(uint256 => User) public users;\r\n\r\n  struct User {\r\n    uint256 id;\r\n    address payable walletAddress;\r\n    string displayName;\r\n    string email;\r\n    string role;\r\n    string createdAt;\r\n  }\r\n\r\n  event UserCreated(\r\n    uint256 id,\r\n    address payable walletAddress,\r\n    string displayName,\r\n    string email,\r\n    string role,\r\n    string createdAt\r\n  );\r\n\r\n  function createUser(\r\n    string memory _displayName,\r\n    string memory _email,\r\n    string memory _role,\r\n    string memory _createdAt\r\n  ) public {\r\n    userCount++;\r\n\r\n    users[userCount] = User(\r\n      userCount,\r\n      payable(address(msg.sender)),\r\n      _displayName,\r\n      _email,\r\n      _role,\r\n      _createdAt\r\n    );\r\n\r\n    emit UserCreated(\r\n      userCount,\r\n      payable(address(msg.sender)),\r\n      _displayName,\r\n      _email,\r\n      _role,\r\n      _createdAt\r\n    );\r\n  }\r\n\r\n  function tipUser(uint256 _id) public payable {\r\n    // Make sure the id is valid\r\n    require(userCount > 0, 'No users');\r\n    // Fetch the file\r\n    User memory _user = users[_id];\r\n    // Fetch the owner\r\n    address payable _author = _user.walletAddress;\r\n    // Pay the author by sending them Ether\r\n    _author.transfer(msg.value);\r\n    // Increment the tip amount\r\n    _user.id = userCount;\r\n    // Update the file\r\n    users[userCount] = _user;\r\n    // Trigger an event\r\n    emit UserCreated(\r\n      userCount,\r\n      payable(address(msg.sender)),\r\n      _user.displayName,\r\n      _user.email,\r\n      _user.role,\r\n      _user.createdAt\r\n    );\r\n  }\r\n}\r\n",
  "sourcePath": "C:\\Users\\chama\\Documents\\FYP\\vimbal\\contracts\\UserContract.sol",
  "compiler": {
    "name": "solc",
    "version": "0.7.6+commit.7338295f.Emscripten.clang"
  },
  "schemaVersion": "3.4.9",
  "updatedAt": "2022-12-05T19:30:39.751Z",
  "networkType": "ethereum",
  "devdoc": {
    "kind": "dev",
    "methods": {},
    "version": 1
  },
  "userdoc": {
    "kind": "user",
    "methods": {},
    "version": 1
  }
}