{
  "contractName": "Review",
  "abi": [
    {
      "anonymous": false,
      "inputs": [
        {
          "indexed": false,
          "internalType": "uint256",
          "name": "id",
          "type": "uint256"
        },
        {
          "indexed": false,
          "internalType": "string",
          "name": "review",
          "type": "string"
        },
        {
          "indexed": false,
          "internalType": "string",
          "name": "createdAt",
          "type": "string"
        },
        {
          "indexed": false,
          "internalType": "address payable",
          "name": "owner",
          "type": "address"
        }
      ],
      "name": "ReviewCreated",
      "type": "event"
    },
    {
      "inputs": [],
      "name": "name",
      "outputs": [
        {
          "internalType": "string",
          "name": "",
          "type": "string"
        }
      ],
      "stateMutability": "view",
      "type": "function",
      "constant": true
    },
    {
      "inputs": [],
      "name": "reviewCount",
      "outputs": [
        {
          "internalType": "uint256",
          "name": "",
          "type": "uint256"
        }
      ],
      "stateMutability": "view",
      "type": "function",
      "constant": true
    },
    {
      "inputs": [
        {
          "internalType": "uint256",
          "name": "",
          "type": "uint256"
        },
        {
          "internalType": "uint256",
          "name": "",
          "type": "uint256"
        }
      ],
      "name": "reviews",
      "outputs": [
        {
          "internalType": "uint256",
          "name": "id",
          "type": "uint256"
        },
        {
          "internalType": "string",
          "name": "review",
          "type": "string"
        },
        {
          "internalType": "string",
          "name": "createdAt",
          "type": "string"
        },
        {
          "internalType": "address payable",
          "name": "owner",
          "type": "address"
        }
      ],
      "stateMutability": "view",
      "type": "function",
      "constant": true
    },
    {
      "inputs": [
        {
          "internalType": "uint256",
          "name": "fileId",
          "type": "uint256"
        },
        {
          "internalType": "string",
          "name": "review",
          "type": "string"
        },
        {
          "internalType": "string",
          "name": "createdAt",
          "type": "string"
        }
      ],
      "name": "createReview",
      "outputs": [],
      "stateMutability": "nonpayable",
      "type": "function"
    },
    {
      "inputs": [
        {
          "internalType": "uint256",
          "name": "fileId",
          "type": "uint256"
        },
        {
          "internalType": "uint256",
          "name": "reviewId",
          "type": "uint256"
        }
      ],
      "name": "deleteReview",
      "outputs": [
        {
          "internalType": "bool",
          "name": "",
          "type": "bool"
        }
      ],
      "stateMutability": "nonpayable",
      "type": "function"
    }
  ],
  "bytecode": "0x60806040526040518060400160405280600681526020017f52657669657700000000000000000000000000000000000000000000000000008152506000908051906020019061004f929190610067565b50600060015534801561006157600080fd5b50610112565b828054600181600116156101000203166002900490600052602060002090601f01602090048101928261009d57600085556100e4565b82601f106100b657805160ff19168380011785556100e4565b828001600101855582156100e4579182015b828111156100e35782518255916020019190600101906100c8565b5b5090506100f191906100f5565b5090565b5b8082111561010e5760008160009055506001016100f6565b5090565b6109b0806101216000396000f3fe608060405234801561001057600080fd5b50600436106100575760003560e01c806306fdde031461005c57806324d41a031461007a578063531480d3146100aa578063a7264f88146100c6578063eff5924f146100f9575b600080fd5b610064610117565b60405161007191906107b9565b60405180910390f35b610094600480360381019061008f91906106fc565b6101b5565b6040516100a1919061079e565b60405180910390f35b6100c460048036038101906100bf919061067d565b610237565b005b6100e060048036038101906100db91906106fc565b61037a565b6040516100f094939291906107f6565b60405180910390f35b610101610507565b60405161010e91906107db565b60405180910390f35b60008054600181600116156101000203166002900480601f0160208091040260200160405190810160405280929190818152602001828054600181600116156101000203166002900480156101ad5780601f10610182576101008083540402835291602001916101ad565b820191906000526020600020905b81548152906001019060200180831161019057829003601f168201915b505050505081565b60006002600084815260200190815260200160002060008381526020019081526020016000206000808201600090556001820160006101f4919061050d565b600282016000610204919061050d565b6003820160006101000a81549073ffffffffffffffffffffffffffffffffffffffff021916905550506001905092915050565b600160008154809291906001019190505550604051806080016040528060015481526020018381526020018281526020013373ffffffffffffffffffffffffffffffffffffffff1681525060026000858152602001908152602001600020600060015481526020019081526020016000206000820151816000015560208201518160010190805190602001906102ce929190610555565b5060408201518160020190805190602001906102eb929190610555565b5060608201518160030160006101000a81548173ffffffffffffffffffffffffffffffffffffffff021916908373ffffffffffffffffffffffffffffffffffffffff1602179055509050507f2edab3f052df52e7843aca283f91b63a5d34d61fce09a7b50384eb8d841d70f160015483833360405161036d94939291906107f6565b60405180910390a1505050565b600260205281600052604060002060205280600052604060002060009150915050806000015490806001018054600181600116156101000203166002900480601f0160208091040260200160405190810160405280929190818152602001828054600181600116156101000203166002900480156104395780601f1061040e57610100808354040283529160200191610439565b820191906000526020600020905b81548152906001019060200180831161041c57829003601f168201915b505050505090806002018054600181600116156101000203166002900480601f0160208091040260200160405190810160405280929190818152602001828054600181600116156101000203166002900480156104d75780601f106104ac576101008083540402835291602001916104d7565b820191906000526020600020905b8154815290600101906020018083116104ba57829003601f168201915b5050505050908060030160009054906101000a900473ffffffffffffffffffffffffffffffffffffffff16905084565b60015481565b50805460018160011615610100020316600290046000825580601f106105335750610552565b601f01602090049060005260206000209081019061055191906105e3565b5b50565b828054600181600116156101000203166002900490600052602060002090601f01602090048101928261058b57600085556105d2565b82601f106105a457805160ff19168380011785556105d2565b828001600101855582156105d2579182015b828111156105d15782518255916020019190600101906105b6565b5b5090506105df91906105e3565b5090565b5b808211156105fc5760008160009055506001016105e4565b5090565b600061061361060e8461087a565b610849565b90508281526020810184848401111561062b57600080fd5b61063684828561090e565b509392505050565b600082601f83011261064f57600080fd5b813561065f848260208601610600565b91505092915050565b60008135905061067781610963565b92915050565b60008060006060848603121561069257600080fd5b60006106a086828701610668565b935050602084013567ffffffffffffffff8111156106bd57600080fd5b6106c98682870161063e565b925050604084013567ffffffffffffffff8111156106e657600080fd5b6106f28682870161063e565b9150509250925092565b6000806040838503121561070f57600080fd5b600061071d85828601610668565b925050602061072e85828601610668565b9150509250929050565b610741816108c6565b82525050565b610750816108d8565b82525050565b6000610761826108aa565b61076b81856108b5565b935061077b81856020860161091d565b61078481610952565b840191505092915050565b61079881610904565b82525050565b60006020820190506107b36000830184610747565b92915050565b600060208201905081810360008301526107d38184610756565b905092915050565b60006020820190506107f0600083018461078f565b92915050565b600060808201905061080b600083018761078f565b818103602083015261081d8186610756565b905081810360408301526108318185610756565b90506108406060830184610738565b95945050505050565b6000604051905081810181811067ffffffffffffffff821117156108705761086f610950565b5b8060405250919050565b600067ffffffffffffffff82111561089557610894610950565b5b601f19601f8301169050602081019050919050565b600081519050919050565b600082825260208201905092915050565b60006108d1826108e4565b9050919050565b60008115159050919050565b600073ffffffffffffffffffffffffffffffffffffffff82169050919050565b6000819050919050565b82818337600083830152505050565b60005b8381101561093b578082015181840152602081019050610920565b8381111561094a576000848401525b50505050565bfe5b6000601f19601f8301169050919050565b61096c81610904565b811461097757600080fd5b5056fea26469706673582212208d5e72792c486fc9905f337fe4c8bc5452c500ea6d419bb777f9440595a9b31b64736f6c63430007060033",
  "immutableReferences": {},
  "source": "// SPDX-License-Identifier: UNLICENSED\r\npragma solidity >=0.4.22 <0.9.0;\r\npragma abicoder v2;\r\n\r\ncontract Review {\r\n    string public name = 'Review';\r\n    uint256 public reviewCount = 0;\r\n\r\n    mapping(uint256 => mapping(uint256 => FileReview)) public reviews;\r\n\r\n    struct FileReview {\r\n        uint256 id;\r\n        string review;\r\n        string createdAt;\r\n        address payable owner;\r\n    }\r\n\r\n    event ReviewCreated(\r\n        uint256 id,\r\n        string review,\r\n        string createdAt,\r\n        address payable owner\r\n    );\r\n\r\n    function createReview(\r\n        uint256 fileId,\r\n        string memory review,\r\n        string memory createdAt\r\n    ) public {\r\n        reviewCount++;\r\n\r\n        reviews[fileId][reviewCount] = FileReview(\r\n            reviewCount,\r\n            review,\r\n            createdAt,\r\n            payable(address(msg.sender))\r\n        );\r\n\r\n        emit ReviewCreated(\r\n            reviewCount,\r\n            review,\r\n            createdAt,\r\n            payable(address(msg.sender))\r\n        );\r\n    }\r\n\r\n    function deleteReview(uint256 fileId, uint256 reviewId)\r\n        public\r\n        returns (bool)\r\n    {\r\n        delete reviews[fileId][reviewId];\r\n\r\n        return true;\r\n    }\r\n}\r\n",
  "sourcePath": "C:/Users/chama/Documents/Production/vimbal/contracts/Review.sol",
  "compiler": {
    "name": "solc",
    "version": "0.7.6+commit.7338295f.Emscripten.clang"
  },
  "schemaVersion": "3.3.3",
  "updatedAt": "2022-04-21T18:16:11.130Z",
  "networkType": "ethereum",
  "devdoc": {
    "kind": "dev",
    "methods": {},
    "version": 1
  },
  "userdoc": {
    "kind": "user",
    "methods": {},
    "version": 1
  }
}