{
  "contractName": "Vimbal",
  "abi": [
    {
      "anonymous": false,
      "inputs": [
        {
          "indexed": false,
          "internalType": "uint256",
          "name": "id",
          "type": "uint256"
        },
        {
          "indexed": false,
          "internalType": "string",
          "name": "hash",
          "type": "string"
        },
        {
          "indexed": false,
          "internalType": "string",
          "name": "description",
          "type": "string"
        },
        {
          "indexed": false,
          "internalType": "uint256",
          "name": "tipAmount",
          "type": "uint256"
        },
        {
          "indexed": false,
          "internalType": "uint256",
          "name": "timestamp",
          "type": "uint256"
        },
        {
          "indexed": false,
          "internalType": "address payable",
          "name": "author",
          "type": "address"
        }
      ],
      "name": "FileCreated",
      "type": "event"
    },
    {
      "anonymous": false,
      "inputs": [
        {
          "indexed": false,
          "internalType": "uint256",
          "name": "id",
          "type": "uint256"
        },
        {
          "indexed": false,
          "internalType": "string",
          "name": "hash",
          "type": "string"
        },
        {
          "indexed": false,
          "internalType": "string",
          "name": "description",
          "type": "string"
        },
        {
          "indexed": false,
          "internalType": "uint256",
          "name": "tipAmount",
          "type": "uint256"
        },
        {
          "indexed": false,
          "internalType": "uint256",
          "name": "timestamp",
          "type": "uint256"
        },
        {
          "indexed": false,
          "internalType": "address payable",
          "name": "author",
          "type": "address"
        }
      ],
      "name": "FileTipped",
      "type": "event"
    },
    {
      "inputs": [],
      "name": "fileCount",
      "outputs": [
        {
          "internalType": "uint256",
          "name": "",
          "type": "uint256"
        }
      ],
      "stateMutability": "view",
      "type": "function",
      "constant": true
    },
    {
      "inputs": [
        {
          "internalType": "uint256",
          "name": "",
          "type": "uint256"
        }
      ],
      "name": "files",
      "outputs": [
        {
          "internalType": "uint256",
          "name": "id",
          "type": "uint256"
        },
        {
          "internalType": "string",
          "name": "hash",
          "type": "string"
        },
        {
          "internalType": "string",
          "name": "description",
          "type": "string"
        },
        {
          "internalType": "uint256",
          "name": "tipAmount",
          "type": "uint256"
        },
        {
          "internalType": "uint256",
          "name": "timestamp",
          "type": "uint256"
        },
        {
          "internalType": "address payable",
          "name": "author",
          "type": "address"
        }
      ],
      "stateMutability": "view",
      "type": "function",
      "constant": true
    },
    {
      "inputs": [],
      "name": "name",
      "outputs": [
        {
          "internalType": "string",
          "name": "",
          "type": "string"
        }
      ],
      "stateMutability": "view",
      "type": "function",
      "constant": true
    },
    {
      "inputs": [
        {
          "internalType": "string",
          "name": "_fileHash",
          "type": "string"
        },
        {
          "internalType": "string",
          "name": "_description",
          "type": "string"
        }
      ],
      "name": "uploadFile",
      "outputs": [],
      "stateMutability": "nonpayable",
      "type": "function"
    },
    {
      "inputs": [
        {
          "internalType": "uint256",
          "name": "_id",
          "type": "uint256"
        }
      ],
      "name": "tipFileOwner",
      "outputs": [],
      "stateMutability": "payable",
      "type": "function",
      "payable": true
    }
  ],
  "bytecode": "0x60806040526040518060400160405280600681526020017f56696d62616c00000000000000000000000000000000000000000000000000008152506000908051906020019061004f929190610067565b50600060015534801561006157600080fd5b50610112565b828054600181600116156101000203166002900490600052602060002090601f01602090048101928261009d57600085556100e4565b82601f106100b657805160ff19168380011785556100e4565b828001600101855582156100e4579182015b828111156100e35782518255916020019190600101906100c8565b5b5090506100f191906100f5565b5090565b5b8082111561010e5760008160009055506001016100f6565b5090565b610e07806101216000396000f3fe60806040526004361061004a5760003560e01c806306fdde031461004f578063182cb8b2146100df578063439535191461010d578063996d50bf14610138578063f4c714b414610297575b600080fd5b34801561005b57600080fd5b506100646103e9565b6040518080602001828103825283818151815260200191508051906020019080838360005b838110156100a4578082015181840152602081019050610089565b50505050905090810190601f1680156100d15780820380516001836020036101000a031916815260200191505b509250505060405180910390f35b61010b600480360360208110156100f557600080fd5b8101908080359060200190929190505050610487565b005b34801561011957600080fd5b506101226108e9565b6040518082815260200191505060405180910390f35b34801561014457600080fd5b506102956004803603604081101561015b57600080fd5b810190808035906020019064010000000081111561017857600080fd5b82018360208201111561018a57600080fd5b803590602001918460018302840111640100000000831117156101ac57600080fd5b91908080601f016020809104026020016040519081016040528093929190818152602001838380828437600081840152601f19601f8201169050808301925050505050505091929192908035906020019064010000000081111561020f57600080fd5b82018360208201111561022157600080fd5b8035906020019184600183028401116401000000008311171561024357600080fd5b91908080601f016020809104026020016040519081016040528093929190818152602001838380828437600081840152601f19601f8201169050808301925050505050505091929192905050506108ef565b005b3480156102a357600080fd5b506102d0600480360360208110156102ba57600080fd5b8101908080359060200190929190505050610b9a565b6040518087815260200180602001806020018681526020018581526020018473ffffffffffffffffffffffffffffffffffffffff168152602001838103835288818151815260200191508051906020019080838360005b83811015610342578082015181840152602081019050610327565b50505050905090810190601f16801561036f5780820380516001836020036101000a031916815260200191505b50838103825287818151815260200191508051906020019080838360005b838110156103a857808201518184015260208101905061038d565b50505050905090810190601f1680156103d55780820380516001836020036101000a031916815260200191505b509850505050505050505060405180910390f35b60008054600181600116156101000203166002900480601f01602080910402602001604051908101604052809291908181526020018280546001816001161561010002031660029004801561047f5780601f106104545761010080835404028352916020019161047f565b820191906000526020600020905b81548152906001019060200180831161046257829003601f168201915b505050505081565b60008111801561049957506001548111155b6104a257600080fd5b6000600260008381526020019081526020016000206040518060c001604052908160008201548152602001600182018054600181600116156101000203166002900480601f0160208091040260200160405190810160405280929190818152602001828054600181600116156101000203166002900480156105655780601f1061053a57610100808354040283529160200191610565565b820191906000526020600020905b81548152906001019060200180831161054857829003601f168201915b50505050508152602001600282018054600181600116156101000203166002900480601f0160208091040260200160405190810160405280929190818152602001828054600181600116156101000203166002900480156106075780601f106105dc57610100808354040283529160200191610607565b820191906000526020600020905b8154815290600101906020018083116105ea57829003601f168201915b5050505050815260200160038201548152602001600482015481526020016005820160009054906101000a900473ffffffffffffffffffffffffffffffffffffffff1673ffffffffffffffffffffffffffffffffffffffff1673ffffffffffffffffffffffffffffffffffffffff1681525050905060008160a0015190508073ffffffffffffffffffffffffffffffffffffffff166108fc349081150290604051600060405180830381858888f193505050501580156106cb573d6000803e3d6000fd5b50348260600151018260600181815250508160026000858152602001908152602001600020600082015181600001556020820151816001019080519060200190610716929190610d26565b506040820151816002019080519060200190610733929190610d26565b50606082015181600301556080820151816004015560a08201518160050160006101000a81548173ffffffffffffffffffffffffffffffffffffffff021916908373ffffffffffffffffffffffffffffffffffffffff1602179055509050507ec24902b3d047262b7a896895abad87106fb172136038388a2643daf24eb19f8383602001518460400151856060015186608001518760a001516040518087815260200180602001806020018681526020018581526020018473ffffffffffffffffffffffffffffffffffffffff168152602001838103835288818151815260200191508051906020019080838360005b8381101561083e578082015181840152602081019050610823565b50505050905090810190601f16801561086b5780820380516001836020036101000a031916815260200191505b50838103825287818151815260200191508051906020019080838360005b838110156108a4578082015181840152602081019050610889565b50505050905090810190601f1680156108d15780820380516001836020036101000a031916815260200191505b509850505050505050505060405180910390a1505050565b60015481565b60008251116108fd57600080fd5b600081511161090b57600080fd5b600073ffffffffffffffffffffffffffffffffffffffff163373ffffffffffffffffffffffffffffffffffffffff16141561094557600080fd5b6001600081548092919060010191905055506040518060c001604052806001548152602001838152602001828152602001600081526020014281526020013373ffffffffffffffffffffffffffffffffffffffff168152506002600060015481526020019081526020016000206000820151816000015560208201518160010190805190602001906109d8929190610d26565b5060408201518160020190805190602001906109f5929190610d26565b50606082015181600301556080820151816004015560a08201518160050160006101000a81548173ffffffffffffffffffffffffffffffffffffffff021916908373ffffffffffffffffffffffffffffffffffffffff1602179055509050507fe35345a8abda2139c50c312e9d1e39201975633570ad11ab4fa28d6abc3679856001548383600042336040518087815260200180602001806020018681526020018581526020018473ffffffffffffffffffffffffffffffffffffffff168152602001838103835288818151815260200191508051906020019080838360005b83811015610af0578082015181840152602081019050610ad5565b50505050905090810190601f168015610b1d5780820380516001836020036101000a031916815260200191505b50838103825287818151815260200191508051906020019080838360005b83811015610b56578082015181840152602081019050610b3b565b50505050905090810190601f168015610b835780820380516001836020036101000a031916815260200191505b509850505050505050505060405180910390a15050565b6002602052806000526040600020600091509050806000015490806001018054600181600116156101000203166002900480601f016020809104026020016040519081016040528092919081815260200182805460018160011615610100020316600290048015610c4c5780601f10610c2157610100808354040283529160200191610c4c565b820191906000526020600020905b815481529060010190602001808311610c2f57829003601f168201915b505050505090806002018054600181600116156101000203166002900480601f016020809104026020016040519081016040528092919081815260200182805460018160011615610100020316600290048015610cea5780601f10610cbf57610100808354040283529160200191610cea565b820191906000526020600020905b815481529060010190602001808311610ccd57829003601f168201915b5050505050908060030154908060040154908060050160009054906101000a900473ffffffffffffffffffffffffffffffffffffffff16905086565b828054600181600116156101000203166002900490600052602060002090601f016020900481019282610d5c5760008555610da3565b82601f10610d7557805160ff1916838001178555610da3565b82800160010185558215610da3579182015b82811115610da2578251825591602001919060010190610d87565b5b509050610db09190610db4565b5090565b5b80821115610dcd576000816000905550600101610db5565b509056fea2646970667358221220de84e832d5865bc804a1b29b08cd732268c4372824a2717a615f36b5e4b09eb864736f6c63430007060033",
  "immutableReferences": {},
  "source": "// SPDX-License-Identifier: UNLICENSED\r\npragma solidity >=0.4.22 <0.9.0;\r\n\r\ncontract Vimbal {\r\n    string public name = 'Vimbal';\r\n\r\n    uint256 public fileCount = 0;\r\n\r\n    mapping(uint256 => File) public files;\r\n\r\n    struct File {\r\n        uint256 id;\r\n        string hash;\r\n        string description;\r\n        uint256 tipAmount;\r\n        uint256 timestamp;\r\n        address payable author;\r\n    }\r\n\r\n    event FileCreated(\r\n        uint256 id,\r\n        string hash,\r\n        string description,\r\n        uint256 tipAmount,\r\n        uint256 timestamp,\r\n        address payable author\r\n    );\r\n\r\n    event FileTipped(\r\n        uint256 id,\r\n        string hash,\r\n        string description,\r\n        uint256 tipAmount,\r\n        uint256 timestamp,\r\n        address payable author\r\n    );\r\n\r\n    function uploadFile(string memory _fileHash, string memory _description)\r\n        public\r\n    {\r\n        require(bytes(_fileHash).length > 0);\r\n        require(bytes(_description).length > 0);\r\n        require(msg.sender != address(0x0));\r\n        fileCount++;\r\n\r\n        files[fileCount] = File(\r\n            fileCount,\r\n            _fileHash,\r\n            _description,\r\n            0,\r\n            block.timestamp,\r\n            payable(address(msg.sender))\r\n        );\r\n\r\n        emit FileCreated(\r\n            fileCount,\r\n            _fileHash,\r\n            _description,\r\n            0,\r\n            block.timestamp,\r\n            payable(address(msg.sender))\r\n        );\r\n    }\r\n\r\n    function tipFileOwner(uint256 _id) public payable {\r\n        require(_id > 0 && _id <= fileCount);\r\n\r\n        File memory _file = files[_id];\r\n        address payable _author = _file.author;\r\n        _author.transfer(msg.value);\r\n\r\n        _file.tipAmount = _file.tipAmount + msg.value;\r\n        files[_id] = _file;\r\n\r\n        emit FileTipped(\r\n            _id,\r\n            _file.hash,\r\n            _file.description,\r\n            _file.tipAmount,\r\n            _file.timestamp,\r\n            _file.author\r\n        );\r\n    }\r\n}\r\n",
  "sourcePath": "C:/Users/chama/Documents/Production/vimbal/contracts/Vimbal.sol",
  "compiler": {
    "name": "solc",
    "version": "0.7.6+commit.7338295f.Emscripten.clang"
  },
  "schemaVersion": "3.3.3",
  "updatedAt": "2022-03-17T10:45:41.678Z",
  "networkType": "ethereum",
  "devdoc": {
    "kind": "dev",
    "methods": {},
    "version": 1
  },
  "userdoc": {
    "kind": "user",
    "methods": {},
    "version": 1
  }
}