{
  "contractName": "Vimbal",
  "abi": [
    {
      "anonymous": false,
      "inputs": [
        {
          "indexed": false,
          "internalType": "uint256",
          "name": "id",
          "type": "uint256"
        },
        {
          "indexed": false,
          "internalType": "string",
          "name": "hash",
          "type": "string"
        },
        {
          "indexed": false,
          "internalType": "string",
          "name": "title",
          "type": "string"
        },
        {
          "indexed": false,
          "internalType": "string",
          "name": "authors",
          "type": "string"
        },
        {
          "indexed": false,
          "internalType": "string",
          "name": "keywords",
          "type": "string"
        },
        {
          "indexed": false,
          "internalType": "string",
          "name": "description",
          "type": "string"
        },
        {
          "indexed": false,
          "internalType": "uint256",
          "name": "tipAmount",
          "type": "uint256"
        },
        {
          "indexed": false,
          "internalType": "address payable",
          "name": "owner",
          "type": "address"
        }
      ],
      "name": "FileCreated",
      "type": "event"
    },
    {
      "anonymous": false,
      "inputs": [
        {
          "indexed": false,
          "internalType": "uint256",
          "name": "id",
          "type": "uint256"
        },
        {
          "indexed": false,
          "internalType": "string",
          "name": "hash",
          "type": "string"
        },
        {
          "indexed": false,
          "internalType": "string",
          "name": "title",
          "type": "string"
        },
        {
          "indexed": false,
          "internalType": "string",
          "name": "authors",
          "type": "string"
        },
        {
          "indexed": false,
          "internalType": "string",
          "name": "keywords",
          "type": "string"
        },
        {
          "indexed": false,
          "internalType": "string",
          "name": "description",
          "type": "string"
        },
        {
          "indexed": false,
          "internalType": "uint256",
          "name": "tipAmount",
          "type": "uint256"
        },
        {
          "indexed": false,
          "internalType": "address payable",
          "name": "owner",
          "type": "address"
        }
      ],
      "name": "FileTipped",
      "type": "event"
    },
    {
      "inputs": [],
      "name": "fileCount",
      "outputs": [
        {
          "internalType": "uint256",
          "name": "",
          "type": "uint256"
        }
      ],
      "stateMutability": "view",
      "type": "function",
      "constant": true
    },
    {
      "inputs": [
        {
          "internalType": "uint256",
          "name": "",
          "type": "uint256"
        }
      ],
      "name": "files",
      "outputs": [
        {
          "internalType": "uint256",
          "name": "id",
          "type": "uint256"
        },
        {
          "internalType": "string",
          "name": "hash",
          "type": "string"
        },
        {
          "internalType": "string",
          "name": "title",
          "type": "string"
        },
        {
          "internalType": "string",
          "name": "authors",
          "type": "string"
        },
        {
          "internalType": "string",
          "name": "keywords",
          "type": "string"
        },
        {
          "internalType": "string",
          "name": "description",
          "type": "string"
        },
        {
          "internalType": "uint256",
          "name": "tipAmount",
          "type": "uint256"
        },
        {
          "internalType": "address payable",
          "name": "owner",
          "type": "address"
        }
      ],
      "stateMutability": "view",
      "type": "function",
      "constant": true
    },
    {
      "inputs": [
        {
          "internalType": "string",
          "name": "",
          "type": "string"
        }
      ],
      "name": "filesByHash",
      "outputs": [
        {
          "internalType": "uint256",
          "name": "id",
          "type": "uint256"
        },
        {
          "internalType": "string",
          "name": "hash",
          "type": "string"
        },
        {
          "internalType": "string",
          "name": "title",
          "type": "string"
        },
        {
          "internalType": "string",
          "name": "authors",
          "type": "string"
        },
        {
          "internalType": "string",
          "name": "keywords",
          "type": "string"
        },
        {
          "internalType": "string",
          "name": "description",
          "type": "string"
        },
        {
          "internalType": "uint256",
          "name": "tipAmount",
          "type": "uint256"
        },
        {
          "internalType": "address payable",
          "name": "owner",
          "type": "address"
        }
      ],
      "stateMutability": "view",
      "type": "function",
      "constant": true
    },
    {
      "inputs": [
        {
          "internalType": "address",
          "name": "",
          "type": "address"
        }
      ],
      "name": "filesByOwner",
      "outputs": [
        {
          "internalType": "uint256",
          "name": "id",
          "type": "uint256"
        },
        {
          "internalType": "string",
          "name": "hash",
          "type": "string"
        },
        {
          "internalType": "string",
          "name": "title",
          "type": "string"
        },
        {
          "internalType": "string",
          "name": "authors",
          "type": "string"
        },
        {
          "internalType": "string",
          "name": "keywords",
          "type": "string"
        },
        {
          "internalType": "string",
          "name": "description",
          "type": "string"
        },
        {
          "internalType": "uint256",
          "name": "tipAmount",
          "type": "uint256"
        },
        {
          "internalType": "address payable",
          "name": "owner",
          "type": "address"
        }
      ],
      "stateMutability": "view",
      "type": "function",
      "constant": true
    },
    {
      "inputs": [],
      "name": "name",
      "outputs": [
        {
          "internalType": "string",
          "name": "",
          "type": "string"
        }
      ],
      "stateMutability": "view",
      "type": "function",
      "constant": true
    },
    {
      "inputs": [
        {
          "internalType": "string",
          "name": "_fileHash",
          "type": "string"
        },
        {
          "internalType": "string",
          "name": "_title",
          "type": "string"
        },
        {
          "internalType": "string",
          "name": "_authors",
          "type": "string"
        },
        {
          "internalType": "string",
          "name": "_keywords",
          "type": "string"
        },
        {
          "internalType": "string",
          "name": "_description",
          "type": "string"
        }
      ],
      "name": "uploadFile",
      "outputs": [],
      "stateMutability": "nonpayable",
      "type": "function"
    },
    {
      "inputs": [
        {
          "internalType": "uint256",
          "name": "_id",
          "type": "uint256"
        }
      ],
      "name": "tipFileOwner",
      "outputs": [],
      "stateMutability": "payable",
      "type": "function",
      "payable": true
    },
    {
      "inputs": [
        {
          "internalType": "string",
          "name": "fileHash",
          "type": "string"
        }
      ],
      "name": "isFileOwned",
      "outputs": [
        {
          "internalType": "bool",
          "name": "",
          "type": "bool"
        }
      ],
      "stateMutability": "view",
      "type": "function",
      "constant": true
    }
  ],
  "bytecode": "0x60806040526040518060400160405280600681526020017f56696d62616c000000000000000000000000000000000000000000000000000081525060009080519060200190620000519291906200006b565b5060006001553480156200006457600080fd5b5062000121565b828054600181600116156101000203166002900490600052602060002090601f016020900481019282620000a35760008555620000ef565b82601f10620000be57805160ff1916838001178555620000ef565b82800160010185558215620000ef579182015b82811115620000ee578251825591602001919060010190620000d1565b5b509050620000fe919062000102565b5090565b5b808211156200011d57600081600090555060010162000103565b5090565b61228680620001316000396000f3fe60806040526004361061007b5760003560e01c8063ef8b38391161004e578063ef8b383914610136578063f07260c21461015f578063f4c714b4146101a3578063fd60c0fe146101e75761007b565b80630160baf71461008057806306fdde03146100c4578063182cb8b2146100ef578063439535191461010b575b600080fd5b34801561008c57600080fd5b506100a760048036038101906100a29190611d29565b610224565b6040516100bb989796959493929190612038565b60405180910390f35b3480156100d057600080fd5b506100d961059a565b6040516100e69190611f5a565b60405180910390f35b61010960048036038101906101049190611e59565b610638565b005b34801561011757600080fd5b50610120610eea565b60405161012d9190611f7c565b60405180910390f35b34801561014257600080fd5b5061015d60048036038101906101589190611d6a565b610ef0565b005b34801561016b57600080fd5b5061018660048036038101906101819190611d00565b61141f565b60405161019a989796959493929190612038565b60405180910390f35b3480156101af57600080fd5b506101ca60048036038101906101c59190611e59565b61177f565b6040516101de989796959493929190612038565b60405180910390f35b3480156101f357600080fd5b5061020e60048036038101906102099190611d29565b611adf565b60405161021b9190611f3f565b60405180910390f35b600381805160208101820180518482526020830160208501208183528095505050505050600091509050806000015490806001018054600181600116156101000203166002900480601f0160208091040260200160405190810160405280929190818152602001828054600181600116156101000203166002900480156102ec5780601f106102c1576101008083540402835291602001916102ec565b820191906000526020600020905b8154815290600101906020018083116102cf57829003601f168201915b505050505090806002018054600181600116156101000203166002900480601f01602080910402602001604051908101604052809291908181526020018280546001816001161561010002031660029004801561038a5780601f1061035f5761010080835404028352916020019161038a565b820191906000526020600020905b81548152906001019060200180831161036d57829003601f168201915b505050505090806003018054600181600116156101000203166002900480601f0160208091040260200160405190810160405280929190818152602001828054600181600116156101000203166002900480156104285780601f106103fd57610100808354040283529160200191610428565b820191906000526020600020905b81548152906001019060200180831161040b57829003601f168201915b505050505090806004018054600181600116156101000203166002900480601f0160208091040260200160405190810160405280929190818152602001828054600181600116156101000203166002900480156104c65780601f1061049b576101008083540402835291602001916104c6565b820191906000526020600020905b8154815290600101906020018083116104a957829003601f168201915b505050505090806005018054600181600116156101000203166002900480601f0160208091040260200160405190810160405280929190818152602001828054600181600116156101000203166002900480156105645780601f1061053957610100808354040283529160200191610564565b820191906000526020600020905b81548152906001019060200180831161054757829003601f168201915b5050505050908060060154908060070160009054906101000a900473ffffffffffffffffffffffffffffffffffffffff16905088565b60008054600181600116156101000203166002900480601f0160208091040260200160405190810160405280929190818152602001828054600181600116156101000203166002900480156106305780601f1061060557610100808354040283529160200191610630565b820191906000526020600020905b81548152906001019060200180831161061357829003601f168201915b505050505081565b60008111801561064a57506001548111155b61065357600080fd5b6000600260008381526020019081526020016000206040518061010001604052908160008201548152602001600182018054600181600116156101000203166002900480601f0160208091040260200160405190810160405280929190818152602001828054600181600116156101000203166002900480156107175780601f106106ec57610100808354040283529160200191610717565b820191906000526020600020905b8154815290600101906020018083116106fa57829003601f168201915b50505050508152602001600282018054600181600116156101000203166002900480601f0160208091040260200160405190810160405280929190818152602001828054600181600116156101000203166002900480156107b95780601f1061078e576101008083540402835291602001916107b9565b820191906000526020600020905b81548152906001019060200180831161079c57829003601f168201915b50505050508152602001600382018054600181600116156101000203166002900480601f01602080910402602001604051908101604052809291908181526020018280546001816001161561010002031660029004801561085b5780601f106108305761010080835404028352916020019161085b565b820191906000526020600020905b81548152906001019060200180831161083e57829003601f168201915b50505050508152602001600482018054600181600116156101000203166002900480601f0160208091040260200160405190810160405280929190818152602001828054600181600116156101000203166002900480156108fd5780601f106108d2576101008083540402835291602001916108fd565b820191906000526020600020905b8154815290600101906020018083116108e057829003601f168201915b50505050508152602001600582018054600181600116156101000203166002900480601f01602080910402602001604051908101604052809291908181526020018280546001816001161561010002031660029004801561099f5780601f106109745761010080835404028352916020019161099f565b820191906000526020600020905b81548152906001019060200180831161098257829003601f168201915b50505050508152602001600682015481526020016007820160009054906101000a900473ffffffffffffffffffffffffffffffffffffffff1673ffffffffffffffffffffffffffffffffffffffff1673ffffffffffffffffffffffffffffffffffffffff1681525050905060008160e0015190508073ffffffffffffffffffffffffffffffffffffffff166108fc349081150290604051600060405180830381858888f19350505050158015610a59573d6000803e3d6000fd5b50348260c00151018260c00181815250508160026000858152602001908152602001600020600082015181600001556020820151816001019080519060200190610aa4929190611b2e565b506040820151816002019080519060200190610ac1929190611b2e565b506060820151816003019080519060200190610ade929190611b2e565b506080820151816004019080519060200190610afb929190611b2e565b5060a0820151816005019080519060200190610b18929190611b2e565b5060c0820151816006015560e08201518160070160006101000a81548173ffffffffffffffffffffffffffffffffffffffff021916908373ffffffffffffffffffffffffffffffffffffffff16021790555090505060026000600154815260200190815260200160002060038360200151604051610b969190611f28565b90815260200160405180910390206000820154816000015560018201816001019080546001816001161561010002031660029004610bd5929190611bbc565b5060028201816002019080546001816001161561010002031660029004610bfd929190611bbc565b5060038201816003019080546001816001161561010002031660029004610c25929190611bbc565b5060048201816004019080546001816001161561010002031660029004610c4d929190611bbc565b5060058201816005019080546001816001161561010002031660029004610c75929190611bbc565b50600682015481600601556007820160009054906101000a900473ffffffffffffffffffffffffffffffffffffffff168160070160006101000a81548173ffffffffffffffffffffffffffffffffffffffff021916908373ffffffffffffffffffffffffffffffffffffffff160217905550905050600260006001548152602001908152602001600020600460003373ffffffffffffffffffffffffffffffffffffffff1673ffffffffffffffffffffffffffffffffffffffff1681526020019081526020016000206000820154816000015560018201816001019080546001816001161561010002031660029004610d6f929190611bbc565b5060028201816002019080546001816001161561010002031660029004610d97929190611bbc565b5060038201816003019080546001816001161561010002031660029004610dbf929190611bbc565b5060048201816004019080546001816001161561010002031660029004610de7929190611bbc565b5060058201816005019080546001816001161561010002031660029004610e0f929190611bbc565b50600682015481600601556007820160009054906101000a900473ffffffffffffffffffffffffffffffffffffffff168160070160006101000a81548173ffffffffffffffffffffffffffffffffffffffff021916908373ffffffffffffffffffffffffffffffffffffffff1602179055509050507ff1aec2b9296221ccfa48dba8ac9f89b8f90d11c0e4c557890ea8023a19b45cf38383602001518460400151856060015186608001518760a001518860c001518960e00151604051610edd989796959493929190612038565b60405180910390a1505050565b60015481565b6000855111610efe57600080fd5b6000845111610f0c57600080fd5b6000835111610f1a57600080fd5b600073ffffffffffffffffffffffffffffffffffffffff163373ffffffffffffffffffffffffffffffffffffffff161415610f5457600080fd5b6001600081548092919060010191905055506040518061010001604052806001548152602001868152602001858152602001848152602001838152602001828152602001600081526020013373ffffffffffffffffffffffffffffffffffffffff16815250600260006001548152602001908152602001600020600082015181600001556020820151816001019080519060200190610ff4929190611b2e565b506040820151816002019080519060200190611011929190611b2e565b50606082015181600301908051906020019061102e929190611b2e565b50608082015181600401908051906020019061104b929190611b2e565b5060a0820151816005019080519060200190611068929190611b2e565b5060c0820151816006015560e08201518160070160006101000a81548173ffffffffffffffffffffffffffffffffffffffff021916908373ffffffffffffffffffffffffffffffffffffffff1602179055509050506002600060015481526020019081526020016000206003866040516110e29190611f28565b90815260200160405180910390206000820154816000015560018201816001019080546001816001161561010002031660029004611121929190611bbc565b5060028201816002019080546001816001161561010002031660029004611149929190611bbc565b5060038201816003019080546001816001161561010002031660029004611171929190611bbc565b5060048201816004019080546001816001161561010002031660029004611199929190611bbc565b50600582018160050190805460018160011615610100020316600290046111c1929190611bbc565b50600682015481600601556007820160009054906101000a900473ffffffffffffffffffffffffffffffffffffffff168160070160006101000a81548173ffffffffffffffffffffffffffffffffffffffff021916908373ffffffffffffffffffffffffffffffffffffffff160217905550905050600260006001548152602001908152602001600020600460003373ffffffffffffffffffffffffffffffffffffffff1673ffffffffffffffffffffffffffffffffffffffff16815260200190815260200160002060008201548160000155600182018160010190805460018160011615610100020316600290046112bb929190611bbc565b50600282018160020190805460018160011615610100020316600290046112e3929190611bbc565b506003820181600301908054600181600116156101000203166002900461130b929190611bbc565b5060048201816004019080546001816001161561010002031660029004611333929190611bbc565b506005820181600501908054600181600116156101000203166002900461135b929190611bbc565b50600682015481600601556007820160009054906101000a900473ffffffffffffffffffffffffffffffffffffffff168160070160006101000a81548173ffffffffffffffffffffffffffffffffffffffff021916908373ffffffffffffffffffffffffffffffffffffffff1602179055509050507ffb37b60da7cdeb2e49a3f28329d24a1babbaca9db1f1c46fe5994bad6944ede46001548686868686600033604051611410989796959493929190611f97565b60405180910390a15050505050565b6004602052806000526040600020600091509050806000015490806001018054600181600116156101000203166002900480601f0160208091040260200160405190810160405280929190818152602001828054600181600116156101000203166002900480156114d15780601f106114a6576101008083540402835291602001916114d1565b820191906000526020600020905b8154815290600101906020018083116114b457829003601f168201915b505050505090806002018054600181600116156101000203166002900480601f01602080910402602001604051908101604052809291908181526020018280546001816001161561010002031660029004801561156f5780601f106115445761010080835404028352916020019161156f565b820191906000526020600020905b81548152906001019060200180831161155257829003601f168201915b505050505090806003018054600181600116156101000203166002900480601f01602080910402602001604051908101604052809291908181526020018280546001816001161561010002031660029004801561160d5780601f106115e25761010080835404028352916020019161160d565b820191906000526020600020905b8154815290600101906020018083116115f057829003601f168201915b505050505090806004018054600181600116156101000203166002900480601f0160208091040260200160405190810160405280929190818152602001828054600181600116156101000203166002900480156116ab5780601f10611680576101008083540402835291602001916116ab565b820191906000526020600020905b81548152906001019060200180831161168e57829003601f168201915b505050505090806005018054600181600116156101000203166002900480601f0160208091040260200160405190810160405280929190818152602001828054600181600116156101000203166002900480156117495780601f1061171e57610100808354040283529160200191611749565b820191906000526020600020905b81548152906001019060200180831161172c57829003601f168201915b5050505050908060060154908060070160009054906101000a900473ffffffffffffffffffffffffffffffffffffffff16905088565b6002602052806000526040600020600091509050806000015490806001018054600181600116156101000203166002900480601f0160208091040260200160405190810160405280929190818152602001828054600181600116156101000203166002900480156118315780601f1061180657610100808354040283529160200191611831565b820191906000526020600020905b81548152906001019060200180831161181457829003601f168201915b505050505090806002018054600181600116156101000203166002900480601f0160208091040260200160405190810160405280929190818152602001828054600181600116156101000203166002900480156118cf5780601f106118a4576101008083540402835291602001916118cf565b820191906000526020600020905b8154815290600101906020018083116118b257829003601f168201915b505050505090806003018054600181600116156101000203166002900480601f01602080910402602001604051908101604052809291908181526020018280546001816001161561010002031660029004801561196d5780601f106119425761010080835404028352916020019161196d565b820191906000526020600020905b81548152906001019060200180831161195057829003601f168201915b505050505090806004018054600181600116156101000203166002900480601f016020809104026020016040519081016040528092919081815260200182805460018160011615610100020316600290048015611a0b5780601f106119e057610100808354040283529160200191611a0b565b820191906000526020600020905b8154815290600101906020018083116119ee57829003601f168201915b505050505090806005018054600181600116156101000203166002900480601f016020809104026020016040519081016040528092919081815260200182805460018160011615610100020316600290048015611aa95780601f10611a7e57610100808354040283529160200191611aa9565b820191906000526020600020905b815481529060010190602001808311611a8c57829003601f168201915b5050505050908060060154908060070160009054906101000a900473ffffffffffffffffffffffffffffffffffffffff16905088565b600080600154118015611b2757506000600383604051611aff9190611f28565b9081526020016040518091039020600101805460018160011615610100020316600290049050115b9050919050565b828054600181600116156101000203166002900490600052602060002090601f016020900481019282611b645760008555611bab565b82601f10611b7d57805160ff1916838001178555611bab565b82800160010185558215611bab579182015b82811115611baa578251825591602001919060010190611b8f565b5b509050611bb89190611c51565b5090565b828054600181600116156101000203166002900490600052602060002090601f016020900481019282611bf25760008555611c40565b82601f10611c035780548555611c40565b82800160010185558215611c4057600052602060002091601f016020900482015b82811115611c3f578254825591600101919060010190611c24565b5b509050611c4d9190611c51565b5090565b5b80821115611c6a576000816000905550600101611c52565b5090565b6000611c81611c7c8461210a565b6120d9565b905082815260208101848484011115611c9957600080fd5b611ca48482856121cd565b509392505050565b600081359050611cbb81612222565b92915050565b600082601f830112611cd257600080fd5b8135611ce2848260208601611c6e565b91505092915050565b600081359050611cfa81612239565b92915050565b600060208284031215611d1257600080fd5b6000611d2084828501611cac565b91505092915050565b600060208284031215611d3b57600080fd5b600082013567ffffffffffffffff811115611d5557600080fd5b611d6184828501611cc1565b91505092915050565b600080600080600060a08688031215611d8257600080fd5b600086013567ffffffffffffffff811115611d9c57600080fd5b611da888828901611cc1565b955050602086013567ffffffffffffffff811115611dc557600080fd5b611dd188828901611cc1565b945050604086013567ffffffffffffffff811115611dee57600080fd5b611dfa88828901611cc1565b935050606086013567ffffffffffffffff811115611e1757600080fd5b611e2388828901611cc1565b925050608086013567ffffffffffffffff811115611e4057600080fd5b611e4c88828901611cc1565b9150509295509295909350565b600060208284031215611e6b57600080fd5b6000611e7984828501611ceb565b91505092915050565b611e8b81612173565b82525050565b611e9a81612185565b82525050565b611ea9816121bb565b82525050565b6000611eba8261213a565b611ec48185612145565b9350611ed48185602086016121dc565b611edd81612211565b840191505092915050565b6000611ef38261213a565b611efd8185612156565b9350611f0d8185602086016121dc565b80840191505092915050565b611f22816121b1565b82525050565b6000611f348284611ee8565b915081905092915050565b6000602082019050611f546000830184611e91565b92915050565b60006020820190508181036000830152611f748184611eaf565b905092915050565b6000602082019050611f916000830184611f19565b92915050565b600061010082019050611fad600083018b611f19565b8181036020830152611fbf818a611eaf565b90508181036040830152611fd38189611eaf565b90508181036060830152611fe78188611eaf565b90508181036080830152611ffb8187611eaf565b905081810360a083015261200f8186611eaf565b905061201e60c0830185611ea0565b61202b60e0830184611e82565b9998505050505050505050565b60006101008201905061204e600083018b611f19565b8181036020830152612060818a611eaf565b905081810360408301526120748189611eaf565b905081810360608301526120888188611eaf565b9050818103608083015261209c8187611eaf565b905081810360a08301526120b08186611eaf565b90506120bf60c0830185611f19565b6120cc60e0830184611e82565b9998505050505050505050565b6000604051905081810181811067ffffffffffffffff82111715612100576120ff61220f565b5b8060405250919050565b600067ffffffffffffffff8211156121255761212461220f565b5b601f19601f8301169050602081019050919050565b600081519050919050565b600082825260208201905092915050565b600081905092915050565b600061216c82612191565b9050919050565b600061217e82612191565b9050919050565b60008115159050919050565b600073ffffffffffffffffffffffffffffffffffffffff82169050919050565b6000819050919050565b60006121c6826121b1565b9050919050565b82818337600083830152505050565b60005b838110156121fa5780820151818401526020810190506121df565b83811115612209576000848401525b50505050565bfe5b6000601f19601f8301169050919050565b61222b81612161565b811461223657600080fd5b50565b612242816121b1565b811461224d57600080fd5b5056fea2646970667358221220e791fc9bad5dbb0d4c8ab816694d79e49a101e1b4f870b82eecc0180071bfca364736f6c63430007060033",
  "immutableReferences": {},
  "source": "// SPDX-License-Identifier: UNLICENSED\r\npragma solidity >=0.4.22 <0.9.0;\r\npragma abicoder v2;\r\n\r\ncontract Vimbal {\r\n    string public name = 'Vimbal';\r\n\r\n    uint256 public fileCount = 0;\r\n\r\n    mapping(uint256 => File) public files;\r\n    mapping(string => File) public filesByHash;\r\n    mapping(address => File) public filesByOwner;\r\n\r\n    struct File {\r\n        uint256 id;\r\n        string hash;\r\n        string title;\r\n        string authors;\r\n        string keywords;\r\n        string description;\r\n        uint256 tipAmount;\r\n        address payable owner;\r\n    }\r\n\r\n    event FileCreated(\r\n        uint256 id,\r\n        string hash,\r\n        string title,\r\n        string authors,\r\n        string keywords,\r\n        string description,\r\n        uint256 tipAmount,\r\n        address payable owner\r\n    );\r\n\r\n    event FileTipped(\r\n        uint256 id,\r\n        string hash,\r\n        string title,\r\n        string authors,\r\n        string keywords,\r\n        string description,\r\n        uint256 tipAmount,\r\n        address payable owner\r\n    );\r\n\r\n    function uploadFile(\r\n        string memory _fileHash,\r\n        string memory _title,\r\n        string memory _authors,\r\n        string memory _keywords,\r\n        string memory _description\r\n    ) public {\r\n        require(bytes(_fileHash).length > 0);\r\n        require(bytes(_title).length > 0);\r\n        require(bytes(_authors).length > 0);\r\n        require(msg.sender != address(0x0));\r\n        fileCount++;\r\n\r\n        files[fileCount] = File(\r\n            fileCount,\r\n            _fileHash,\r\n            _title,\r\n            _authors,\r\n            _keywords,\r\n            _description,\r\n            0,\r\n            payable(address(msg.sender))\r\n        );\r\n\r\n        filesByHash[_fileHash] = files[fileCount];\r\n        filesByOwner[msg.sender] = files[fileCount];\r\n\r\n        emit FileCreated(\r\n            fileCount,\r\n            _fileHash,\r\n            _title,\r\n            _authors,\r\n            _keywords,\r\n            _description,\r\n            0,\r\n            payable(address(msg.sender))\r\n        );\r\n    }\r\n\r\n    function tipFileOwner(uint256 _id) public payable {\r\n        require(_id > 0 && _id <= fileCount);\r\n\r\n        File memory _file = files[_id];\r\n        address payable _owner = _file.owner;\r\n        _owner.transfer(msg.value);\r\n\r\n        _file.tipAmount = _file.tipAmount + msg.value;\r\n        files[_id] = _file;\r\n\r\n        filesByHash[_file.hash] = files[fileCount];\r\n        filesByOwner[msg.sender] = files[fileCount];\r\n\r\n        emit FileTipped(\r\n            _id,\r\n            _file.hash,\r\n            _file.title,\r\n            _file.authors,\r\n            _file.keywords,\r\n            _file.description,\r\n            _file.tipAmount,\r\n            _file.owner\r\n        );\r\n    }\r\n\r\n    function isFileOwned(string memory fileHash) public view returns (bool) {\r\n        return fileCount > 0 && bytes(filesByHash[fileHash].hash).length > 0;\r\n    }\r\n}\r\n",
  "sourcePath": "C:/Users/chama/Documents/Production/vimbal/contracts/Vimbal.sol",
  "compiler": {
    "name": "solc",
    "version": "0.7.6+commit.7338295f.Emscripten.clang"
  },
  "schemaVersion": "3.3.3",
  "updatedAt": "2022-04-23T08:41:37.730Z",
  "networkType": "ethereum",
  "devdoc": {
    "kind": "dev",
    "methods": {},
    "version": 1
  },
  "userdoc": {
    "kind": "user",
    "methods": {},
    "version": 1
  }
}