{
  "contractName": "Vimbal",
  "abi": [
    {
      "anonymous": false,
      "inputs": [
        {
          "indexed": false,
          "internalType": "uint256",
          "name": "id",
          "type": "uint256"
        },
        {
          "indexed": false,
          "internalType": "string",
          "name": "hash",
          "type": "string"
        },
        {
          "indexed": false,
          "internalType": "string",
          "name": "title",
          "type": "string"
        },
        {
          "indexed": false,
          "internalType": "string",
          "name": "authors",
          "type": "string"
        },
        {
          "indexed": false,
          "internalType": "string",
          "name": "keywords",
          "type": "string"
        },
        {
          "indexed": false,
          "internalType": "string",
          "name": "description",
          "type": "string"
        },
        {
          "indexed": false,
          "internalType": "uint256",
          "name": "tipAmount",
          "type": "uint256"
        },
        {
          "indexed": false,
          "internalType": "uint256",
          "name": "timestamp",
          "type": "uint256"
        },
        {
          "indexed": false,
          "internalType": "address payable",
          "name": "owner",
          "type": "address"
        }
      ],
      "name": "FileCreated",
      "type": "event"
    },
    {
      "anonymous": false,
      "inputs": [
        {
          "indexed": false,
          "internalType": "uint256",
          "name": "id",
          "type": "uint256"
        },
        {
          "indexed": false,
          "internalType": "string",
          "name": "hash",
          "type": "string"
        },
        {
          "indexed": false,
          "internalType": "string",
          "name": "title",
          "type": "string"
        },
        {
          "indexed": false,
          "internalType": "string",
          "name": "authors",
          "type": "string"
        },
        {
          "indexed": false,
          "internalType": "string",
          "name": "keywords",
          "type": "string"
        },
        {
          "indexed": false,
          "internalType": "string",
          "name": "description",
          "type": "string"
        },
        {
          "indexed": false,
          "internalType": "uint256",
          "name": "tipAmount",
          "type": "uint256"
        },
        {
          "indexed": false,
          "internalType": "uint256",
          "name": "timestamp",
          "type": "uint256"
        },
        {
          "indexed": false,
          "internalType": "address payable",
          "name": "owner",
          "type": "address"
        }
      ],
      "name": "FileTipped",
      "type": "event"
    },
    {
      "inputs": [],
      "name": "fileCount",
      "outputs": [
        {
          "internalType": "uint256",
          "name": "",
          "type": "uint256"
        }
      ],
      "stateMutability": "view",
      "type": "function",
      "constant": true
    },
    {
      "inputs": [
        {
          "internalType": "uint256",
          "name": "",
          "type": "uint256"
        }
      ],
      "name": "files",
      "outputs": [
        {
          "internalType": "uint256",
          "name": "id",
          "type": "uint256"
        },
        {
          "internalType": "string",
          "name": "hash",
          "type": "string"
        },
        {
          "internalType": "string",
          "name": "title",
          "type": "string"
        },
        {
          "internalType": "string",
          "name": "authors",
          "type": "string"
        },
        {
          "internalType": "string",
          "name": "keywords",
          "type": "string"
        },
        {
          "internalType": "string",
          "name": "description",
          "type": "string"
        },
        {
          "internalType": "uint256",
          "name": "tipAmount",
          "type": "uint256"
        },
        {
          "internalType": "uint256",
          "name": "timestamp",
          "type": "uint256"
        },
        {
          "internalType": "address payable",
          "name": "owner",
          "type": "address"
        }
      ],
      "stateMutability": "view",
      "type": "function",
      "constant": true
    },
    {
      "inputs": [],
      "name": "name",
      "outputs": [
        {
          "internalType": "string",
          "name": "",
          "type": "string"
        }
      ],
      "stateMutability": "view",
      "type": "function",
      "constant": true
    },
    {
      "inputs": [
        {
          "internalType": "string",
          "name": "_fileHash",
          "type": "string"
        },
        {
          "internalType": "string",
          "name": "_title",
          "type": "string"
        },
        {
          "internalType": "string",
          "name": "_authors",
          "type": "string"
        },
        {
          "internalType": "string",
          "name": "_keywords",
          "type": "string"
        },
        {
          "internalType": "string",
          "name": "_description",
          "type": "string"
        }
      ],
      "name": "uploadFile",
      "outputs": [],
      "stateMutability": "nonpayable",
      "type": "function"
    },
    {
      "inputs": [
        {
          "internalType": "uint256",
          "name": "_id",
          "type": "uint256"
        }
      ],
      "name": "tipFileOwner",
      "outputs": [],
      "stateMutability": "payable",
      "type": "function",
      "payable": true
    }
  ],
  "bytecode": "0x60806040526040518060400160405280600681526020017f56696d62616c000000000000000000000000000000000000000000000000000081525060009080519060200190620000519291906200006b565b5060006001553480156200006457600080fd5b5062000121565b828054600181600116156101000203166002900490600052602060002090601f016020900481019282620000a35760008555620000ef565b82601f10620000be57805160ff1916838001178555620000ef565b82800160010185558215620000ef579182015b82811115620000ee578251825591602001919060010190620000d1565b5b509050620000fe919062000102565b5090565b5b808211156200011d57600081600090555060010162000103565b5090565b6112d080620001316000396000f3fe60806040526004361061004a5760003560e01c806306fdde031461004f578063182cb8b21461007a5780634395351914610096578063ef8b3839146100c1578063f4c714b4146100ea575b600080fd5b34801561005b57600080fd5b5061006461012f565b6040516100719190610fc6565b60405180910390f35b610094600480360381019061008f9190610f37565b6101cd565b005b3480156100a257600080fd5b506100ab610785565b6040516100b89190610fe8565b60405180910390f35b3480156100cd57600080fd5b506100e860048036038101906100e39190610e48565b61078b565b005b3480156100f657600080fd5b50610111600480360381019061010c9190610f37565b6109ba565b604051610126999897969594939291906110b3565b60405180910390f35b60008054600181600116156101000203166002900480601f0160208091040260200160405190810160405280929190818152602001828054600181600116156101000203166002900480156101c55780601f1061019a576101008083540402835291602001916101c5565b820191906000526020600020905b8154815290600101906020018083116101a857829003601f168201915b505050505081565b6000811180156101df57506001548111155b6101e857600080fd5b6000600260008381526020019081526020016000206040518061012001604052908160008201548152602001600182018054600181600116156101000203166002900480601f0160208091040260200160405190810160405280929190818152602001828054600181600116156101000203166002900480156102ac5780601f10610281576101008083540402835291602001916102ac565b820191906000526020600020905b81548152906001019060200180831161028f57829003601f168201915b50505050508152602001600282018054600181600116156101000203166002900480601f01602080910402602001604051908101604052809291908181526020018280546001816001161561010002031660029004801561034e5780601f106103235761010080835404028352916020019161034e565b820191906000526020600020905b81548152906001019060200180831161033157829003601f168201915b50505050508152602001600382018054600181600116156101000203166002900480601f0160208091040260200160405190810160405280929190818152602001828054600181600116156101000203166002900480156103f05780601f106103c5576101008083540402835291602001916103f0565b820191906000526020600020905b8154815290600101906020018083116103d357829003601f168201915b50505050508152602001600482018054600181600116156101000203166002900480601f0160208091040260200160405190810160405280929190818152602001828054600181600116156101000203166002900480156104925780601f1061046757610100808354040283529160200191610492565b820191906000526020600020905b81548152906001019060200180831161047557829003601f168201915b50505050508152602001600582018054600181600116156101000203166002900480601f0160208091040260200160405190810160405280929190818152602001828054600181600116156101000203166002900480156105345780601f1061050957610100808354040283529160200191610534565b820191906000526020600020905b81548152906001019060200180831161051757829003601f168201915b5050505050815260200160068201548152602001600782015481526020016008820160009054906101000a900473ffffffffffffffffffffffffffffffffffffffff1673ffffffffffffffffffffffffffffffffffffffff1673ffffffffffffffffffffffffffffffffffffffff16815250509050600081610100015190508073ffffffffffffffffffffffffffffffffffffffff166108fc349081150290604051600060405180830381858888f193505050501580156105f9573d6000803e3d6000fd5b50348260c00151018260c00181815250508160026000858152602001908152602001600020600082015181600001556020820151816001019080519060200190610644929190610d20565b506040820151816002019080519060200190610661929190610d20565b50606082015181600301908051906020019061067e929190610d20565b50608082015181600401908051906020019061069b929190610d20565b5060a08201518160050190805190602001906106b8929190610d20565b5060c0820151816006015560e082015181600701556101008201518160080160006101000a81548173ffffffffffffffffffffffffffffffffffffffff021916908373ffffffffffffffffffffffffffffffffffffffff1602179055509050507f2513d836293da05e717144a8d3b4528ccc22ab78cfe8673901d3b44c232aea628383602001518460400151856060015186608001518760a001518860c001518960e001518a6101000151604051610778999897969594939291906110b3565b60405180910390a1505050565b60015481565b600085511161079957600080fd5b60008451116107a757600080fd5b60008351116107b557600080fd5b600073ffffffffffffffffffffffffffffffffffffffff163373ffffffffffffffffffffffffffffffffffffffff1614156107ef57600080fd5b6001600081548092919060010191905055506040518061012001604052806001548152602001868152602001858152602001848152602001838152602001828152602001600081526020014281526020013373ffffffffffffffffffffffffffffffffffffffff16815250600260006001548152602001908152602001600020600082015181600001556020820151816001019080519060200190610895929190610d20565b5060408201518160020190805190602001906108b2929190610d20565b5060608201518160030190805190602001906108cf929190610d20565b5060808201518160040190805190602001906108ec929190610d20565b5060a0820151816005019080519060200190610909929190610d20565b5060c0820151816006015560e082015181600701556101008201518160080160006101000a81548173ffffffffffffffffffffffffffffffffffffffff021916908373ffffffffffffffffffffffffffffffffffffffff1602179055509050507fa974a88ec19940a31a7246a3fb8888edd47fef0e5959c664d639498a1cfe13486001548686868686600042336040516109ab99989796959493929190611003565b60405180910390a15050505050565b6002602052806000526040600020600091509050806000015490806001018054600181600116156101000203166002900480601f016020809104026020016040519081016040528092919081815260200182805460018160011615610100020316600290048015610a6c5780601f10610a4157610100808354040283529160200191610a6c565b820191906000526020600020905b815481529060010190602001808311610a4f57829003601f168201915b505050505090806002018054600181600116156101000203166002900480601f016020809104026020016040519081016040528092919081815260200182805460018160011615610100020316600290048015610b0a5780601f10610adf57610100808354040283529160200191610b0a565b820191906000526020600020905b815481529060010190602001808311610aed57829003601f168201915b505050505090806003018054600181600116156101000203166002900480601f016020809104026020016040519081016040528092919081815260200182805460018160011615610100020316600290048015610ba85780601f10610b7d57610100808354040283529160200191610ba8565b820191906000526020600020905b815481529060010190602001808311610b8b57829003601f168201915b505050505090806004018054600181600116156101000203166002900480601f016020809104026020016040519081016040528092919081815260200182805460018160011615610100020316600290048015610c465780601f10610c1b57610100808354040283529160200191610c46565b820191906000526020600020905b815481529060010190602001808311610c2957829003601f168201915b505050505090806005018054600181600116156101000203166002900480601f016020809104026020016040519081016040528092919081815260200182805460018160011615610100020316600290048015610ce45780601f10610cb957610100808354040283529160200191610ce4565b820191906000526020600020905b815481529060010190602001808311610cc757829003601f168201915b5050505050908060060154908060070154908060080160009054906101000a900473ffffffffffffffffffffffffffffffffffffffff16905089565b828054600181600116156101000203166002900490600052602060002090601f016020900481019282610d565760008555610d9d565b82601f10610d6f57805160ff1916838001178555610d9d565b82800160010185558215610d9d579182015b82811115610d9c578251825591602001919060010190610d81565b5b509050610daa9190610dae565b5090565b5b80821115610dc7576000816000905550600101610daf565b5090565b6000610dde610dd984611194565b611163565b905082815260208101848484011115610df657600080fd5b610e0184828561122e565b509392505050565b600082601f830112610e1a57600080fd5b8135610e2a848260208601610dcb565b91505092915050565b600081359050610e4281611283565b92915050565b600080600080600060a08688031215610e6057600080fd5b600086013567ffffffffffffffff811115610e7a57600080fd5b610e8688828901610e09565b955050602086013567ffffffffffffffff811115610ea357600080fd5b610eaf88828901610e09565b945050604086013567ffffffffffffffff811115610ecc57600080fd5b610ed888828901610e09565b935050606086013567ffffffffffffffff811115610ef557600080fd5b610f0188828901610e09565b925050608086013567ffffffffffffffff811115610f1e57600080fd5b610f2a88828901610e09565b9150509295509295909350565b600060208284031215610f4957600080fd5b6000610f5784828501610e33565b91505092915050565b610f69816111e0565b82525050565b610f788161121c565b82525050565b6000610f89826111c4565b610f9381856111cf565b9350610fa381856020860161123d565b610fac81611272565b840191505092915050565b610fc081611212565b82525050565b60006020820190508181036000830152610fe08184610f7e565b905092915050565b6000602082019050610ffd6000830184610fb7565b92915050565b600061012082019050611019600083018c610fb7565b818103602083015261102b818b610f7e565b9050818103604083015261103f818a610f7e565b905081810360608301526110538189610f7e565b905081810360808301526110678188610f7e565b905081810360a083015261107b8187610f7e565b905061108a60c0830186610f6f565b61109760e0830185610fb7565b6110a5610100830184610f60565b9a9950505050505050505050565b6000610120820190506110c9600083018c610fb7565b81810360208301526110db818b610f7e565b905081810360408301526110ef818a610f7e565b905081810360608301526111038189610f7e565b905081810360808301526111178188610f7e565b905081810360a083015261112b8187610f7e565b905061113a60c0830186610fb7565b61114760e0830185610fb7565b611155610100830184610f60565b9a9950505050505050505050565b6000604051905081810181811067ffffffffffffffff8211171561118a57611189611270565b5b8060405250919050565b600067ffffffffffffffff8211156111af576111ae611270565b5b601f19601f8301169050602081019050919050565b600081519050919050565b600082825260208201905092915050565b60006111eb826111f2565b9050919050565b600073ffffffffffffffffffffffffffffffffffffffff82169050919050565b6000819050919050565b600061122782611212565b9050919050565b82818337600083830152505050565b60005b8381101561125b578082015181840152602081019050611240565b8381111561126a576000848401525b50505050565bfe5b6000601f19601f8301169050919050565b61128c81611212565b811461129757600080fd5b5056fea26469706673582212200862a656428f4572b21fc472507461acf161fc96c8ca57e86f4aab1d8c041d7864736f6c63430007060033",
  "immutableReferences": {},
  "source": "// SPDX-License-Identifier: UNLICENSED\r\npragma solidity >=0.4.22 <0.9.0;\r\npragma abicoder v2;\r\n\r\ncontract Vimbal {\r\n    string public name = 'Vimbal';\r\n\r\n    uint256 public fileCount = 0;\r\n\r\n    mapping(uint256 => File) public files;\r\n\r\n    struct File {\r\n        uint256 id;\r\n        string hash;\r\n        string title;\r\n        string authors;\r\n        string keywords;\r\n        string description;\r\n        uint256 tipAmount;\r\n        uint256 timestamp;\r\n        address payable owner;\r\n    }\r\n\r\n    event FileCreated(\r\n        uint256 id,\r\n        string hash,\r\n        string title,\r\n        string authors,\r\n        string keywords,\r\n        string description,\r\n        uint256 tipAmount,\r\n        uint256 timestamp,\r\n        address payable owner\r\n    );\r\n\r\n    event FileTipped(\r\n        uint256 id,\r\n        string hash,\r\n        string title,\r\n        string authors,\r\n        string keywords,\r\n        string description,\r\n        uint256 tipAmount,\r\n        uint256 timestamp,\r\n        address payable owner\r\n    );\r\n\r\n    function uploadFile(\r\n        string memory _fileHash,\r\n        string memory _title,\r\n        string memory _authors,\r\n        string memory _keywords,\r\n        string memory _description\r\n    ) public {\r\n        require(bytes(_fileHash).length > 0);\r\n        require(bytes(_title).length > 0);\r\n        require(bytes(_authors).length > 0);\r\n        require(msg.sender != address(0x0));\r\n        fileCount++;\r\n\r\n        files[fileCount] = File(\r\n            fileCount,\r\n            _fileHash,\r\n            _title,\r\n            _authors,\r\n            _keywords,\r\n            _description,\r\n            0,\r\n            block.timestamp,\r\n            payable(address(msg.sender))\r\n        );\r\n\r\n        emit FileCreated(\r\n            fileCount,\r\n            _fileHash,\r\n            _title,\r\n            _authors,\r\n            _keywords,\r\n            _description,\r\n            0,\r\n            block.timestamp,\r\n            payable(address(msg.sender))\r\n        );\r\n    }\r\n\r\n    function tipFileOwner(uint256 _id) public payable {\r\n        require(_id > 0 && _id <= fileCount);\r\n\r\n        File memory _file = files[_id];\r\n        address payable _owner = _file.owner;\r\n        _owner.transfer(msg.value);\r\n\r\n        _file.tipAmount = _file.tipAmount + msg.value;\r\n        files[_id] = _file;\r\n\r\n        emit FileTipped(\r\n            _id,\r\n            _file.hash,\r\n            _file.title,\r\n            _file.authors,\r\n            _file.keywords,\r\n            _file.description,\r\n            _file.tipAmount,\r\n            _file.timestamp,\r\n            _file.owner\r\n        );\r\n    }\r\n}\r\n",
  "sourcePath": "C:/Users/chama/Documents/Production/vimbal/contracts/Vimbal.sol",
  "compiler": {
    "name": "solc",
    "version": "0.7.6+commit.7338295f.Emscripten.clang"
  },
  "schemaVersion": "3.3.3",
  "updatedAt": "2022-03-20T18:16:34.143Z",
  "networkType": "ethereum",
  "devdoc": {
    "kind": "dev",
    "methods": {},
    "version": 1
  },
  "userdoc": {
    "kind": "user",
    "methods": {},
    "version": 1
  }
}