{
  "contractName": "Vimbal",
  "abi": [
    {
      "anonymous": false,
      "inputs": [
        {
          "indexed": false,
          "internalType": "uint256",
          "name": "id",
          "type": "uint256"
        },
        {
          "indexed": false,
          "internalType": "string",
          "name": "hash",
          "type": "string"
        },
        {
          "indexed": false,
          "internalType": "string",
          "name": "title",
          "type": "string"
        },
        {
          "indexed": false,
          "internalType": "string",
          "name": "authors",
          "type": "string"
        },
        {
          "indexed": false,
          "internalType": "string",
          "name": "keywords",
          "type": "string"
        },
        {
          "indexed": false,
          "internalType": "string",
          "name": "description",
          "type": "string"
        },
        {
          "indexed": false,
          "internalType": "uint256",
          "name": "tipAmount",
          "type": "uint256"
        },
        {
          "indexed": false,
          "internalType": "string",
          "name": "createdAt",
          "type": "string"
        },
        {
          "indexed": false,
          "internalType": "address payable",
          "name": "owner",
          "type": "address"
        }
      ],
      "name": "FileCreated",
      "type": "event"
    },
    {
      "anonymous": false,
      "inputs": [
        {
          "indexed": false,
          "internalType": "uint256",
          "name": "id",
          "type": "uint256"
        },
        {
          "indexed": false,
          "internalType": "string",
          "name": "hash",
          "type": "string"
        },
        {
          "indexed": false,
          "internalType": "string",
          "name": "title",
          "type": "string"
        },
        {
          "indexed": false,
          "internalType": "string",
          "name": "authors",
          "type": "string"
        },
        {
          "indexed": false,
          "internalType": "string",
          "name": "keywords",
          "type": "string"
        },
        {
          "indexed": false,
          "internalType": "string",
          "name": "description",
          "type": "string"
        },
        {
          "indexed": false,
          "internalType": "uint256",
          "name": "tipAmount",
          "type": "uint256"
        },
        {
          "indexed": false,
          "internalType": "string",
          "name": "createdAt",
          "type": "string"
        },
        {
          "indexed": false,
          "internalType": "address payable",
          "name": "owner",
          "type": "address"
        }
      ],
      "name": "FileTipped",
      "type": "event"
    },
    {
      "inputs": [],
      "name": "fileCount",
      "outputs": [
        {
          "internalType": "uint256",
          "name": "",
          "type": "uint256"
        }
      ],
      "stateMutability": "view",
      "type": "function",
      "constant": true
    },
    {
      "inputs": [
        {
          "internalType": "uint256",
          "name": "",
          "type": "uint256"
        }
      ],
      "name": "files",
      "outputs": [
        {
          "internalType": "uint256",
          "name": "id",
          "type": "uint256"
        },
        {
          "internalType": "string",
          "name": "hash",
          "type": "string"
        },
        {
          "internalType": "string",
          "name": "title",
          "type": "string"
        },
        {
          "internalType": "string",
          "name": "authors",
          "type": "string"
        },
        {
          "internalType": "string",
          "name": "keywords",
          "type": "string"
        },
        {
          "internalType": "string",
          "name": "description",
          "type": "string"
        },
        {
          "internalType": "uint256",
          "name": "tipAmount",
          "type": "uint256"
        },
        {
          "internalType": "string",
          "name": "createdAt",
          "type": "string"
        },
        {
          "internalType": "address payable",
          "name": "owner",
          "type": "address"
        }
      ],
      "stateMutability": "view",
      "type": "function",
      "constant": true
    },
    {
      "inputs": [
        {
          "internalType": "string",
          "name": "",
          "type": "string"
        }
      ],
      "name": "filesByHash",
      "outputs": [
        {
          "internalType": "uint256",
          "name": "id",
          "type": "uint256"
        },
        {
          "internalType": "string",
          "name": "hash",
          "type": "string"
        },
        {
          "internalType": "string",
          "name": "title",
          "type": "string"
        },
        {
          "internalType": "string",
          "name": "authors",
          "type": "string"
        },
        {
          "internalType": "string",
          "name": "keywords",
          "type": "string"
        },
        {
          "internalType": "string",
          "name": "description",
          "type": "string"
        },
        {
          "internalType": "uint256",
          "name": "tipAmount",
          "type": "uint256"
        },
        {
          "internalType": "string",
          "name": "createdAt",
          "type": "string"
        },
        {
          "internalType": "address payable",
          "name": "owner",
          "type": "address"
        }
      ],
      "stateMutability": "view",
      "type": "function",
      "constant": true
    },
    {
      "inputs": [
        {
          "internalType": "address",
          "name": "",
          "type": "address"
        },
        {
          "internalType": "uint256",
          "name": "",
          "type": "uint256"
        }
      ],
      "name": "filesByOwner",
      "outputs": [
        {
          "internalType": "uint256",
          "name": "id",
          "type": "uint256"
        },
        {
          "internalType": "string",
          "name": "hash",
          "type": "string"
        },
        {
          "internalType": "string",
          "name": "title",
          "type": "string"
        },
        {
          "internalType": "string",
          "name": "authors",
          "type": "string"
        },
        {
          "internalType": "string",
          "name": "keywords",
          "type": "string"
        },
        {
          "internalType": "string",
          "name": "description",
          "type": "string"
        },
        {
          "internalType": "uint256",
          "name": "tipAmount",
          "type": "uint256"
        },
        {
          "internalType": "string",
          "name": "createdAt",
          "type": "string"
        },
        {
          "internalType": "address payable",
          "name": "owner",
          "type": "address"
        }
      ],
      "stateMutability": "view",
      "type": "function",
      "constant": true
    },
    {
      "inputs": [],
      "name": "name",
      "outputs": [
        {
          "internalType": "string",
          "name": "",
          "type": "string"
        }
      ],
      "stateMutability": "view",
      "type": "function",
      "constant": true
    },
    {
      "inputs": [
        {
          "internalType": "string",
          "name": "_fileHash",
          "type": "string"
        },
        {
          "internalType": "string",
          "name": "_title",
          "type": "string"
        },
        {
          "internalType": "string",
          "name": "_authors",
          "type": "string"
        },
        {
          "internalType": "string",
          "name": "_keywords",
          "type": "string"
        },
        {
          "internalType": "string",
          "name": "_description",
          "type": "string"
        },
        {
          "internalType": "string",
          "name": "_createdAt",
          "type": "string"
        }
      ],
      "name": "uploadFile",
      "outputs": [],
      "stateMutability": "nonpayable",
      "type": "function"
    },
    {
      "inputs": [
        {
          "internalType": "uint256",
          "name": "_id",
          "type": "uint256"
        }
      ],
      "name": "tipFileOwner",
      "outputs": [],
      "stateMutability": "payable",
      "type": "function",
      "payable": true
    },
    {
      "inputs": [],
      "name": "isFileOwned",
      "outputs": [
        {
          "internalType": "bool",
          "name": "",
          "type": "bool"
        }
      ],
      "stateMutability": "view",
      "type": "function",
      "constant": true
    }
  ],
  "bytecode": "0x60806040526040518060400160405280600681526020017f56696d62616c000000000000000000000000000000000000000000000000000081525060009080519060200190620000519291906200006b565b5060006001553480156200006457600080fd5b5062000121565b828054600181600116156101000203166002900490600052602060002090601f016020900481019282620000a35760008555620000ef565b82601f10620000be57805160ff1916838001178555620000ef565b82800160010185558215620000ef579182015b82811115620000ee578251825591602001919060010190620000d1565b5b509050620000fe919062000102565b5090565b5b808211156200011d57600081600090555060010162000103565b5090565b61263980620001316000396000f3fe60806040526004361061007b5760003560e01c8063753e68cd1161004e578063753e68cd14610137578063b854449314610162578063bb5806b7146101a7578063f4c714b4146101d05761007b565b80630160baf71461008057806306fdde03146100c5578063182cb8b2146100f0578063439535191461010c575b600080fd5b34801561008c57600080fd5b506100a760048036038101906100a29190612086565b610215565b6040516100bc999897969594939291906123d5565b60405180910390f35b3480156100d157600080fd5b506100da610629565b6040516100e791906122e1565b60405180910390f35b61010a600480360381019061010591906121e0565b6106c7565b005b34801561011857600080fd5b506101216110a4565b60405161012e9190612303565b60405180910390f35b34801561014357600080fd5b5061014c6110aa565b60405161015991906122c6565b60405180910390f35b34801561016e57600080fd5b506101896004803603810190610184919061204a565b6110b6565b60405161019e999897969594939291906123d5565b60405180910390f35b3480156101b357600080fd5b506101ce60048036038101906101c991906120c7565b6114c1565b005b3480156101dc57600080fd5b506101f760048036038101906101f291906121e0565b611a7a565b60405161020c999897969594939291906123d5565b60405180910390f35b600381805160208101820180518482526020830160208501208183528095505050505050600091509050806000015490806001018054600181600116156101000203166002900480601f0160208091040260200160405190810160405280929190818152602001828054600181600116156101000203166002900480156102dd5780601f106102b2576101008083540402835291602001916102dd565b820191906000526020600020905b8154815290600101906020018083116102c057829003601f168201915b505050505090806002018054600181600116156101000203166002900480601f01602080910402602001604051908101604052809291908181526020018280546001816001161561010002031660029004801561037b5780601f106103505761010080835404028352916020019161037b565b820191906000526020600020905b81548152906001019060200180831161035e57829003601f168201915b505050505090806003018054600181600116156101000203166002900480601f0160208091040260200160405190810160405280929190818152602001828054600181600116156101000203166002900480156104195780601f106103ee57610100808354040283529160200191610419565b820191906000526020600020905b8154815290600101906020018083116103fc57829003601f168201915b505050505090806004018054600181600116156101000203166002900480601f0160208091040260200160405190810160405280929190818152602001828054600181600116156101000203166002900480156104b75780601f1061048c576101008083540402835291602001916104b7565b820191906000526020600020905b81548152906001019060200180831161049a57829003601f168201915b505050505090806005018054600181600116156101000203166002900480601f0160208091040260200160405190810160405280929190818152602001828054600181600116156101000203166002900480156105555780601f1061052a57610100808354040283529160200191610555565b820191906000526020600020905b81548152906001019060200180831161053857829003601f168201915b505050505090806006015490806007018054600181600116156101000203166002900480601f0160208091040260200160405190810160405280929190818152602001828054600181600116156101000203166002900480156105f95780601f106105ce576101008083540402835291602001916105f9565b820191906000526020600020905b8154815290600101906020018083116105dc57829003601f168201915b5050505050908060080160009054906101000a900473ffffffffffffffffffffffffffffffffffffffff16905089565b60008054600181600116156101000203166002900480601f0160208091040260200160405190810160405280929190818152602001828054600181600116156101000203166002900480156106bf5780601f10610694576101008083540402835291602001916106bf565b820191906000526020600020905b8154815290600101906020018083116106a257829003601f168201915b505050505081565b6000811180156106d957506001548111155b6106e257600080fd5b6000600260008381526020019081526020016000206040518061012001604052908160008201548152602001600182018054600181600116156101000203166002900480601f0160208091040260200160405190810160405280929190818152602001828054600181600116156101000203166002900480156107a65780601f1061077b576101008083540402835291602001916107a6565b820191906000526020600020905b81548152906001019060200180831161078957829003601f168201915b50505050508152602001600282018054600181600116156101000203166002900480601f0160208091040260200160405190810160405280929190818152602001828054600181600116156101000203166002900480156108485780601f1061081d57610100808354040283529160200191610848565b820191906000526020600020905b81548152906001019060200180831161082b57829003601f168201915b50505050508152602001600382018054600181600116156101000203166002900480601f0160208091040260200160405190810160405280929190818152602001828054600181600116156101000203166002900480156108ea5780601f106108bf576101008083540402835291602001916108ea565b820191906000526020600020905b8154815290600101906020018083116108cd57829003601f168201915b50505050508152602001600482018054600181600116156101000203166002900480601f01602080910402602001604051908101604052809291908181526020018280546001816001161561010002031660029004801561098c5780601f106109615761010080835404028352916020019161098c565b820191906000526020600020905b81548152906001019060200180831161096f57829003601f168201915b50505050508152602001600582018054600181600116156101000203166002900480601f016020809104026020016040519081016040528092919081815260200182805460018160011615610100020316600290048015610a2e5780601f10610a0357610100808354040283529160200191610a2e565b820191906000526020600020905b815481529060010190602001808311610a1157829003601f168201915b5050505050815260200160068201548152602001600782018054600181600116156101000203166002900480601f016020809104026020016040519081016040528092919081815260200182805460018160011615610100020316600290048015610ada5780601f10610aaf57610100808354040283529160200191610ada565b820191906000526020600020905b815481529060010190602001808311610abd57829003601f168201915b505050505081526020016008820160009054906101000a900473ffffffffffffffffffffffffffffffffffffffff1673ffffffffffffffffffffffffffffffffffffffff1673ffffffffffffffffffffffffffffffffffffffff16815250509050600081610100015190508073ffffffffffffffffffffffffffffffffffffffff166108fc349081150290604051600060405180830381858888f19350505050158015610b8b573d6000803e3d6000fd5b50348260c00151018260c00181815250508160026000858152602001908152602001600020600082015181600001556020820151816001019080519060200190610bd6929190611e78565b506040820151816002019080519060200190610bf3929190611e78565b506060820151816003019080519060200190610c10929190611e78565b506080820151816004019080519060200190610c2d929190611e78565b5060a0820151816005019080519060200190610c4a929190611e78565b5060c0820151816006015560e0820151816007019080519060200190610c71929190611e78565b506101008201518160080160006101000a81548173ffffffffffffffffffffffffffffffffffffffff021916908373ffffffffffffffffffffffffffffffffffffffff16021790555090505060026000600154815260200190815260200160002060038360200151604051610ce691906122af565b90815260200160405180910390206000820154816000015560018201816001019080546001816001161561010002031660029004610d25929190611f06565b5060028201816002019080546001816001161561010002031660029004610d4d929190611f06565b5060038201816003019080546001816001161561010002031660029004610d75929190611f06565b5060048201816004019080546001816001161561010002031660029004610d9d929190611f06565b5060058201816005019080546001816001161561010002031660029004610dc5929190611f06565b506006820154816006015560078201816007019080546001816001161561010002031660029004610df7929190611f06565b506008820160009054906101000a900473ffffffffffffffffffffffffffffffffffffffff168160080160006101000a81548173ffffffffffffffffffffffffffffffffffffffff021916908373ffffffffffffffffffffffffffffffffffffffff160217905550905050600260006001548152602001908152602001600020600460003373ffffffffffffffffffffffffffffffffffffffff1673ffffffffffffffffffffffffffffffffffffffff168152602001908152602001600020600060015481526020019081526020016000206000820154816000015560018201816001019080546001816001161561010002031660029004610efa929190611f06565b5060028201816002019080546001816001161561010002031660029004610f22929190611f06565b5060038201816003019080546001816001161561010002031660029004610f4a929190611f06565b5060048201816004019080546001816001161561010002031660029004610f72929190611f06565b5060058201816005019080546001816001161561010002031660029004610f9a929190611f06565b506006820154816006015560078201816007019080546001816001161561010002031660029004610fcc929190611f06565b506008820160009054906101000a900473ffffffffffffffffffffffffffffffffffffffff168160080160006101000a81548173ffffffffffffffffffffffffffffffffffffffff021916908373ffffffffffffffffffffffffffffffffffffffff1602179055509050507f4664ec3eb6e76b2502221e7f43d8ff1ca52d4341e47c79153fe35e72056f57378383602001518460400151856060015186608001518760a001518860c001518960e001518a6101000151604051611097999897969594939291906123d5565b60405180910390a1505050565b60015481565b60008060015411905090565b600460205281600052604060002060205280600052604060002060009150915050806000015490806001018054600181600116156101000203166002900480601f0160208091040260200160405190810160405280929190818152602001828054600181600116156101000203166002900480156111755780601f1061114a57610100808354040283529160200191611175565b820191906000526020600020905b81548152906001019060200180831161115857829003601f168201915b505050505090806002018054600181600116156101000203166002900480601f0160208091040260200160405190810160405280929190818152602001828054600181600116156101000203166002900480156112135780601f106111e857610100808354040283529160200191611213565b820191906000526020600020905b8154815290600101906020018083116111f657829003601f168201915b505050505090806003018054600181600116156101000203166002900480601f0160208091040260200160405190810160405280929190818152602001828054600181600116156101000203166002900480156112b15780601f10611286576101008083540402835291602001916112b1565b820191906000526020600020905b81548152906001019060200180831161129457829003601f168201915b505050505090806004018054600181600116156101000203166002900480601f01602080910402602001604051908101604052809291908181526020018280546001816001161561010002031660029004801561134f5780601f106113245761010080835404028352916020019161134f565b820191906000526020600020905b81548152906001019060200180831161133257829003601f168201915b505050505090806005018054600181600116156101000203166002900480601f0160208091040260200160405190810160405280929190818152602001828054600181600116156101000203166002900480156113ed5780601f106113c2576101008083540402835291602001916113ed565b820191906000526020600020905b8154815290600101906020018083116113d057829003601f168201915b505050505090806006015490806007018054600181600116156101000203166002900480601f0160208091040260200160405190810160405280929190818152602001828054600181600116156101000203166002900480156114915780601f1061146657610100808354040283529160200191611491565b820191906000526020600020905b81548152906001019060200180831161147457829003601f168201915b5050505050908060080160009054906101000a900473ffffffffffffffffffffffffffffffffffffffff16905089565b60008651116114cf57600080fd5b60008551116114dd57600080fd5b60008451116114eb57600080fd5b600073ffffffffffffffffffffffffffffffffffffffff163373ffffffffffffffffffffffffffffffffffffffff16141561152557600080fd5b6001600081548092919060010191905055506040518061012001604052806001548152602001878152602001868152602001858152602001848152602001838152602001600081526020018281526020013373ffffffffffffffffffffffffffffffffffffffff168152506002600060015481526020019081526020016000206000820151816000015560208201518160010190805190602001906115cb929190611e78565b5060408201518160020190805190602001906115e8929190611e78565b506060820151816003019080519060200190611605929190611e78565b506080820151816004019080519060200190611622929190611e78565b5060a082015181600501908051906020019061163f929190611e78565b5060c0820151816006015560e0820151816007019080519060200190611666929190611e78565b506101008201518160080160006101000a81548173ffffffffffffffffffffffffffffffffffffffff021916908373ffffffffffffffffffffffffffffffffffffffff1602179055509050506002600060015481526020019081526020016000206003876040516116d791906122af565b90815260200160405180910390206000820154816000015560018201816001019080546001816001161561010002031660029004611716929190611f06565b506002820181600201908054600181600116156101000203166002900461173e929190611f06565b5060038201816003019080546001816001161561010002031660029004611766929190611f06565b506004820181600401908054600181600116156101000203166002900461178e929190611f06565b50600582018160050190805460018160011615610100020316600290046117b6929190611f06565b5060068201548160060155600782018160070190805460018160011615610100020316600290046117e8929190611f06565b506008820160009054906101000a900473ffffffffffffffffffffffffffffffffffffffff168160080160006101000a81548173ffffffffffffffffffffffffffffffffffffffff021916908373ffffffffffffffffffffffffffffffffffffffff160217905550905050600260006001548152602001908152602001600020600460003373ffffffffffffffffffffffffffffffffffffffff1673ffffffffffffffffffffffffffffffffffffffff1681526020019081526020016000206000600154815260200190815260200160002060008201548160000155600182018160010190805460018160011615610100020316600290046118eb929190611f06565b5060028201816002019080546001816001161561010002031660029004611913929190611f06565b506003820181600301908054600181600116156101000203166002900461193b929190611f06565b5060048201816004019080546001816001161561010002031660029004611963929190611f06565b506005820181600501908054600181600116156101000203166002900461198b929190611f06565b5060068201548160060155600782018160070190805460018160011615610100020316600290046119bd929190611f06565b506008820160009054906101000a900473ffffffffffffffffffffffffffffffffffffffff168160080160006101000a81548173ffffffffffffffffffffffffffffffffffffffff021916908373ffffffffffffffffffffffffffffffffffffffff1602179055509050507f0153ec81453e33e0065979d01918f4a33cd7e32345194768f627a7f4a6f4d7ef600154878787878760008833604051611a6a9998979695949392919061231e565b60405180910390a1505050505050565b6002602052806000526040600020600091509050806000015490806001018054600181600116156101000203166002900480601f016020809104026020016040519081016040528092919081815260200182805460018160011615610100020316600290048015611b2c5780601f10611b0157610100808354040283529160200191611b2c565b820191906000526020600020905b815481529060010190602001808311611b0f57829003601f168201915b505050505090806002018054600181600116156101000203166002900480601f016020809104026020016040519081016040528092919081815260200182805460018160011615610100020316600290048015611bca5780601f10611b9f57610100808354040283529160200191611bca565b820191906000526020600020905b815481529060010190602001808311611bad57829003601f168201915b505050505090806003018054600181600116156101000203166002900480601f016020809104026020016040519081016040528092919081815260200182805460018160011615610100020316600290048015611c685780601f10611c3d57610100808354040283529160200191611c68565b820191906000526020600020905b815481529060010190602001808311611c4b57829003601f168201915b505050505090806004018054600181600116156101000203166002900480601f016020809104026020016040519081016040528092919081815260200182805460018160011615610100020316600290048015611d065780601f10611cdb57610100808354040283529160200191611d06565b820191906000526020600020905b815481529060010190602001808311611ce957829003601f168201915b505050505090806005018054600181600116156101000203166002900480601f016020809104026020016040519081016040528092919081815260200182805460018160011615610100020316600290048015611da45780601f10611d7957610100808354040283529160200191611da4565b820191906000526020600020905b815481529060010190602001808311611d8757829003601f168201915b505050505090806006015490806007018054600181600116156101000203166002900480601f016020809104026020016040519081016040528092919081815260200182805460018160011615610100020316600290048015611e485780601f10611e1d57610100808354040283529160200191611e48565b820191906000526020600020905b815481529060010190602001808311611e2b57829003601f168201915b5050505050908060080160009054906101000a900473ffffffffffffffffffffffffffffffffffffffff16905089565b828054600181600116156101000203166002900490600052602060002090601f016020900481019282611eae5760008555611ef5565b82601f10611ec757805160ff1916838001178555611ef5565b82800160010185558215611ef5579182015b82811115611ef4578251825591602001919060010190611ed9565b5b509050611f029190611f9b565b5090565b828054600181600116156101000203166002900490600052602060002090601f016020900481019282611f3c5760008555611f8a565b82601f10611f4d5780548555611f8a565b82800160010185558215611f8a57600052602060002091601f016020900482015b82811115611f89578254825591600101919060010190611f6e565b5b509050611f979190611f9b565b5090565b5b80821115611fb4576000816000905550600101611f9c565b5090565b6000611fcb611fc6846124bd565b61248c565b905082815260208101848484011115611fe357600080fd5b611fee848285612580565b509392505050565b600081359050612005816125d5565b92915050565b600082601f83011261201c57600080fd5b813561202c848260208601611fb8565b91505092915050565b600081359050612044816125ec565b92915050565b6000806040838503121561205d57600080fd5b600061206b85828601611ff6565b925050602061207c85828601612035565b9150509250929050565b60006020828403121561209857600080fd5b600082013567ffffffffffffffff8111156120b257600080fd5b6120be8482850161200b565b91505092915050565b60008060008060008060c087890312156120e057600080fd5b600087013567ffffffffffffffff8111156120fa57600080fd5b61210689828a0161200b565b965050602087013567ffffffffffffffff81111561212357600080fd5b61212f89828a0161200b565b955050604087013567ffffffffffffffff81111561214c57600080fd5b61215889828a0161200b565b945050606087013567ffffffffffffffff81111561217557600080fd5b61218189828a0161200b565b935050608087013567ffffffffffffffff81111561219e57600080fd5b6121aa89828a0161200b565b92505060a087013567ffffffffffffffff8111156121c757600080fd5b6121d389828a0161200b565b9150509295509295509295565b6000602082840312156121f257600080fd5b600061220084828501612035565b91505092915050565b61221281612526565b82525050565b61222181612538565b82525050565b6122308161256e565b82525050565b6000612241826124ed565b61224b81856124f8565b935061225b81856020860161258f565b612264816125c4565b840191505092915050565b600061227a826124ed565b6122848185612509565b935061229481856020860161258f565b80840191505092915050565b6122a981612564565b82525050565b60006122bb828461226f565b915081905092915050565b60006020820190506122db6000830184612218565b92915050565b600060208201905081810360008301526122fb8184612236565b905092915050565b600060208201905061231860008301846122a0565b92915050565b600061012082019050612334600083018c6122a0565b8181036020830152612346818b612236565b9050818103604083015261235a818a612236565b9050818103606083015261236e8189612236565b905081810360808301526123828188612236565b905081810360a08301526123968187612236565b90506123a560c0830186612227565b81810360e08301526123b78185612236565b90506123c7610100830184612209565b9a9950505050505050505050565b6000610120820190506123eb600083018c6122a0565b81810360208301526123fd818b612236565b90508181036040830152612411818a612236565b905081810360608301526124258189612236565b905081810360808301526124398188612236565b905081810360a083015261244d8187612236565b905061245c60c08301866122a0565b81810360e083015261246e8185612236565b905061247e610100830184612209565b9a9950505050505050505050565b6000604051905081810181811067ffffffffffffffff821117156124b3576124b26125c2565b5b8060405250919050565b600067ffffffffffffffff8211156124d8576124d76125c2565b5b601f19601f8301169050602081019050919050565b600081519050919050565b600082825260208201905092915050565b600081905092915050565b600061251f82612544565b9050919050565b600061253182612544565b9050919050565b60008115159050919050565b600073ffffffffffffffffffffffffffffffffffffffff82169050919050565b6000819050919050565b600061257982612564565b9050919050565b82818337600083830152505050565b60005b838110156125ad578082015181840152602081019050612592565b838111156125bc576000848401525b50505050565bfe5b6000601f19601f8301169050919050565b6125de81612514565b81146125e957600080fd5b50565b6125f581612564565b811461260057600080fd5b5056fea264697066735822122062c2aaa7b1ac78814eb10c780c1dabe15624128827f7034e984aa42d128ce81664736f6c63430007060033",
  "immutableReferences": {},
  "source": "// SPDX-License-Identifier: UNLICENSED\r\npragma solidity >=0.4.22 <0.9.0;\r\npragma abicoder v2;\r\n\r\ncontract Vimbal {\r\n    string public name = 'Vimbal';\r\n\r\n    uint256 public fileCount = 0;\r\n\r\n    mapping(uint256 => File) public files;\r\n    mapping(string => File) public filesByHash;\r\n    mapping(address => mapping(uint256 => File)) public filesByOwner;\r\n\r\n    struct File {\r\n        uint256 id;\r\n        string hash;\r\n        string title;\r\n        string authors;\r\n        string keywords;\r\n        string description;\r\n        uint256 tipAmount;\r\n        string createdAt;\r\n        address payable owner;\r\n    }\r\n\r\n    event FileCreated(\r\n        uint256 id,\r\n        string hash,\r\n        string title,\r\n        string authors,\r\n        string keywords,\r\n        string description,\r\n        uint256 tipAmount,\r\n        string createdAt,\r\n        address payable owner\r\n    );\r\n\r\n    event FileTipped(\r\n        uint256 id,\r\n        string hash,\r\n        string title,\r\n        string authors,\r\n        string keywords,\r\n        string description,\r\n        uint256 tipAmount,\r\n        string createdAt,\r\n        address payable owner\r\n    );\r\n\r\n    function uploadFile(\r\n        string memory _fileHash,\r\n        string memory _title,\r\n        string memory _authors,\r\n        string memory _keywords,\r\n        string memory _description,\r\n        string memory _createdAt\r\n    ) public {\r\n        require(bytes(_fileHash).length > 0);\r\n        require(bytes(_title).length > 0);\r\n        require(bytes(_authors).length > 0);\r\n        require(msg.sender != address(0x0));\r\n        fileCount++;\r\n\r\n        files[fileCount] = File(\r\n            fileCount,\r\n            _fileHash,\r\n            _title,\r\n            _authors,\r\n            _keywords,\r\n            _description,\r\n            0,\r\n            _createdAt,\r\n            payable(address(msg.sender))\r\n        );\r\n\r\n        filesByHash[_fileHash] = files[fileCount];\r\n        filesByOwner[msg.sender][fileCount] = files[fileCount];\r\n\r\n        emit FileCreated(\r\n            fileCount,\r\n            _fileHash,\r\n            _title,\r\n            _authors,\r\n            _keywords,\r\n            _description,\r\n            0,\r\n            _createdAt,\r\n            payable(address(msg.sender))\r\n        );\r\n    }\r\n\r\n    function tipFileOwner(uint256 _id) public payable {\r\n        require(_id > 0 && _id <= fileCount);\r\n\r\n        File memory _file = files[_id];\r\n        address payable _owner = _file.owner;\r\n        _owner.transfer(msg.value);\r\n\r\n        _file.tipAmount = _file.tipAmount + msg.value;\r\n        files[_id] = _file;\r\n\r\n        filesByHash[_file.hash] = files[fileCount];\r\n        filesByOwner[msg.sender][fileCount] = files[fileCount];\r\n\r\n        emit FileTipped(\r\n            _id,\r\n            _file.hash,\r\n            _file.title,\r\n            _file.authors,\r\n            _file.keywords,\r\n            _file.description,\r\n            _file.tipAmount,\r\n            _file.createdAt,\r\n            _file.owner\r\n        );\r\n    }\r\n\r\n    function isFileOwned() public view returns (bool) {\r\n        return fileCount > 0;\r\n    }\r\n}\r\n",
  "sourcePath": "C:/Users/chama/Documents/FYP/vimbal/contracts/Vimbal.sol",
  "compiler": {
    "name": "solc",
    "version": "0.7.6+commit.7338295f.Emscripten.clang"
  },
  "schemaVersion": "3.4.9",
  "updatedAt": "2022-08-20T09:39:59.592Z",
  "networkType": "ethereum",
  "devdoc": {
    "kind": "dev",
    "methods": {},
    "version": 1
  },
  "userdoc": {
    "kind": "user",
    "methods": {},
    "version": 1
  }
}