{
  "contractName": "Vimbal",
  "abi": [
    {
      "anonymous": false,
      "inputs": [
        {
          "indexed": false,
          "internalType": "uint256",
          "name": "id",
          "type": "uint256"
        },
        {
          "indexed": false,
          "internalType": "string",
          "name": "hash",
          "type": "string"
        },
        {
          "indexed": false,
          "internalType": "string",
          "name": "title",
          "type": "string"
        },
        {
          "indexed": false,
          "internalType": "string",
          "name": "authors",
          "type": "string"
        },
        {
          "indexed": false,
          "internalType": "string",
          "name": "keywords",
          "type": "string"
        },
        {
          "indexed": false,
          "internalType": "string",
          "name": "description",
          "type": "string"
        },
        {
          "indexed": false,
          "internalType": "uint256",
          "name": "tipAmount",
          "type": "uint256"
        },
        {
          "indexed": false,
          "internalType": "string",
          "name": "createdAt",
          "type": "string"
        },
        {
          "indexed": false,
          "internalType": "address payable",
          "name": "owner",
          "type": "address"
        }
      ],
      "name": "FileCreated",
      "type": "event"
    },
    {
      "anonymous": false,
      "inputs": [
        {
          "indexed": false,
          "internalType": "uint256",
          "name": "id",
          "type": "uint256"
        },
        {
          "indexed": false,
          "internalType": "string",
          "name": "hash",
          "type": "string"
        },
        {
          "indexed": false,
          "internalType": "string",
          "name": "title",
          "type": "string"
        },
        {
          "indexed": false,
          "internalType": "string",
          "name": "authors",
          "type": "string"
        },
        {
          "indexed": false,
          "internalType": "string",
          "name": "keywords",
          "type": "string"
        },
        {
          "indexed": false,
          "internalType": "string",
          "name": "description",
          "type": "string"
        },
        {
          "indexed": false,
          "internalType": "uint256",
          "name": "tipAmount",
          "type": "uint256"
        },
        {
          "indexed": false,
          "internalType": "string",
          "name": "createdAt",
          "type": "string"
        },
        {
          "indexed": false,
          "internalType": "address payable",
          "name": "owner",
          "type": "address"
        }
      ],
      "name": "FileTipped",
      "type": "event"
    },
    {
      "inputs": [],
      "name": "fileCount",
      "outputs": [
        {
          "internalType": "uint256",
          "name": "",
          "type": "uint256"
        }
      ],
      "stateMutability": "view",
      "type": "function",
      "constant": true
    },
    {
      "inputs": [
        {
          "internalType": "uint256",
          "name": "",
          "type": "uint256"
        }
      ],
      "name": "files",
      "outputs": [
        {
          "internalType": "uint256",
          "name": "id",
          "type": "uint256"
        },
        {
          "internalType": "string",
          "name": "hash",
          "type": "string"
        },
        {
          "internalType": "string",
          "name": "title",
          "type": "string"
        },
        {
          "internalType": "string",
          "name": "authors",
          "type": "string"
        },
        {
          "internalType": "string",
          "name": "keywords",
          "type": "string"
        },
        {
          "internalType": "string",
          "name": "description",
          "type": "string"
        },
        {
          "internalType": "uint256",
          "name": "tipAmount",
          "type": "uint256"
        },
        {
          "internalType": "string",
          "name": "createdAt",
          "type": "string"
        },
        {
          "internalType": "address payable",
          "name": "owner",
          "type": "address"
        }
      ],
      "stateMutability": "view",
      "type": "function",
      "constant": true
    },
    {
      "inputs": [
        {
          "internalType": "string",
          "name": "",
          "type": "string"
        }
      ],
      "name": "filesByHash",
      "outputs": [
        {
          "internalType": "uint256",
          "name": "id",
          "type": "uint256"
        },
        {
          "internalType": "string",
          "name": "hash",
          "type": "string"
        },
        {
          "internalType": "string",
          "name": "title",
          "type": "string"
        },
        {
          "internalType": "string",
          "name": "authors",
          "type": "string"
        },
        {
          "internalType": "string",
          "name": "keywords",
          "type": "string"
        },
        {
          "internalType": "string",
          "name": "description",
          "type": "string"
        },
        {
          "internalType": "uint256",
          "name": "tipAmount",
          "type": "uint256"
        },
        {
          "internalType": "string",
          "name": "createdAt",
          "type": "string"
        },
        {
          "internalType": "address payable",
          "name": "owner",
          "type": "address"
        }
      ],
      "stateMutability": "view",
      "type": "function",
      "constant": true
    },
    {
      "inputs": [
        {
          "internalType": "address",
          "name": "",
          "type": "address"
        },
        {
          "internalType": "uint256",
          "name": "",
          "type": "uint256"
        }
      ],
      "name": "filesByOwner",
      "outputs": [
        {
          "internalType": "uint256",
          "name": "id",
          "type": "uint256"
        },
        {
          "internalType": "string",
          "name": "hash",
          "type": "string"
        },
        {
          "internalType": "string",
          "name": "title",
          "type": "string"
        },
        {
          "internalType": "string",
          "name": "authors",
          "type": "string"
        },
        {
          "internalType": "string",
          "name": "keywords",
          "type": "string"
        },
        {
          "internalType": "string",
          "name": "description",
          "type": "string"
        },
        {
          "internalType": "uint256",
          "name": "tipAmount",
          "type": "uint256"
        },
        {
          "internalType": "string",
          "name": "createdAt",
          "type": "string"
        },
        {
          "internalType": "address payable",
          "name": "owner",
          "type": "address"
        }
      ],
      "stateMutability": "view",
      "type": "function",
      "constant": true
    },
    {
      "inputs": [],
      "name": "name",
      "outputs": [
        {
          "internalType": "string",
          "name": "",
          "type": "string"
        }
      ],
      "stateMutability": "view",
      "type": "function",
      "constant": true
    },
    {
      "inputs": [
        {
          "internalType": "string",
          "name": "_fileHash",
          "type": "string"
        },
        {
          "internalType": "string",
          "name": "_title",
          "type": "string"
        },
        {
          "internalType": "string",
          "name": "_authors",
          "type": "string"
        },
        {
          "internalType": "string",
          "name": "_keywords",
          "type": "string"
        },
        {
          "internalType": "string",
          "name": "_description",
          "type": "string"
        },
        {
          "internalType": "string",
          "name": "_createdAt",
          "type": "string"
        }
      ],
      "name": "uploadFile",
      "outputs": [],
      "stateMutability": "nonpayable",
      "type": "function"
    },
    {
      "inputs": [
        {
          "internalType": "uint256",
          "name": "_id",
          "type": "uint256"
        }
      ],
      "name": "tipFileOwner",
      "outputs": [],
      "stateMutability": "payable",
      "type": "function",
      "payable": true
    },
    {
      "inputs": [
        {
          "internalType": "string",
          "name": "fileHash",
          "type": "string"
        }
      ],
      "name": "isFileOwned",
      "outputs": [
        {
          "internalType": "bool",
          "name": "",
          "type": "bool"
        }
      ],
      "stateMutability": "view",
      "type": "function",
      "constant": true
    }
  ],
  "bytecode": "0x60806040526040518060400160405280600681526020017f56696d62616c000000000000000000000000000000000000000000000000000081525060009080519060200190620000519291906200006b565b5060006001553480156200006457600080fd5b5062000121565b828054600181600116156101000203166002900490600052602060002090601f016020900481019282620000a35760008555620000ef565b82601f10620000be57805160ff1916838001178555620000ef565b82800160010185558215620000ef579182015b82811115620000ee578251825591602001919060010190620000d1565b5b509050620000fe919062000102565b5090565b5b808211156200011d57600081600090555060010162000103565b5090565b61268e80620001316000396000f3fe60806040526004361061007b5760003560e01c8063b85444931161004e578063b854449314610137578063bb5806b71461017c578063f4c714b4146101a5578063fd60c0fe146101ea5761007b565b80630160baf71461008057806306fdde03146100c5578063182cb8b2146100f0578063439535191461010c575b600080fd5b34801561008c57600080fd5b506100a760048036038101906100a291906120db565b610227565b6040516100bc9998979695949392919061242a565b60405180910390f35b3480156100d157600080fd5b506100da61063b565b6040516100e79190612336565b60405180910390f35b61010a60048036038101906101059190612235565b6106d9565b005b34801561011857600080fd5b506101216110b6565b60405161012e9190612358565b60405180910390f35b34801561014357600080fd5b5061015e6004803603810190610159919061209f565b6110bc565b6040516101739998979695949392919061242a565b60405180910390f35b34801561018857600080fd5b506101a3600480360381019061019e919061211c565b6114c7565b005b3480156101b157600080fd5b506101cc60048036038101906101c79190612235565b611a80565b6040516101e19998979695949392919061242a565b60405180910390f35b3480156101f657600080fd5b50610211600480360381019061020c91906120db565b611e7e565b60405161021e919061231b565b60405180910390f35b600381805160208101820180518482526020830160208501208183528095505050505050600091509050806000015490806001018054600181600116156101000203166002900480601f0160208091040260200160405190810160405280929190818152602001828054600181600116156101000203166002900480156102ef5780601f106102c4576101008083540402835291602001916102ef565b820191906000526020600020905b8154815290600101906020018083116102d257829003601f168201915b505050505090806002018054600181600116156101000203166002900480601f01602080910402602001604051908101604052809291908181526020018280546001816001161561010002031660029004801561038d5780601f106103625761010080835404028352916020019161038d565b820191906000526020600020905b81548152906001019060200180831161037057829003601f168201915b505050505090806003018054600181600116156101000203166002900480601f01602080910402602001604051908101604052809291908181526020018280546001816001161561010002031660029004801561042b5780601f106104005761010080835404028352916020019161042b565b820191906000526020600020905b81548152906001019060200180831161040e57829003601f168201915b505050505090806004018054600181600116156101000203166002900480601f0160208091040260200160405190810160405280929190818152602001828054600181600116156101000203166002900480156104c95780601f1061049e576101008083540402835291602001916104c9565b820191906000526020600020905b8154815290600101906020018083116104ac57829003601f168201915b505050505090806005018054600181600116156101000203166002900480601f0160208091040260200160405190810160405280929190818152602001828054600181600116156101000203166002900480156105675780601f1061053c57610100808354040283529160200191610567565b820191906000526020600020905b81548152906001019060200180831161054a57829003601f168201915b505050505090806006015490806007018054600181600116156101000203166002900480601f01602080910402602001604051908101604052809291908181526020018280546001816001161561010002031660029004801561060b5780601f106105e05761010080835404028352916020019161060b565b820191906000526020600020905b8154815290600101906020018083116105ee57829003601f168201915b5050505050908060080160009054906101000a900473ffffffffffffffffffffffffffffffffffffffff16905089565b60008054600181600116156101000203166002900480601f0160208091040260200160405190810160405280929190818152602001828054600181600116156101000203166002900480156106d15780601f106106a6576101008083540402835291602001916106d1565b820191906000526020600020905b8154815290600101906020018083116106b457829003601f168201915b505050505081565b6000811180156106eb57506001548111155b6106f457600080fd5b6000600260008381526020019081526020016000206040518061012001604052908160008201548152602001600182018054600181600116156101000203166002900480601f0160208091040260200160405190810160405280929190818152602001828054600181600116156101000203166002900480156107b85780601f1061078d576101008083540402835291602001916107b8565b820191906000526020600020905b81548152906001019060200180831161079b57829003601f168201915b50505050508152602001600282018054600181600116156101000203166002900480601f01602080910402602001604051908101604052809291908181526020018280546001816001161561010002031660029004801561085a5780601f1061082f5761010080835404028352916020019161085a565b820191906000526020600020905b81548152906001019060200180831161083d57829003601f168201915b50505050508152602001600382018054600181600116156101000203166002900480601f0160208091040260200160405190810160405280929190818152602001828054600181600116156101000203166002900480156108fc5780601f106108d1576101008083540402835291602001916108fc565b820191906000526020600020905b8154815290600101906020018083116108df57829003601f168201915b50505050508152602001600482018054600181600116156101000203166002900480601f01602080910402602001604051908101604052809291908181526020018280546001816001161561010002031660029004801561099e5780601f106109735761010080835404028352916020019161099e565b820191906000526020600020905b81548152906001019060200180831161098157829003601f168201915b50505050508152602001600582018054600181600116156101000203166002900480601f016020809104026020016040519081016040528092919081815260200182805460018160011615610100020316600290048015610a405780601f10610a1557610100808354040283529160200191610a40565b820191906000526020600020905b815481529060010190602001808311610a2357829003601f168201915b5050505050815260200160068201548152602001600782018054600181600116156101000203166002900480601f016020809104026020016040519081016040528092919081815260200182805460018160011615610100020316600290048015610aec5780601f10610ac157610100808354040283529160200191610aec565b820191906000526020600020905b815481529060010190602001808311610acf57829003601f168201915b505050505081526020016008820160009054906101000a900473ffffffffffffffffffffffffffffffffffffffff1673ffffffffffffffffffffffffffffffffffffffff1673ffffffffffffffffffffffffffffffffffffffff16815250509050600081610100015190508073ffffffffffffffffffffffffffffffffffffffff166108fc349081150290604051600060405180830381858888f19350505050158015610b9d573d6000803e3d6000fd5b50348260c00151018260c00181815250508160026000858152602001908152602001600020600082015181600001556020820151816001019080519060200190610be8929190611ecd565b506040820151816002019080519060200190610c05929190611ecd565b506060820151816003019080519060200190610c22929190611ecd565b506080820151816004019080519060200190610c3f929190611ecd565b5060a0820151816005019080519060200190610c5c929190611ecd565b5060c0820151816006015560e0820151816007019080519060200190610c83929190611ecd565b506101008201518160080160006101000a81548173ffffffffffffffffffffffffffffffffffffffff021916908373ffffffffffffffffffffffffffffffffffffffff16021790555090505060026000600154815260200190815260200160002060038360200151604051610cf89190612304565b90815260200160405180910390206000820154816000015560018201816001019080546001816001161561010002031660029004610d37929190611f5b565b5060028201816002019080546001816001161561010002031660029004610d5f929190611f5b565b5060038201816003019080546001816001161561010002031660029004610d87929190611f5b565b5060048201816004019080546001816001161561010002031660029004610daf929190611f5b565b5060058201816005019080546001816001161561010002031660029004610dd7929190611f5b565b506006820154816006015560078201816007019080546001816001161561010002031660029004610e09929190611f5b565b506008820160009054906101000a900473ffffffffffffffffffffffffffffffffffffffff168160080160006101000a81548173ffffffffffffffffffffffffffffffffffffffff021916908373ffffffffffffffffffffffffffffffffffffffff160217905550905050600260006001548152602001908152602001600020600460003373ffffffffffffffffffffffffffffffffffffffff1673ffffffffffffffffffffffffffffffffffffffff168152602001908152602001600020600060015481526020019081526020016000206000820154816000015560018201816001019080546001816001161561010002031660029004610f0c929190611f5b565b5060028201816002019080546001816001161561010002031660029004610f34929190611f5b565b5060038201816003019080546001816001161561010002031660029004610f5c929190611f5b565b5060048201816004019080546001816001161561010002031660029004610f84929190611f5b565b5060058201816005019080546001816001161561010002031660029004610fac929190611f5b565b506006820154816006015560078201816007019080546001816001161561010002031660029004610fde929190611f5b565b506008820160009054906101000a900473ffffffffffffffffffffffffffffffffffffffff168160080160006101000a81548173ffffffffffffffffffffffffffffffffffffffff021916908373ffffffffffffffffffffffffffffffffffffffff1602179055509050507f4664ec3eb6e76b2502221e7f43d8ff1ca52d4341e47c79153fe35e72056f57378383602001518460400151856060015186608001518760a001518860c001518960e001518a61010001516040516110a99998979695949392919061242a565b60405180910390a1505050565b60015481565b600460205281600052604060002060205280600052604060002060009150915050806000015490806001018054600181600116156101000203166002900480601f01602080910402602001604051908101604052809291908181526020018280546001816001161561010002031660029004801561117b5780601f106111505761010080835404028352916020019161117b565b820191906000526020600020905b81548152906001019060200180831161115e57829003601f168201915b505050505090806002018054600181600116156101000203166002900480601f0160208091040260200160405190810160405280929190818152602001828054600181600116156101000203166002900480156112195780601f106111ee57610100808354040283529160200191611219565b820191906000526020600020905b8154815290600101906020018083116111fc57829003601f168201915b505050505090806003018054600181600116156101000203166002900480601f0160208091040260200160405190810160405280929190818152602001828054600181600116156101000203166002900480156112b75780601f1061128c576101008083540402835291602001916112b7565b820191906000526020600020905b81548152906001019060200180831161129a57829003601f168201915b505050505090806004018054600181600116156101000203166002900480601f0160208091040260200160405190810160405280929190818152602001828054600181600116156101000203166002900480156113555780601f1061132a57610100808354040283529160200191611355565b820191906000526020600020905b81548152906001019060200180831161133857829003601f168201915b505050505090806005018054600181600116156101000203166002900480601f0160208091040260200160405190810160405280929190818152602001828054600181600116156101000203166002900480156113f35780601f106113c8576101008083540402835291602001916113f3565b820191906000526020600020905b8154815290600101906020018083116113d657829003601f168201915b505050505090806006015490806007018054600181600116156101000203166002900480601f0160208091040260200160405190810160405280929190818152602001828054600181600116156101000203166002900480156114975780601f1061146c57610100808354040283529160200191611497565b820191906000526020600020905b81548152906001019060200180831161147a57829003601f168201915b5050505050908060080160009054906101000a900473ffffffffffffffffffffffffffffffffffffffff16905089565b60008651116114d557600080fd5b60008551116114e357600080fd5b60008451116114f157600080fd5b600073ffffffffffffffffffffffffffffffffffffffff163373ffffffffffffffffffffffffffffffffffffffff16141561152b57600080fd5b6001600081548092919060010191905055506040518061012001604052806001548152602001878152602001868152602001858152602001848152602001838152602001600081526020018281526020013373ffffffffffffffffffffffffffffffffffffffff168152506002600060015481526020019081526020016000206000820151816000015560208201518160010190805190602001906115d1929190611ecd565b5060408201518160020190805190602001906115ee929190611ecd565b50606082015181600301908051906020019061160b929190611ecd565b506080820151816004019080519060200190611628929190611ecd565b5060a0820151816005019080519060200190611645929190611ecd565b5060c0820151816006015560e082015181600701908051906020019061166c929190611ecd565b506101008201518160080160006101000a81548173ffffffffffffffffffffffffffffffffffffffff021916908373ffffffffffffffffffffffffffffffffffffffff1602179055509050506002600060015481526020019081526020016000206003876040516116dd9190612304565b9081526020016040518091039020600082015481600001556001820181600101908054600181600116156101000203166002900461171c929190611f5b565b5060028201816002019080546001816001161561010002031660029004611744929190611f5b565b506003820181600301908054600181600116156101000203166002900461176c929190611f5b565b5060048201816004019080546001816001161561010002031660029004611794929190611f5b565b50600582018160050190805460018160011615610100020316600290046117bc929190611f5b565b5060068201548160060155600782018160070190805460018160011615610100020316600290046117ee929190611f5b565b506008820160009054906101000a900473ffffffffffffffffffffffffffffffffffffffff168160080160006101000a81548173ffffffffffffffffffffffffffffffffffffffff021916908373ffffffffffffffffffffffffffffffffffffffff160217905550905050600260006001548152602001908152602001600020600460003373ffffffffffffffffffffffffffffffffffffffff1673ffffffffffffffffffffffffffffffffffffffff1681526020019081526020016000206000600154815260200190815260200160002060008201548160000155600182018160010190805460018160011615610100020316600290046118f1929190611f5b565b5060028201816002019080546001816001161561010002031660029004611919929190611f5b565b5060038201816003019080546001816001161561010002031660029004611941929190611f5b565b5060048201816004019080546001816001161561010002031660029004611969929190611f5b565b5060058201816005019080546001816001161561010002031660029004611991929190611f5b565b5060068201548160060155600782018160070190805460018160011615610100020316600290046119c3929190611f5b565b506008820160009054906101000a900473ffffffffffffffffffffffffffffffffffffffff168160080160006101000a81548173ffffffffffffffffffffffffffffffffffffffff021916908373ffffffffffffffffffffffffffffffffffffffff1602179055509050507f0153ec81453e33e0065979d01918f4a33cd7e32345194768f627a7f4a6f4d7ef600154878787878760008833604051611a7099989796959493929190612373565b60405180910390a1505050505050565b6002602052806000526040600020600091509050806000015490806001018054600181600116156101000203166002900480601f016020809104026020016040519081016040528092919081815260200182805460018160011615610100020316600290048015611b325780601f10611b0757610100808354040283529160200191611b32565b820191906000526020600020905b815481529060010190602001808311611b1557829003601f168201915b505050505090806002018054600181600116156101000203166002900480601f016020809104026020016040519081016040528092919081815260200182805460018160011615610100020316600290048015611bd05780601f10611ba557610100808354040283529160200191611bd0565b820191906000526020600020905b815481529060010190602001808311611bb357829003601f168201915b505050505090806003018054600181600116156101000203166002900480601f016020809104026020016040519081016040528092919081815260200182805460018160011615610100020316600290048015611c6e5780601f10611c4357610100808354040283529160200191611c6e565b820191906000526020600020905b815481529060010190602001808311611c5157829003601f168201915b505050505090806004018054600181600116156101000203166002900480601f016020809104026020016040519081016040528092919081815260200182805460018160011615610100020316600290048015611d0c5780601f10611ce157610100808354040283529160200191611d0c565b820191906000526020600020905b815481529060010190602001808311611cef57829003601f168201915b505050505090806005018054600181600116156101000203166002900480601f016020809104026020016040519081016040528092919081815260200182805460018160011615610100020316600290048015611daa5780601f10611d7f57610100808354040283529160200191611daa565b820191906000526020600020905b815481529060010190602001808311611d8d57829003601f168201915b505050505090806006015490806007018054600181600116156101000203166002900480601f016020809104026020016040519081016040528092919081815260200182805460018160011615610100020316600290048015611e4e5780601f10611e2357610100808354040283529160200191611e4e565b820191906000526020600020905b815481529060010190602001808311611e3157829003601f168201915b5050505050908060080160009054906101000a900473ffffffffffffffffffffffffffffffffffffffff16905089565b600080600154118015611ec657506000600383604051611e9e9190612304565b9081526020016040518091039020600101805460018160011615610100020316600290049050115b9050919050565b828054600181600116156101000203166002900490600052602060002090601f016020900481019282611f035760008555611f4a565b82601f10611f1c57805160ff1916838001178555611f4a565b82800160010185558215611f4a579182015b82811115611f49578251825591602001919060010190611f2e565b5b509050611f579190611ff0565b5090565b828054600181600116156101000203166002900490600052602060002090601f016020900481019282611f915760008555611fdf565b82601f10611fa25780548555611fdf565b82800160010185558215611fdf57600052602060002091601f016020900482015b82811115611fde578254825591600101919060010190611fc3565b5b509050611fec9190611ff0565b5090565b5b80821115612009576000816000905550600101611ff1565b5090565b600061202061201b84612512565b6124e1565b90508281526020810184848401111561203857600080fd5b6120438482856125d5565b509392505050565b60008135905061205a8161262a565b92915050565b600082601f83011261207157600080fd5b813561208184826020860161200d565b91505092915050565b60008135905061209981612641565b92915050565b600080604083850312156120b257600080fd5b60006120c08582860161204b565b92505060206120d18582860161208a565b9150509250929050565b6000602082840312156120ed57600080fd5b600082013567ffffffffffffffff81111561210757600080fd5b61211384828501612060565b91505092915050565b60008060008060008060c0878903121561213557600080fd5b600087013567ffffffffffffffff81111561214f57600080fd5b61215b89828a01612060565b965050602087013567ffffffffffffffff81111561217857600080fd5b61218489828a01612060565b955050604087013567ffffffffffffffff8111156121a157600080fd5b6121ad89828a01612060565b945050606087013567ffffffffffffffff8111156121ca57600080fd5b6121d689828a01612060565b935050608087013567ffffffffffffffff8111156121f357600080fd5b6121ff89828a01612060565b92505060a087013567ffffffffffffffff81111561221c57600080fd5b61222889828a01612060565b9150509295509295509295565b60006020828403121561224757600080fd5b60006122558482850161208a565b91505092915050565b6122678161257b565b82525050565b6122768161258d565b82525050565b612285816125c3565b82525050565b600061229682612542565b6122a0818561254d565b93506122b08185602086016125e4565b6122b981612619565b840191505092915050565b60006122cf82612542565b6122d9818561255e565b93506122e98185602086016125e4565b80840191505092915050565b6122fe816125b9565b82525050565b600061231082846122c4565b915081905092915050565b6000602082019050612330600083018461226d565b92915050565b60006020820190508181036000830152612350818461228b565b905092915050565b600060208201905061236d60008301846122f5565b92915050565b600061012082019050612389600083018c6122f5565b818103602083015261239b818b61228b565b905081810360408301526123af818a61228b565b905081810360608301526123c3818961228b565b905081810360808301526123d7818861228b565b905081810360a08301526123eb818761228b565b90506123fa60c083018661227c565b81810360e083015261240c818561228b565b905061241c61010083018461225e565b9a9950505050505050505050565b600061012082019050612440600083018c6122f5565b8181036020830152612452818b61228b565b90508181036040830152612466818a61228b565b9050818103606083015261247a818961228b565b9050818103608083015261248e818861228b565b905081810360a08301526124a2818761228b565b90506124b160c08301866122f5565b81810360e08301526124c3818561228b565b90506124d361010083018461225e565b9a9950505050505050505050565b6000604051905081810181811067ffffffffffffffff8211171561250857612507612617565b5b8060405250919050565b600067ffffffffffffffff82111561252d5761252c612617565b5b601f19601f8301169050602081019050919050565b600081519050919050565b600082825260208201905092915050565b600081905092915050565b600061257482612599565b9050919050565b600061258682612599565b9050919050565b60008115159050919050565b600073ffffffffffffffffffffffffffffffffffffffff82169050919050565b6000819050919050565b60006125ce826125b9565b9050919050565b82818337600083830152505050565b60005b838110156126025780820151818401526020810190506125e7565b83811115612611576000848401525b50505050565bfe5b6000601f19601f8301169050919050565b61263381612569565b811461263e57600080fd5b50565b61264a816125b9565b811461265557600080fd5b5056fea264697066735822122042bde2d62b9a2569bb3a1b90dd80389a09c5db8e8a0abbef979d023c84f2388f64736f6c63430007060033",
  "immutableReferences": {},
  "source": "// SPDX-License-Identifier: UNLICENSED\r\npragma solidity >=0.4.22 <0.9.0;\r\npragma abicoder v2;\r\n\r\ncontract Vimbal {\r\n    string public name = 'Vimbal';\r\n\r\n    uint256 public fileCount = 0;\r\n\r\n    mapping(uint256 => File) public files;\r\n    mapping(string => File) public filesByHash;\r\n    mapping(address => mapping(uint256 => File)) public filesByOwner;\r\n\r\n    struct File {\r\n        uint256 id;\r\n        string hash;\r\n        string title;\r\n        string authors;\r\n        string keywords;\r\n        string description;\r\n        uint256 tipAmount;\r\n        string createdAt;\r\n        address payable owner;\r\n    }\r\n\r\n    event FileCreated(\r\n        uint256 id,\r\n        string hash,\r\n        string title,\r\n        string authors,\r\n        string keywords,\r\n        string description,\r\n        uint256 tipAmount,\r\n        string createdAt,\r\n        address payable owner\r\n    );\r\n\r\n    event FileTipped(\r\n        uint256 id,\r\n        string hash,\r\n        string title,\r\n        string authors,\r\n        string keywords,\r\n        string description,\r\n        uint256 tipAmount,\r\n        string createdAt,\r\n        address payable owner\r\n    );\r\n\r\n    function uploadFile(\r\n        string memory _fileHash,\r\n        string memory _title,\r\n        string memory _authors,\r\n        string memory _keywords,\r\n        string memory _description,\r\n        string memory _createdAt\r\n    ) public {\r\n        require(bytes(_fileHash).length > 0);\r\n        require(bytes(_title).length > 0);\r\n        require(bytes(_authors).length > 0);\r\n        require(msg.sender != address(0x0));\r\n        fileCount++;\r\n\r\n        files[fileCount] = File(\r\n            fileCount,\r\n            _fileHash,\r\n            _title,\r\n            _authors,\r\n            _keywords,\r\n            _description,\r\n            0,\r\n            _createdAt,\r\n            payable(address(msg.sender))\r\n        );\r\n\r\n        filesByHash[_fileHash] = files[fileCount];\r\n        filesByOwner[msg.sender][fileCount] = files[fileCount];\r\n\r\n        emit FileCreated(\r\n            fileCount,\r\n            _fileHash,\r\n            _title,\r\n            _authors,\r\n            _keywords,\r\n            _description,\r\n            0,\r\n            _createdAt,\r\n            payable(address(msg.sender))\r\n        );\r\n    }\r\n\r\n    function tipFileOwner(uint256 _id) public payable {\r\n        require(_id > 0 && _id <= fileCount);\r\n\r\n        File memory _file = files[_id];\r\n        address payable _owner = _file.owner;\r\n        _owner.transfer(msg.value);\r\n\r\n        _file.tipAmount = _file.tipAmount + msg.value;\r\n        files[_id] = _file;\r\n\r\n        filesByHash[_file.hash] = files[fileCount];\r\n        filesByOwner[msg.sender][fileCount] = files[fileCount];\r\n\r\n        emit FileTipped(\r\n            _id,\r\n            _file.hash,\r\n            _file.title,\r\n            _file.authors,\r\n            _file.keywords,\r\n            _file.description,\r\n            _file.tipAmount,\r\n            _file.createdAt,\r\n            _file.owner\r\n        );\r\n    }\r\n\r\n    function isFileOwned(string memory fileHash) public view returns (bool) {\r\n        return fileCount > 0 && bytes(filesByHash[fileHash].hash).length > 0;\r\n    }\r\n}\r\n",
  "sourcePath": "C:/Users/chama/Documents/Production/vimbal/contracts/Vimbal.sol",
  "compiler": {
    "name": "solc",
    "version": "0.7.6+commit.7338295f.Emscripten.clang"
  },
  "schemaVersion": "3.3.3",
  "updatedAt": "2022-04-29T15:33:27.818Z",
  "networkType": "ethereum",
  "devdoc": {
    "kind": "dev",
    "methods": {},
    "version": 1
  },
  "userdoc": {
    "kind": "user",
    "methods": {},
    "version": 1
  }
}