{
  "contractName": "Vimbal",
  "abi": [
    {
      "anonymous": false,
      "inputs": [
        {
          "indexed": false,
          "internalType": "uint256",
          "name": "id",
          "type": "uint256"
        },
        {
          "indexed": false,
          "internalType": "string",
          "name": "hash",
          "type": "string"
        },
        {
          "indexed": false,
          "internalType": "string",
          "name": "title",
          "type": "string"
        },
        {
          "indexed": false,
          "internalType": "string",
          "name": "authors",
          "type": "string"
        },
        {
          "indexed": false,
          "internalType": "string",
          "name": "keywords",
          "type": "string"
        },
        {
          "indexed": false,
          "internalType": "string",
          "name": "description",
          "type": "string"
        },
        {
          "indexed": false,
          "internalType": "uint256",
          "name": "tipAmount",
          "type": "uint256"
        },
        {
          "indexed": false,
          "internalType": "address payable",
          "name": "owner",
          "type": "address"
        }
      ],
      "name": "FileCreated",
      "type": "event"
    },
    {
      "anonymous": false,
      "inputs": [
        {
          "indexed": false,
          "internalType": "uint256",
          "name": "id",
          "type": "uint256"
        },
        {
          "indexed": false,
          "internalType": "string",
          "name": "hash",
          "type": "string"
        },
        {
          "indexed": false,
          "internalType": "string",
          "name": "title",
          "type": "string"
        },
        {
          "indexed": false,
          "internalType": "string",
          "name": "authors",
          "type": "string"
        },
        {
          "indexed": false,
          "internalType": "string",
          "name": "keywords",
          "type": "string"
        },
        {
          "indexed": false,
          "internalType": "string",
          "name": "description",
          "type": "string"
        },
        {
          "indexed": false,
          "internalType": "uint256",
          "name": "tipAmount",
          "type": "uint256"
        },
        {
          "indexed": false,
          "internalType": "address payable",
          "name": "owner",
          "type": "address"
        }
      ],
      "name": "FileTipped",
      "type": "event"
    },
    {
      "inputs": [],
      "name": "fileCount",
      "outputs": [
        {
          "internalType": "uint256",
          "name": "",
          "type": "uint256"
        }
      ],
      "stateMutability": "view",
      "type": "function",
      "constant": true
    },
    {
      "inputs": [
        {
          "internalType": "uint256",
          "name": "",
          "type": "uint256"
        }
      ],
      "name": "files",
      "outputs": [
        {
          "internalType": "uint256",
          "name": "id",
          "type": "uint256"
        },
        {
          "internalType": "string",
          "name": "hash",
          "type": "string"
        },
        {
          "internalType": "string",
          "name": "title",
          "type": "string"
        },
        {
          "internalType": "string",
          "name": "authors",
          "type": "string"
        },
        {
          "internalType": "string",
          "name": "keywords",
          "type": "string"
        },
        {
          "internalType": "string",
          "name": "description",
          "type": "string"
        },
        {
          "internalType": "uint256",
          "name": "tipAmount",
          "type": "uint256"
        },
        {
          "internalType": "address payable",
          "name": "owner",
          "type": "address"
        }
      ],
      "stateMutability": "view",
      "type": "function",
      "constant": true
    },
    {
      "inputs": [
        {
          "internalType": "string",
          "name": "",
          "type": "string"
        }
      ],
      "name": "filesByHash",
      "outputs": [
        {
          "internalType": "uint256",
          "name": "id",
          "type": "uint256"
        },
        {
          "internalType": "string",
          "name": "hash",
          "type": "string"
        },
        {
          "internalType": "string",
          "name": "title",
          "type": "string"
        },
        {
          "internalType": "string",
          "name": "authors",
          "type": "string"
        },
        {
          "internalType": "string",
          "name": "keywords",
          "type": "string"
        },
        {
          "internalType": "string",
          "name": "description",
          "type": "string"
        },
        {
          "internalType": "uint256",
          "name": "tipAmount",
          "type": "uint256"
        },
        {
          "internalType": "address payable",
          "name": "owner",
          "type": "address"
        }
      ],
      "stateMutability": "view",
      "type": "function",
      "constant": true
    },
    {
      "inputs": [],
      "name": "name",
      "outputs": [
        {
          "internalType": "string",
          "name": "",
          "type": "string"
        }
      ],
      "stateMutability": "view",
      "type": "function",
      "constant": true
    },
    {
      "inputs": [
        {
          "internalType": "string",
          "name": "_fileHash",
          "type": "string"
        },
        {
          "internalType": "string",
          "name": "_title",
          "type": "string"
        },
        {
          "internalType": "string",
          "name": "_authors",
          "type": "string"
        },
        {
          "internalType": "string",
          "name": "_keywords",
          "type": "string"
        },
        {
          "internalType": "string",
          "name": "_description",
          "type": "string"
        }
      ],
      "name": "uploadFile",
      "outputs": [],
      "stateMutability": "nonpayable",
      "type": "function"
    },
    {
      "inputs": [
        {
          "internalType": "uint256",
          "name": "_id",
          "type": "uint256"
        }
      ],
      "name": "tipFileOwner",
      "outputs": [],
      "stateMutability": "payable",
      "type": "function",
      "payable": true
    },
    {
      "inputs": [
        {
          "internalType": "string",
          "name": "fileHash",
          "type": "string"
        }
      ],
      "name": "isFileOwned",
      "outputs": [
        {
          "internalType": "bool",
          "name": "",
          "type": "bool"
        }
      ],
      "stateMutability": "view",
      "type": "function",
      "constant": true
    }
  ],
  "bytecode": "0x60806040526040518060400160405280600681526020017f56696d62616c000000000000000000000000000000000000000000000000000081525060009080519060200190620000519291906200006b565b5060006001553480156200006457600080fd5b5062000121565b828054600181600116156101000203166002900490600052602060002090601f016020900481019282620000a35760008555620000ef565b82601f10620000be57805160ff1916838001178555620000ef565b82800160010185558215620000ef579182015b82811115620000ee578251825591602001919060010190620000d1565b5b509050620000fe919062000102565b5090565b5b808211156200011d57600081600090555060010162000103565b5090565b611b3c80620001316000396000f3fe6080604052600436106100705760003560e01c8063439535191161004e5780634395351914610100578063ef8b38391461012b578063f4c714b414610154578063fd60c0fe1461019857610070565b80630160baf71461007557806306fdde03146100b9578063182cb8b2146100e4575b600080fd5b34801561008157600080fd5b5061009c60048036038101906100979190611608565b6101d5565b6040516100b0989796959493929190611917565b60405180910390f35b3480156100c557600080fd5b506100ce61054b565b6040516100db9190611839565b60405180910390f35b6100fe60048036038101906100f99190611738565b6105e9565b005b34801561010c57600080fd5b50610115610d01565b604051610122919061185b565b60405180910390f35b34801561013757600080fd5b50610152600480360381019061014d9190611649565b610d07565b005b34801561016057600080fd5b5061017b60048036038101906101769190611738565b61109c565b60405161018f989796959493929190611917565b60405180910390f35b3480156101a457600080fd5b506101bf60048036038101906101ba9190611608565b6113fc565b6040516101cc919061181e565b60405180910390f35b600381805160208101820180518482526020830160208501208183528095505050505050600091509050806000015490806001018054600181600116156101000203166002900480601f01602080910402602001604051908101604052809291908181526020018280546001816001161561010002031660029004801561029d5780601f106102725761010080835404028352916020019161029d565b820191906000526020600020905b81548152906001019060200180831161028057829003601f168201915b505050505090806002018054600181600116156101000203166002900480601f01602080910402602001604051908101604052809291908181526020018280546001816001161561010002031660029004801561033b5780601f106103105761010080835404028352916020019161033b565b820191906000526020600020905b81548152906001019060200180831161031e57829003601f168201915b505050505090806003018054600181600116156101000203166002900480601f0160208091040260200160405190810160405280929190818152602001828054600181600116156101000203166002900480156103d95780601f106103ae576101008083540402835291602001916103d9565b820191906000526020600020905b8154815290600101906020018083116103bc57829003601f168201915b505050505090806004018054600181600116156101000203166002900480601f0160208091040260200160405190810160405280929190818152602001828054600181600116156101000203166002900480156104775780601f1061044c57610100808354040283529160200191610477565b820191906000526020600020905b81548152906001019060200180831161045a57829003601f168201915b505050505090806005018054600181600116156101000203166002900480601f0160208091040260200160405190810160405280929190818152602001828054600181600116156101000203166002900480156105155780601f106104ea57610100808354040283529160200191610515565b820191906000526020600020905b8154815290600101906020018083116104f857829003601f168201915b5050505050908060060154908060070160009054906101000a900473ffffffffffffffffffffffffffffffffffffffff16905088565b60008054600181600116156101000203166002900480601f0160208091040260200160405190810160405280929190818152602001828054600181600116156101000203166002900480156105e15780601f106105b6576101008083540402835291602001916105e1565b820191906000526020600020905b8154815290600101906020018083116105c457829003601f168201915b505050505081565b6000811180156105fb57506001548111155b61060457600080fd5b6000600260008381526020019081526020016000206040518061010001604052908160008201548152602001600182018054600181600116156101000203166002900480601f0160208091040260200160405190810160405280929190818152602001828054600181600116156101000203166002900480156106c85780601f1061069d576101008083540402835291602001916106c8565b820191906000526020600020905b8154815290600101906020018083116106ab57829003601f168201915b50505050508152602001600282018054600181600116156101000203166002900480601f01602080910402602001604051908101604052809291908181526020018280546001816001161561010002031660029004801561076a5780601f1061073f5761010080835404028352916020019161076a565b820191906000526020600020905b81548152906001019060200180831161074d57829003601f168201915b50505050508152602001600382018054600181600116156101000203166002900480601f01602080910402602001604051908101604052809291908181526020018280546001816001161561010002031660029004801561080c5780601f106107e15761010080835404028352916020019161080c565b820191906000526020600020905b8154815290600101906020018083116107ef57829003601f168201915b50505050508152602001600482018054600181600116156101000203166002900480601f0160208091040260200160405190810160405280929190818152602001828054600181600116156101000203166002900480156108ae5780601f10610883576101008083540402835291602001916108ae565b820191906000526020600020905b81548152906001019060200180831161089157829003601f168201915b50505050508152602001600582018054600181600116156101000203166002900480601f0160208091040260200160405190810160405280929190818152602001828054600181600116156101000203166002900480156109505780601f1061092557610100808354040283529160200191610950565b820191906000526020600020905b81548152906001019060200180831161093357829003601f168201915b50505050508152602001600682015481526020016007820160009054906101000a900473ffffffffffffffffffffffffffffffffffffffff1673ffffffffffffffffffffffffffffffffffffffff1673ffffffffffffffffffffffffffffffffffffffff1681525050905060008160e0015190508073ffffffffffffffffffffffffffffffffffffffff166108fc349081150290604051600060405180830381858888f19350505050158015610a0a573d6000803e3d6000fd5b50348260c00151018260c00181815250508160026000858152602001908152602001600020600082015181600001556020820151816001019080519060200190610a5592919061144b565b506040820151816002019080519060200190610a7292919061144b565b506060820151816003019080519060200190610a8f92919061144b565b506080820151816004019080519060200190610aac92919061144b565b5060a0820151816005019080519060200190610ac992919061144b565b5060c0820151816006015560e08201518160070160006101000a81548173ffffffffffffffffffffffffffffffffffffffff021916908373ffffffffffffffffffffffffffffffffffffffff16021790555090505060026000600154815260200190815260200160002060038360200151604051610b479190611807565b90815260200160405180910390206000820154816000015560018201816001019080546001816001161561010002031660029004610b869291906114d9565b5060028201816002019080546001816001161561010002031660029004610bae9291906114d9565b5060038201816003019080546001816001161561010002031660029004610bd69291906114d9565b5060048201816004019080546001816001161561010002031660029004610bfe9291906114d9565b5060058201816005019080546001816001161561010002031660029004610c269291906114d9565b50600682015481600601556007820160009054906101000a900473ffffffffffffffffffffffffffffffffffffffff168160070160006101000a81548173ffffffffffffffffffffffffffffffffffffffff021916908373ffffffffffffffffffffffffffffffffffffffff1602179055509050507ff1aec2b9296221ccfa48dba8ac9f89b8f90d11c0e4c557890ea8023a19b45cf38383602001518460400151856060015186608001518760a001518860c001518960e00151604051610cf4989796959493929190611917565b60405180910390a1505050565b60015481565b6000855111610d1557600080fd5b6000845111610d2357600080fd5b6000835111610d3157600080fd5b600073ffffffffffffffffffffffffffffffffffffffff163373ffffffffffffffffffffffffffffffffffffffff161415610d6b57600080fd5b6001600081548092919060010191905055506040518061010001604052806001548152602001868152602001858152602001848152602001838152602001828152602001600081526020013373ffffffffffffffffffffffffffffffffffffffff16815250600260006001548152602001908152602001600020600082015181600001556020820151816001019080519060200190610e0b92919061144b565b506040820151816002019080519060200190610e2892919061144b565b506060820151816003019080519060200190610e4592919061144b565b506080820151816004019080519060200190610e6292919061144b565b5060a0820151816005019080519060200190610e7f92919061144b565b5060c0820151816006015560e08201518160070160006101000a81548173ffffffffffffffffffffffffffffffffffffffff021916908373ffffffffffffffffffffffffffffffffffffffff160217905550905050600260006001548152602001908152602001600020600386604051610ef99190611807565b90815260200160405180910390206000820154816000015560018201816001019080546001816001161561010002031660029004610f389291906114d9565b5060028201816002019080546001816001161561010002031660029004610f609291906114d9565b5060038201816003019080546001816001161561010002031660029004610f889291906114d9565b5060048201816004019080546001816001161561010002031660029004610fb09291906114d9565b5060058201816005019080546001816001161561010002031660029004610fd89291906114d9565b50600682015481600601556007820160009054906101000a900473ffffffffffffffffffffffffffffffffffffffff168160070160006101000a81548173ffffffffffffffffffffffffffffffffffffffff021916908373ffffffffffffffffffffffffffffffffffffffff1602179055509050507ffb37b60da7cdeb2e49a3f28329d24a1babbaca9db1f1c46fe5994bad6944ede4600154868686868660003360405161108d989796959493929190611876565b60405180910390a15050505050565b6002602052806000526040600020600091509050806000015490806001018054600181600116156101000203166002900480601f01602080910402602001604051908101604052809291908181526020018280546001816001161561010002031660029004801561114e5780601f106111235761010080835404028352916020019161114e565b820191906000526020600020905b81548152906001019060200180831161113157829003601f168201915b505050505090806002018054600181600116156101000203166002900480601f0160208091040260200160405190810160405280929190818152602001828054600181600116156101000203166002900480156111ec5780601f106111c1576101008083540402835291602001916111ec565b820191906000526020600020905b8154815290600101906020018083116111cf57829003601f168201915b505050505090806003018054600181600116156101000203166002900480601f01602080910402602001604051908101604052809291908181526020018280546001816001161561010002031660029004801561128a5780601f1061125f5761010080835404028352916020019161128a565b820191906000526020600020905b81548152906001019060200180831161126d57829003601f168201915b505050505090806004018054600181600116156101000203166002900480601f0160208091040260200160405190810160405280929190818152602001828054600181600116156101000203166002900480156113285780601f106112fd57610100808354040283529160200191611328565b820191906000526020600020905b81548152906001019060200180831161130b57829003601f168201915b505050505090806005018054600181600116156101000203166002900480601f0160208091040260200160405190810160405280929190818152602001828054600181600116156101000203166002900480156113c65780601f1061139b576101008083540402835291602001916113c6565b820191906000526020600020905b8154815290600101906020018083116113a957829003601f168201915b5050505050908060060154908060070160009054906101000a900473ffffffffffffffffffffffffffffffffffffffff16905088565b6000806001541180156114445750600060038360405161141c9190611807565b9081526020016040518091039020600101805460018160011615610100020316600290049050115b9050919050565b828054600181600116156101000203166002900490600052602060002090601f01602090048101928261148157600085556114c8565b82601f1061149a57805160ff19168380011785556114c8565b828001600101855582156114c8579182015b828111156114c75782518255916020019190600101906114ac565b5b5090506114d5919061156e565b5090565b828054600181600116156101000203166002900490600052602060002090601f01602090048101928261150f576000855561155d565b82601f10611520578054855561155d565b8280016001018555821561155d57600052602060002091601f016020900482015b8281111561155c578254825591600101919060010190611541565b5b50905061156a919061156e565b5090565b5b8082111561158757600081600090555060010161156f565b5090565b600061159e611599846119e9565b6119b8565b9050828152602081018484840111156115b657600080fd5b6115c1848285611a9a565b509392505050565b600082601f8301126115da57600080fd5b81356115ea84826020860161158b565b91505092915050565b60008135905061160281611aef565b92915050565b60006020828403121561161a57600080fd5b600082013567ffffffffffffffff81111561163457600080fd5b611640848285016115c9565b91505092915050565b600080600080600060a0868803121561166157600080fd5b600086013567ffffffffffffffff81111561167b57600080fd5b611687888289016115c9565b955050602086013567ffffffffffffffff8111156116a457600080fd5b6116b0888289016115c9565b945050604086013567ffffffffffffffff8111156116cd57600080fd5b6116d9888289016115c9565b935050606086013567ffffffffffffffff8111156116f657600080fd5b611702888289016115c9565b925050608086013567ffffffffffffffff81111561171f57600080fd5b61172b888289016115c9565b9150509295509295909350565b60006020828403121561174a57600080fd5b6000611758848285016115f3565b91505092915050565b61176a81611a40565b82525050565b61177981611a52565b82525050565b61178881611a88565b82525050565b600061179982611a19565b6117a38185611a24565b93506117b3818560208601611aa9565b6117bc81611ade565b840191505092915050565b60006117d282611a19565b6117dc8185611a35565b93506117ec818560208601611aa9565b80840191505092915050565b61180181611a7e565b82525050565b600061181382846117c7565b915081905092915050565b60006020820190506118336000830184611770565b92915050565b60006020820190508181036000830152611853818461178e565b905092915050565b600060208201905061187060008301846117f8565b92915050565b60006101008201905061188c600083018b6117f8565b818103602083015261189e818a61178e565b905081810360408301526118b2818961178e565b905081810360608301526118c6818861178e565b905081810360808301526118da818761178e565b905081810360a08301526118ee818661178e565b90506118fd60c083018561177f565b61190a60e0830184611761565b9998505050505050505050565b60006101008201905061192d600083018b6117f8565b818103602083015261193f818a61178e565b90508181036040830152611953818961178e565b90508181036060830152611967818861178e565b9050818103608083015261197b818761178e565b905081810360a083015261198f818661178e565b905061199e60c08301856117f8565b6119ab60e0830184611761565b9998505050505050505050565b6000604051905081810181811067ffffffffffffffff821117156119df576119de611adc565b5b8060405250919050565b600067ffffffffffffffff821115611a0457611a03611adc565b5b601f19601f8301169050602081019050919050565b600081519050919050565b600082825260208201905092915050565b600081905092915050565b6000611a4b82611a5e565b9050919050565b60008115159050919050565b600073ffffffffffffffffffffffffffffffffffffffff82169050919050565b6000819050919050565b6000611a9382611a7e565b9050919050565b82818337600083830152505050565b60005b83811015611ac7578082015181840152602081019050611aac565b83811115611ad6576000848401525b50505050565bfe5b6000601f19601f8301169050919050565b611af881611a7e565b8114611b0357600080fd5b5056fea26469706673582212204df6499058a1ed458b8ca1455072b00dc38b81384245388977567368665cfdba64736f6c63430007060033",
  "immutableReferences": {},
  "source": "// SPDX-License-Identifier: UNLICENSED\r\npragma solidity >=0.4.22 <0.9.0;\r\npragma abicoder v2;\r\n\r\ncontract Vimbal {\r\n    string public name = 'Vimbal';\r\n\r\n    uint256 public fileCount = 0;\r\n\r\n    mapping(uint256 => File) public files;\r\n    mapping(string => File) public filesByHash;\r\n\r\n    struct File {\r\n        uint256 id;\r\n        string hash;\r\n        string title;\r\n        string authors;\r\n        string keywords;\r\n        string description;\r\n        uint256 tipAmount;\r\n        address payable owner;\r\n    }\r\n\r\n    event FileCreated(\r\n        uint256 id,\r\n        string hash,\r\n        string title,\r\n        string authors,\r\n        string keywords,\r\n        string description,\r\n        uint256 tipAmount,\r\n        address payable owner\r\n    );\r\n\r\n    event FileTipped(\r\n        uint256 id,\r\n        string hash,\r\n        string title,\r\n        string authors,\r\n        string keywords,\r\n        string description,\r\n        uint256 tipAmount,\r\n        address payable owner\r\n    );\r\n\r\n    function uploadFile(\r\n        string memory _fileHash,\r\n        string memory _title,\r\n        string memory _authors,\r\n        string memory _keywords,\r\n        string memory _description\r\n    ) public {\r\n        require(bytes(_fileHash).length > 0);\r\n        require(bytes(_title).length > 0);\r\n        require(bytes(_authors).length > 0);\r\n        require(msg.sender != address(0x0));\r\n        fileCount++;\r\n\r\n        files[fileCount] = File(\r\n            fileCount,\r\n            _fileHash,\r\n            _title,\r\n            _authors,\r\n            _keywords,\r\n            _description,\r\n            0,\r\n            payable(address(msg.sender))\r\n        );\r\n\r\n        filesByHash[_fileHash] = files[fileCount];\r\n\r\n        emit FileCreated(\r\n            fileCount,\r\n            _fileHash,\r\n            _title,\r\n            _authors,\r\n            _keywords,\r\n            _description,\r\n            0,\r\n            payable(address(msg.sender))\r\n        );\r\n    }\r\n\r\n    function tipFileOwner(uint256 _id) public payable {\r\n        require(_id > 0 && _id <= fileCount);\r\n\r\n        File memory _file = files[_id];\r\n        address payable _owner = _file.owner;\r\n        _owner.transfer(msg.value);\r\n\r\n        _file.tipAmount = _file.tipAmount + msg.value;\r\n        files[_id] = _file;\r\n\r\n        filesByHash[_file.hash] = files[fileCount];\r\n\r\n        emit FileTipped(\r\n            _id,\r\n            _file.hash,\r\n            _file.title,\r\n            _file.authors,\r\n            _file.keywords,\r\n            _file.description,\r\n            _file.tipAmount,\r\n            _file.owner\r\n        );\r\n    }\r\n\r\n    function isFileOwned(string memory fileHash) public view returns (bool) {\r\n        return fileCount > 0 && bytes(filesByHash[fileHash].hash).length > 0;\r\n    }\r\n}\r\n",
  "sourcePath": "C:/Users/chama/Documents/Production/vimbal/contracts/Vimbal.sol",
  "compiler": {
    "name": "solc",
    "version": "0.7.6+commit.7338295f.Emscripten.clang"
  },
  "schemaVersion": "3.3.3",
  "updatedAt": "2022-03-28T21:39:58.467Z",
  "networkType": "ethereum",
  "devdoc": {
    "kind": "dev",
    "methods": {},
    "version": 1
  },
  "userdoc": {
    "kind": "user",
    "methods": {},
    "version": 1
  }
}