{
  "contractName": "Vimbal",
  "abi": [
    {
      "anonymous": false,
      "inputs": [
        {
          "indexed": false,
          "internalType": "uint256",
          "name": "id",
          "type": "uint256"
        },
        {
          "indexed": false,
          "internalType": "string",
          "name": "hash",
          "type": "string"
        },
        {
          "indexed": false,
          "internalType": "string",
          "name": "title",
          "type": "string"
        },
        {
          "indexed": false,
          "internalType": "string",
          "name": "authors",
          "type": "string"
        },
        {
          "indexed": false,
          "internalType": "string",
          "name": "keywords",
          "type": "string"
        },
        {
          "indexed": false,
          "internalType": "string",
          "name": "description",
          "type": "string"
        },
        {
          "indexed": false,
          "internalType": "uint256",
          "name": "tipAmount",
          "type": "uint256"
        },
        {
          "indexed": false,
          "internalType": "address payable",
          "name": "owner",
          "type": "address"
        }
      ],
      "name": "FileCreated",
      "type": "event"
    },
    {
      "anonymous": false,
      "inputs": [
        {
          "indexed": false,
          "internalType": "uint256",
          "name": "id",
          "type": "uint256"
        },
        {
          "indexed": false,
          "internalType": "string",
          "name": "hash",
          "type": "string"
        },
        {
          "indexed": false,
          "internalType": "string",
          "name": "title",
          "type": "string"
        },
        {
          "indexed": false,
          "internalType": "string",
          "name": "authors",
          "type": "string"
        },
        {
          "indexed": false,
          "internalType": "string",
          "name": "keywords",
          "type": "string"
        },
        {
          "indexed": false,
          "internalType": "string",
          "name": "description",
          "type": "string"
        },
        {
          "indexed": false,
          "internalType": "uint256",
          "name": "tipAmount",
          "type": "uint256"
        },
        {
          "indexed": false,
          "internalType": "address payable",
          "name": "owner",
          "type": "address"
        }
      ],
      "name": "FileTipped",
      "type": "event"
    },
    {
      "inputs": [],
      "name": "fileCount",
      "outputs": [
        {
          "internalType": "uint256",
          "name": "",
          "type": "uint256"
        }
      ],
      "stateMutability": "view",
      "type": "function",
      "constant": true
    },
    {
      "inputs": [
        {
          "internalType": "uint256",
          "name": "",
          "type": "uint256"
        }
      ],
      "name": "files",
      "outputs": [
        {
          "internalType": "uint256",
          "name": "id",
          "type": "uint256"
        },
        {
          "internalType": "string",
          "name": "hash",
          "type": "string"
        },
        {
          "internalType": "string",
          "name": "title",
          "type": "string"
        },
        {
          "internalType": "string",
          "name": "authors",
          "type": "string"
        },
        {
          "internalType": "string",
          "name": "keywords",
          "type": "string"
        },
        {
          "internalType": "string",
          "name": "description",
          "type": "string"
        },
        {
          "internalType": "uint256",
          "name": "tipAmount",
          "type": "uint256"
        },
        {
          "internalType": "address payable",
          "name": "owner",
          "type": "address"
        }
      ],
      "stateMutability": "view",
      "type": "function",
      "constant": true
    },
    {
      "inputs": [],
      "name": "name",
      "outputs": [
        {
          "internalType": "string",
          "name": "",
          "type": "string"
        }
      ],
      "stateMutability": "view",
      "type": "function",
      "constant": true
    },
    {
      "inputs": [
        {
          "internalType": "string",
          "name": "_fileHash",
          "type": "string"
        },
        {
          "internalType": "string",
          "name": "_title",
          "type": "string"
        },
        {
          "internalType": "string",
          "name": "_authors",
          "type": "string"
        },
        {
          "internalType": "string",
          "name": "_keywords",
          "type": "string"
        },
        {
          "internalType": "string",
          "name": "_description",
          "type": "string"
        }
      ],
      "name": "uploadFile",
      "outputs": [],
      "stateMutability": "nonpayable",
      "type": "function"
    },
    {
      "inputs": [
        {
          "internalType": "uint256",
          "name": "_id",
          "type": "uint256"
        }
      ],
      "name": "tipFileOwner",
      "outputs": [],
      "stateMutability": "payable",
      "type": "function",
      "payable": true
    }
  ],
  "bytecode": "0x60806040526040518060400160405280600681526020017f56696d62616c000000000000000000000000000000000000000000000000000081525060009080519060200190620000519291906200006b565b5060006001553480156200006457600080fd5b5062000121565b828054600181600116156101000203166002900490600052602060002090601f016020900481019282620000a35760008555620000ef565b82601f10620000be57805160ff1916838001178555620000ef565b82800160010185558215620000ef579182015b82811115620000ee578251825591602001919060010190620000d1565b5b509050620000fe919062000102565b5090565b5b808211156200011d57600081600090555060010162000103565b5090565b61127b80620001316000396000f3fe60806040526004361061004a5760003560e01c806306fdde031461004f578063182cb8b21461007a5780634395351914610096578063ef8b3839146100c1578063f4c714b4146100ea575b600080fd5b34801561005b57600080fd5b5061006461012e565b6040516100719190610f8f565b60405180910390f35b610094600480360381019061008f9190610f00565b6101cc565b005b3480156100a257600080fd5b506100ab610767565b6040516100b89190610fb1565b60405180910390f35b3480156100cd57600080fd5b506100e860048036038101906100e39190610e11565b61076d565b005b3480156100f657600080fd5b50610111600480360381019061010c9190610f00565b610989565b60405161012598979695949392919061106d565b60405180910390f35b60008054600181600116156101000203166002900480601f0160208091040260200160405190810160405280929190818152602001828054600181600116156101000203166002900480156101c45780601f10610199576101008083540402835291602001916101c4565b820191906000526020600020905b8154815290600101906020018083116101a757829003601f168201915b505050505081565b6000811180156101de57506001548111155b6101e757600080fd5b6000600260008381526020019081526020016000206040518061010001604052908160008201548152602001600182018054600181600116156101000203166002900480601f0160208091040260200160405190810160405280929190818152602001828054600181600116156101000203166002900480156102ab5780601f10610280576101008083540402835291602001916102ab565b820191906000526020600020905b81548152906001019060200180831161028e57829003601f168201915b50505050508152602001600282018054600181600116156101000203166002900480601f01602080910402602001604051908101604052809291908181526020018280546001816001161561010002031660029004801561034d5780601f106103225761010080835404028352916020019161034d565b820191906000526020600020905b81548152906001019060200180831161033057829003601f168201915b50505050508152602001600382018054600181600116156101000203166002900480601f0160208091040260200160405190810160405280929190818152602001828054600181600116156101000203166002900480156103ef5780601f106103c4576101008083540402835291602001916103ef565b820191906000526020600020905b8154815290600101906020018083116103d257829003601f168201915b50505050508152602001600482018054600181600116156101000203166002900480601f0160208091040260200160405190810160405280929190818152602001828054600181600116156101000203166002900480156104915780601f1061046657610100808354040283529160200191610491565b820191906000526020600020905b81548152906001019060200180831161047457829003601f168201915b50505050508152602001600582018054600181600116156101000203166002900480601f0160208091040260200160405190810160405280929190818152602001828054600181600116156101000203166002900480156105335780601f1061050857610100808354040283529160200191610533565b820191906000526020600020905b81548152906001019060200180831161051657829003601f168201915b50505050508152602001600682015481526020016007820160009054906101000a900473ffffffffffffffffffffffffffffffffffffffff1673ffffffffffffffffffffffffffffffffffffffff1673ffffffffffffffffffffffffffffffffffffffff1681525050905060008160e0015190508073ffffffffffffffffffffffffffffffffffffffff166108fc349081150290604051600060405180830381858888f193505050501580156105ed573d6000803e3d6000fd5b50348260c00151018260c00181815250508160026000858152602001908152602001600020600082015181600001556020820151816001019080519060200190610638929190610ce9565b506040820151816002019080519060200190610655929190610ce9565b506060820151816003019080519060200190610672929190610ce9565b50608082015181600401908051906020019061068f929190610ce9565b5060a08201518160050190805190602001906106ac929190610ce9565b5060c0820151816006015560e08201518160070160006101000a81548173ffffffffffffffffffffffffffffffffffffffff021916908373ffffffffffffffffffffffffffffffffffffffff1602179055509050507ff1aec2b9296221ccfa48dba8ac9f89b8f90d11c0e4c557890ea8023a19b45cf38383602001518460400151856060015186608001518760a001518860c001518960e0015160405161075a98979695949392919061106d565b60405180910390a1505050565b60015481565b600085511161077b57600080fd5b600084511161078957600080fd5b600083511161079757600080fd5b600073ffffffffffffffffffffffffffffffffffffffff163373ffffffffffffffffffffffffffffffffffffffff1614156107d157600080fd5b6001600081548092919060010191905055506040518061010001604052806001548152602001868152602001858152602001848152602001838152602001828152602001600081526020013373ffffffffffffffffffffffffffffffffffffffff16815250600260006001548152602001908152602001600020600082015181600001556020820151816001019080519060200190610871929190610ce9565b50604082015181600201908051906020019061088e929190610ce9565b5060608201518160030190805190602001906108ab929190610ce9565b5060808201518160040190805190602001906108c8929190610ce9565b5060a08201518160050190805190602001906108e5929190610ce9565b5060c0820151816006015560e08201518160070160006101000a81548173ffffffffffffffffffffffffffffffffffffffff021916908373ffffffffffffffffffffffffffffffffffffffff1602179055509050507ffb37b60da7cdeb2e49a3f28329d24a1babbaca9db1f1c46fe5994bad6944ede4600154868686868660003360405161097a989796959493929190610fcc565b60405180910390a15050505050565b6002602052806000526040600020600091509050806000015490806001018054600181600116156101000203166002900480601f016020809104026020016040519081016040528092919081815260200182805460018160011615610100020316600290048015610a3b5780601f10610a1057610100808354040283529160200191610a3b565b820191906000526020600020905b815481529060010190602001808311610a1e57829003601f168201915b505050505090806002018054600181600116156101000203166002900480601f016020809104026020016040519081016040528092919081815260200182805460018160011615610100020316600290048015610ad95780601f10610aae57610100808354040283529160200191610ad9565b820191906000526020600020905b815481529060010190602001808311610abc57829003601f168201915b505050505090806003018054600181600116156101000203166002900480601f016020809104026020016040519081016040528092919081815260200182805460018160011615610100020316600290048015610b775780601f10610b4c57610100808354040283529160200191610b77565b820191906000526020600020905b815481529060010190602001808311610b5a57829003601f168201915b505050505090806004018054600181600116156101000203166002900480601f016020809104026020016040519081016040528092919081815260200182805460018160011615610100020316600290048015610c155780601f10610bea57610100808354040283529160200191610c15565b820191906000526020600020905b815481529060010190602001808311610bf857829003601f168201915b505050505090806005018054600181600116156101000203166002900480601f016020809104026020016040519081016040528092919081815260200182805460018160011615610100020316600290048015610cb35780601f10610c8857610100808354040283529160200191610cb3565b820191906000526020600020905b815481529060010190602001808311610c9657829003601f168201915b5050505050908060060154908060070160009054906101000a900473ffffffffffffffffffffffffffffffffffffffff16905088565b828054600181600116156101000203166002900490600052602060002090601f016020900481019282610d1f5760008555610d66565b82601f10610d3857805160ff1916838001178555610d66565b82800160010185558215610d66579182015b82811115610d65578251825591602001919060010190610d4a565b5b509050610d739190610d77565b5090565b5b80821115610d90576000816000905550600101610d78565b5090565b6000610da7610da28461113f565b61110e565b905082815260208101848484011115610dbf57600080fd5b610dca8482856111d9565b509392505050565b600082601f830112610de357600080fd5b8135610df3848260208601610d94565b91505092915050565b600081359050610e0b8161122e565b92915050565b600080600080600060a08688031215610e2957600080fd5b600086013567ffffffffffffffff811115610e4357600080fd5b610e4f88828901610dd2565b955050602086013567ffffffffffffffff811115610e6c57600080fd5b610e7888828901610dd2565b945050604086013567ffffffffffffffff811115610e9557600080fd5b610ea188828901610dd2565b935050606086013567ffffffffffffffff811115610ebe57600080fd5b610eca88828901610dd2565b925050608086013567ffffffffffffffff811115610ee757600080fd5b610ef388828901610dd2565b9150509295509295909350565b600060208284031215610f1257600080fd5b6000610f2084828501610dfc565b91505092915050565b610f328161118b565b82525050565b610f41816111c7565b82525050565b6000610f528261116f565b610f5c818561117a565b9350610f6c8185602086016111e8565b610f758161121d565b840191505092915050565b610f89816111bd565b82525050565b60006020820190508181036000830152610fa98184610f47565b905092915050565b6000602082019050610fc66000830184610f80565b92915050565b600061010082019050610fe2600083018b610f80565b8181036020830152610ff4818a610f47565b905081810360408301526110088189610f47565b9050818103606083015261101c8188610f47565b905081810360808301526110308187610f47565b905081810360a08301526110448186610f47565b905061105360c0830185610f38565b61106060e0830184610f29565b9998505050505050505050565b600061010082019050611083600083018b610f80565b8181036020830152611095818a610f47565b905081810360408301526110a98189610f47565b905081810360608301526110bd8188610f47565b905081810360808301526110d18187610f47565b905081810360a08301526110e58186610f47565b90506110f460c0830185610f80565b61110160e0830184610f29565b9998505050505050505050565b6000604051905081810181811067ffffffffffffffff821117156111355761113461121b565b5b8060405250919050565b600067ffffffffffffffff82111561115a5761115961121b565b5b601f19601f8301169050602081019050919050565b600081519050919050565b600082825260208201905092915050565b60006111968261119d565b9050919050565b600073ffffffffffffffffffffffffffffffffffffffff82169050919050565b6000819050919050565b60006111d2826111bd565b9050919050565b82818337600083830152505050565b60005b838110156112065780820151818401526020810190506111eb565b83811115611215576000848401525b50505050565bfe5b6000601f19601f8301169050919050565b611237816111bd565b811461124257600080fd5b5056fea26469706673582212208fbf37ebb141f6f5c53ae26449e431f39b6e96da0f7a79e27846cbef749c554164736f6c63430007060033",
  "immutableReferences": {},
  "source": "// SPDX-License-Identifier: UNLICENSED\r\npragma solidity >=0.4.22 <0.9.0;\r\npragma abicoder v2;\r\n\r\ncontract Vimbal {\r\n    string public name = 'Vimbal';\r\n\r\n    uint256 public fileCount = 0;\r\n\r\n    mapping(uint256 => File) public files;\r\n\r\n    struct File {\r\n        uint256 id;\r\n        string hash;\r\n        string title;\r\n        string authors;\r\n        string keywords;\r\n        string description;\r\n        uint256 tipAmount;\r\n        address payable owner;\r\n    }\r\n\r\n    event FileCreated(\r\n        uint256 id,\r\n        string hash,\r\n        string title,\r\n        string authors,\r\n        string keywords,\r\n        string description,\r\n        uint256 tipAmount,\r\n        address payable owner\r\n    );\r\n\r\n    event FileTipped(\r\n        uint256 id,\r\n        string hash,\r\n        string title,\r\n        string authors,\r\n        string keywords,\r\n        string description,\r\n        uint256 tipAmount,\r\n        address payable owner\r\n    );\r\n\r\n    function uploadFile(\r\n        string memory _fileHash,\r\n        string memory _title,\r\n        string memory _authors,\r\n        string memory _keywords,\r\n        string memory _description\r\n    ) public {\r\n        require(bytes(_fileHash).length > 0);\r\n        require(bytes(_title).length > 0);\r\n        require(bytes(_authors).length > 0);\r\n        require(msg.sender != address(0x0));\r\n        fileCount++;\r\n\r\n        files[fileCount] = File(\r\n            fileCount,\r\n            _fileHash,\r\n            _title,\r\n            _authors,\r\n            _keywords,\r\n            _description,\r\n            0,\r\n            payable(address(msg.sender))\r\n        );\r\n\r\n        emit FileCreated(\r\n            fileCount,\r\n            _fileHash,\r\n            _title,\r\n            _authors,\r\n            _keywords,\r\n            _description,\r\n            0,\r\n            payable(address(msg.sender))\r\n        );\r\n    }\r\n\r\n    function tipFileOwner(uint256 _id) public payable {\r\n        require(_id > 0 && _id <= fileCount);\r\n\r\n        File memory _file = files[_id];\r\n        address payable _owner = _file.owner;\r\n        _owner.transfer(msg.value);\r\n\r\n        _file.tipAmount = _file.tipAmount + msg.value;\r\n        files[_id] = _file;\r\n\r\n        emit FileTipped(\r\n            _id,\r\n            _file.hash,\r\n            _file.title,\r\n            _file.authors,\r\n            _file.keywords,\r\n            _file.description,\r\n            _file.tipAmount,\r\n            _file.owner\r\n        );\r\n    }\r\n}\r\n",
  "sourcePath": "C:/Users/chama/Documents/FYP/vimbal/contracts/Vimbal.sol",
  "compiler": {
    "name": "solc",
    "version": "0.7.6+commit.7338295f.Emscripten.clang"
  },
  "schemaVersion": "3.3.3",
  "updatedAt": "2022-08-13T09:48:53.364Z",
  "networkType": "ethereum",
  "devdoc": {
    "kind": "dev",
    "methods": {},
    "version": 1
  },
  "userdoc": {
    "kind": "user",
    "methods": {},
    "version": 1
  }
}